{
  "contractName": "BasAsset",
  "abi": [
    {
      "inputs": [
        {
          "internalType": "address",
          "name": "_o",
          "type": "address"
        }
      ],
      "payable": false,
      "stateMutability": "nonpayable",
      "type": "constructor"
    },
    {
      "anonymous": false,
      "inputs": [
        {
          "indexed": false,
          "internalType": "bytes32",
          "name": "nameHash",
          "type": "bytes32"
        }
      ],
      "name": "RootChanged",
      "type": "event"
    },
    {
      "anonymous": false,
      "inputs": [
        {
          "indexed": false,
          "internalType": "bytes32",
          "name": "nameHash",
          "type": "bytes32"
        }
      ],
      "name": "SubChanged",
      "type": "event"
    },
    {
      "constant": true,
      "inputs": [
        {
          "internalType": "bytes32",
          "name": "",
          "type": "bytes32"
        }
      ],
      "name": "Root",
      "outputs": [
        {
          "internalType": "bytes",
          "name": "rootName",
          "type": "bytes"
        },
        {
          "internalType": "bool",
          "name": "openToPublic",
          "type": "bool"
        },
        {
          "internalType": "bool",
          "name": "isCustomed",
          "type": "bool"
        },
        {
          "internalType": "uint256",
          "name": "customedPrice",
          "type": "uint256"
        }
      ],
      "payable": false,
      "stateMutability": "view",
      "type": "function"
    },
    {
      "constant": true,
      "inputs": [
        {
          "internalType": "bytes32",
          "name": "",
          "type": "bytes32"
        }
      ],
      "name": "Sub",
      "outputs": [
        {
          "internalType": "bytes",
          "name": "totalName",
          "type": "bytes"
        },
        {
          "internalType": "bytes32",
          "name": "rootHash",
          "type": "bytes32"
        }
      ],
      "payable": false,
      "stateMutability": "view",
      "type": "function"
    },
    {
      "constant": true,
      "inputs": [],
      "name": "o",
      "outputs": [
        {
          "internalType": "contract BasOwnership",
          "name": "",
          "type": "address"
        }
      ],
      "payable": false,
      "stateMutability": "view",
      "type": "function"
    },
    {
      "constant": true,
      "inputs": [
        {
          "internalType": "bytes32",
          "name": "nameHash",
          "type": "bytes32"
        }
      ],
      "name": "rootExist",
      "outputs": [
        {
          "internalType": "bool",
          "name": "",
          "type": "bool"
        }
      ],
      "payable": false,
      "stateMutability": "view",
      "type": "function"
    },
    {
      "constant": true,
      "inputs": [
        {
          "internalType": "bytes32",
          "name": "nameHash",
          "type": "bytes32"
        }
      ],
      "name": "subExist",
      "outputs": [
        {
          "internalType": "bool",
          "name": "",
          "type": "bool"
        }
      ],
      "payable": false,
      "stateMutability": "view",
      "type": "function"
    },
    {
      "constant": true,
      "inputs": [
        {
          "internalType": "bytes",
          "name": "name",
          "type": "bytes"
        }
      ],
      "name": "Hash",
      "outputs": [
        {
          "internalType": "bytes32",
          "name": "",
          "type": "bytes32"
        }
      ],
      "payable": false,
      "stateMutability": "pure",
      "type": "function"
    },
    {
      "constant": true,
      "inputs": [
        {
          "internalType": "bytes",
          "name": "sName",
          "type": "bytes"
        },
        {
          "internalType": "bytes",
          "name": "rName",
          "type": "bytes"
        }
      ],
      "name": "TotalNameHash",
      "outputs": [
        {
          "internalType": "bytes32",
          "name": "",
          "type": "bytes32"
        }
      ],
      "payable": false,
      "stateMutability": "pure",
      "type": "function"
    },
    {
      "constant": false,
      "inputs": [
        {
          "internalType": "bytes",
          "name": "rootName",
          "type": "bytes"
        },
        {
          "internalType": "bool",
          "name": "openToPublic",
          "type": "bool"
        },
        {
          "internalType": "bool",
          "name": "isCustomed",
          "type": "bool"
        },
        {
          "internalType": "uint256",
          "name": "customedPrice",
          "type": "uint256"
        }
      ],
      "name": "_a_updateRoot",
      "outputs": [],
      "payable": false,
      "stateMutability": "nonpayable",
      "type": "function"
    },
    {
      "constant": false,
      "inputs": [
        {
          "internalType": "bytes",
          "name": "rootName",
          "type": "bytes"
        },
        {
          "internalType": "bool",
          "name": "openToPublic",
          "type": "bool"
        },
        {
          "internalType": "bool",
          "name": "isCustomed",
          "type": "bool"
        },
        {
          "internalType": "uint256",
          "name": "customedPrice",
          "type": "uint256"
        }
      ],
      "name": "_c_addRoot",
      "outputs": [],
      "payable": false,
      "stateMutability": "nonpayable",
      "type": "function"
    },
    {
      "constant": false,
      "inputs": [
        {
          "internalType": "bytes32",
          "name": "nameHash",
          "type": "bytes32"
        },
        {
          "internalType": "bool",
          "name": "openToPublic",
          "type": "bool"
        },
        {
          "internalType": "bool",
          "name": "isCustomed",
          "type": "bool"
        },
        {
          "internalType": "uint256",
          "name": "customedPrice",
          "type": "uint256"
        }
      ],
      "name": "_c_updateRoot",
      "outputs": [],
      "payable": false,
      "stateMutability": "nonpayable",
      "type": "function"
    },
    {
      "constant": false,
      "inputs": [
        {
          "internalType": "bytes",
          "name": "totalName",
          "type": "bytes"
        },
        {
          "internalType": "bytes32",
          "name": "rootHash",
          "type": "bytes32"
        }
      ],
      "name": "_a_updateSub",
      "outputs": [],
      "payable": false,
      "stateMutability": "nonpayable",
      "type": "function"
    },
    {
      "constant": false,
      "inputs": [
        {
          "internalType": "bytes",
          "name": "totalName",
          "type": "bytes"
        },
        {
          "internalType": "bytes32",
          "name": "rootHash",
          "type": "bytes32"
        }
      ],
      "name": "_c_addSub",
      "outputs": [],
      "payable": false,
      "stateMutability": "nonpayable",
      "type": "function"
    }
  ],
  "bytecode": "0x608060405234801561001057600080fd5b50604051611b51380380611b518339818101604052602081101561003357600080fd5b810190808051906020019092919050505080806000806101000a81548173ffffffffffffffffffffffffffffffffffffffff021916908373ffffffffffffffffffffffffffffffffffffffff1602179055505050611abb806100966000396000f3fe608060405234801561001057600080fd5b50600436106100b45760003560e01c80636f84208d116100715780636f84208d1461034d57806383026106146103e857806383b8202f1461042e578063aa57635e146104f2578063bd1bd35a1461058d578063c38219721461065c576100b4565b80630119a9e6146100b9578063333cf44c146100ff57806350cd4df2146101ad578063514bfdca146101f7578063603f29cd1461024757806366967cfb146102ca575b600080fd5b6100e5600480360360208110156100cf57600080fd5b81019080803590602001909291905050506107c2565b604051808215151515815260200191505060405180910390f35b61012b6004803603602081101561011557600080fd5b81019080803590602001909291905050506107f8565b6040518080602001838152602001828103825284818151815260200191508051906020019080838360005b83811015610171578082015181840152602081019050610156565b50505050905090810190601f16801561019e5780820380516001836020036101000a031916815260200191505b50935050505060405180910390f35b6101b56108b4565b604051808273ffffffffffffffffffffffffffffffffffffffff1673ffffffffffffffffffffffffffffffffffffffff16815260200191505060405180910390f35b6102456004803603608081101561020d57600080fd5b8101908080359060200190929190803515159060200190929190803515159060200190929190803590602001909291905050506108d9565b005b6102c86004803603604081101561025d57600080fd5b810190808035906020019064010000000081111561027a57600080fd5b82018360208201111561028c57600080fd5b803590602001918460018302840111640100000000831117156102ae57600080fd5b909192939192939080359060200190929190505050610c23565b005b61034b600480360360408110156102e057600080fd5b81019080803590602001906401000000008111156102fd57600080fd5b82018360208201111561030f57600080fd5b8035906020019184600183028401116401000000008311171561033157600080fd5b909192939192939080359060200190929190505050610e89565b005b6103e66004803603608081101561036357600080fd5b810190808035906020019064010000000081111561038057600080fd5b82018360208201111561039257600080fd5b803590602001918460018302840111640100000000831117156103b457600080fd5b90919293919293908035151590602001909291908035151590602001909291908035906020019092919050505061116b565b005b610414600480360360208110156103fe57600080fd5b810190808035906020019092919050505061149f565b604051808215151515815260200191505060405180910390f35b61045a6004803603602081101561044457600080fd5b81019080803590602001909291905050506114d5565b60405180806020018515151515815260200184151515158152602001838152602001828103825286818151815260200191508051906020019080838360005b838110156104b4578082015181840152602081019050610499565b50505050905090810190601f1680156104e15780820380516001836020036101000a031916815260200191505b509550505050505060405180910390f35b61058b6004803603608081101561050857600080fd5b810190808035906020019064010000000081111561052557600080fd5b82018360208201111561053757600080fd5b8035906020019184600183028401116401000000008311171561055957600080fd5b9091929391929390803515159060200190929190803515159060200190929190803590602001909291905050506115b7565b005b610646600480360360208110156105a357600080fd5b81019080803590602001906401000000008111156105c057600080fd5b8201836020820111156105d257600080fd5b803590602001918460018302840111640100000000831117156105f457600080fd5b91908080601f016020809104026020016040519081016040528093929190818152602001838380828437600081840152601f19601f82011690508083019250505050505050919291929050505061186f565b6040518082815260200191505060405180910390f35b6107ac6004803603604081101561067257600080fd5b810190808035906020019064010000000081111561068f57600080fd5b8201836020820111156106a157600080fd5b803590602001918460018302840111640100000000831117156106c357600080fd5b91908080601f016020809104026020016040519081016040528093929190818152602001838380828437600081840152601f19601f8201169050808301925050505050505091929192908035906020019064010000000081111561072657600080fd5b82018360208201111561073857600080fd5b8035906020019184600183028401116401000000008311171561075a57600080fd5b91908080601f016020809104026020016040519081016040528093929190818152602001838380828437600081840152601f19601f8201169050808301925050505050505091929192905050506118ea565b6040518082815260200191505060405180910390f35b60008060026000848152602001908152602001600020600001805460018160011615610100020316600290049050119050919050565b6002602052806000526040600020600091509050806000018054600181600116156101000203166002900480601f0160208091040260200160405190810160405280929190818152602001828054600181600116156101000203166002900480156108a45780601f10610879576101008083540402835291602001916108a4565b820191906000526020600020905b81548152906001019060200180831161088757829003601f168201915b5050505050908060010154905082565b6000809054906101000a900473ffffffffffffffffffffffffffffffffffffffff1681565b6000809054906101000a900473ffffffffffffffffffffffffffffffffffffffff1673ffffffffffffffffffffffffffffffffffffffff166354cf428a6040518163ffffffff1660e01b815260040160206040518083038186803b15801561094057600080fd5b505afa158015610954573d6000803e3d6000fd5b505050506040513d602081101561096a57600080fd5b810190808051906020019092919050505073ffffffffffffffffffffffffffffffffffffffff163373ffffffffffffffffffffffffffffffffffffffff1614610a1b576040517f08c379a00000000000000000000000000000000000000000000000000000000081526004018080602001828103825260148152602001807f636f6e74726163742063616c6c6572206f6e6c7900000000000000000000000081525060200191505060405180910390fd5b610a248461149f565b610a96576040517f08c379a000000000000000000000000000000000000000000000000000000000815260040180806020018281038252600e8152602001807f726f6f74206e6f7420657869737400000000000000000000000000000000000081525060200191505060405180910390fd5b6040518060800160405280600160008781526020019081526020016000206000018054600181600116156101000203166002900480601f016020809104026020016040519081016040528092919081815260200182805460018160011615610100020316600290048015610b4b5780601f10610b2057610100808354040283529160200191610b4b565b820191906000526020600020905b815481529060010190602001808311610b2e57829003601f168201915b505050505081526020018415158152602001831515815260200182815250600160008681526020019081526020016000206000820151816000019080519060200190610b989291906119e1565b5060208201518160010160006101000a81548160ff02191690831515021790555060408201518160010160016101000a81548160ff021916908315150217905550606082015181600201559050507f545a99af2f74d472d3ceb11889ff68b31a1a02f48a9431f04cda814892ee57e2846040518082815260200191505060405180910390a150505050565b6000809054906101000a900473ffffffffffffffffffffffffffffffffffffffff1673ffffffffffffffffffffffffffffffffffffffff1663f851a4406040518163ffffffff1660e01b815260040160206040518083038186803b158015610c8a57600080fd5b505afa158015610c9e573d6000803e3d6000fd5b505050506040513d6020811015610cb457600080fd5b810190808051906020019092919050505073ffffffffffffffffffffffffffffffffffffffff163373ffffffffffffffffffffffffffffffffffffffff1614610d65576040517f08c379a000000000000000000000000000000000000000000000000000000000815260040180806020018281038252600a8152602001807f61646d696e206f6e6c790000000000000000000000000000000000000000000081525060200191505060405180910390fd5b6000610db484848080601f016020809104026020016040519081016040528093929190818152602001838380828437600081840152601f19601f8201169050808301925050505050505061186f565b9050604051806040016040528085858080601f016020809104026020016040519081016040528093929190818152602001838380828437600081840152601f19601f82011690508083019250505050505050815260200183815250600260008381526020019081526020016000206000820151816000019080519060200190610e3e9291906119e1565b50602082015181600101559050507f5bbf7d10adbd21c487c35c286faeeea72d10232dbc9c7e55d05f10f40f5ac3c3816040518082815260200191505060405180910390a150505050565b6000809054906101000a900473ffffffffffffffffffffffffffffffffffffffff1673ffffffffffffffffffffffffffffffffffffffff166354cf428a6040518163ffffffff1660e01b815260040160206040518083038186803b158015610ef057600080fd5b505afa158015610f04573d6000803e3d6000fd5b505050506040513d6020811015610f1a57600080fd5b810190808051906020019092919050505073ffffffffffffffffffffffffffffffffffffffff163373ffffffffffffffffffffffffffffffffffffffff1614610fcb576040517f08c379a00000000000000000000000000000000000000000000000000000000081526004018080602001828103825260148152602001807f636f6e74726163742063616c6c6572206f6e6c7900000000000000000000000081525060200191505060405180910390fd5b600061101a84848080601f016020809104026020016040519081016040528093929190818152602001838380828437600081840152601f19601f8201169050808301925050505050505061186f565b9050611025816107c2565b15611098576040517f08c379a00000000000000000000000000000000000000000000000000000000081526004018080602001828103825260098152602001807f737562206578697374000000000000000000000000000000000000000000000081525060200191505060405180910390fd5b604051806040016040528085858080601f016020809104026020016040519081016040528093929190818152602001838380828437600081840152601f19601f820116905080830192505050505050508152602001838152506002600083815260200190815260200160002060008201518160000190805190602001906111209291906119e1565b50602082015181600101559050507f5bbf7d10adbd21c487c35c286faeeea72d10232dbc9c7e55d05f10f40f5ac3c3816040518082815260200191505060405180910390a150505050565b6000809054906101000a900473ffffffffffffffffffffffffffffffffffffffff1673ffffffffffffffffffffffffffffffffffffffff166354cf428a6040518163ffffffff1660e01b815260040160206040518083038186803b1580156111d257600080fd5b505afa1580156111e6573d6000803e3d6000fd5b505050506040513d60208110156111fc57600080fd5b810190808051906020019092919050505073ffffffffffffffffffffffffffffffffffffffff163373ffffffffffffffffffffffffffffffffffffffff16146112ad576040517f08c379a00000000000000000000000000000000000000000000000000000000081526004018080602001828103825260148152602001807f636f6e74726163742063616c6c6572206f6e6c7900000000000000000000000081525060200191505060405180910390fd5b60006112fc86868080601f016020809104026020016040519081016040528093929190818152602001838380828437600081840152601f19601f8201169050808301925050505050505061186f565b90506113078161149f565b1561137a576040517f08c379a000000000000000000000000000000000000000000000000000000000815260040180806020018281038252600a8152602001807f726f6f742065786973740000000000000000000000000000000000000000000081525060200191505060405180910390fd5b604051806080016040528087878080601f016020809104026020016040519081016040528093929190818152602001838380828437600081840152601f19601f82011690508083019250505050505050815260200185151581526020018415158152602001838152506001600083815260200190815260200160002060008201518160000190805190602001906114129291906119e1565b5060208201518160010160006101000a81548160ff02191690831515021790555060408201518160010160016101000a81548160ff021916908315150217905550606082015181600201559050507f545a99af2f74d472d3ceb11889ff68b31a1a02f48a9431f04cda814892ee57e2816040518082815260200191505060405180910390a1505050505050565b60008060016000848152602001908152602001600020600001805460018160011615610100020316600290049050119050919050565b6001602052806000526040600020600091509050806000018054600181600116156101000203166002900480601f0160208091040260200160405190810160405280929190818152602001828054600181600116156101000203166002900480156115815780601f1061155657610100808354040283529160200191611581565b820191906000526020600020905b81548152906001019060200180831161156457829003601f168201915b5050505050908060010160009054906101000a900460ff16908060010160019054906101000a900460ff16908060020154905084565b6000809054906101000a900473ffffffffffffffffffffffffffffffffffffffff1673ffffffffffffffffffffffffffffffffffffffff1663f851a4406040518163ffffffff1660e01b815260040160206040518083038186803b15801561161e57600080fd5b505afa158015611632573d6000803e3d6000fd5b505050506040513d602081101561164857600080fd5b810190808051906020019092919050505073ffffffffffffffffffffffffffffffffffffffff163373ffffffffffffffffffffffffffffffffffffffff16146116f9576040517f08c379a000000000000000000000000000000000000000000000000000000000815260040180806020018281038252600a8152602001807f61646d696e206f6e6c790000000000000000000000000000000000000000000081525060200191505060405180910390fd5b600061174886868080601f016020809104026020016040519081016040528093929190818152602001838380828437600081840152601f19601f8201169050808301925050505050505061186f565b9050604051806080016040528087878080601f016020809104026020016040519081016040528093929190818152602001838380828437600081840152601f19601f82011690508083019250505050505050815260200185151581526020018415158152602001838152506001600083815260200190815260200160002060008201518160000190805190602001906117e29291906119e1565b5060208201518160010160006101000a81548160ff02191690831515021790555060408201518160010160016101000a81548160ff021916908315150217905550606082015181600201559050507f545a99af2f74d472d3ceb11889ff68b31a1a02f48a9431f04cda814892ee57e2816040518082815260200191505060405180910390a1505050505050565b6000816040516020018082805190602001908083835b602083106118a85780518252602082019150602081019050602083039250611885565b6001836020036101000a038019825116818451168082178552505050505050905001915050604051602081830303815290604052805190602001209050919050565b600082826040516020018083805190602001908083835b602083106119245780518252602082019150602081019050602083039250611901565b6001836020036101000a038019825116818451168082178552505050505050905001807f2e0000000000000000000000000000000000000000000000000000000000000081525060010182805190602001908083835b6020831061199d578051825260208201915060208101905060208303925061197a565b6001836020036101000a0380198251168184511680821785525050505050509050019250505060405160208183030381529060405280519060200120905092915050565b828054600181600116156101000203166002900490600052602060002090601f016020900481019282601f10611a2257805160ff1916838001178555611a50565b82800160010185558215611a50579182015b82811115611a4f578251825591602001919060010190611a34565b5b509050611a5d9190611a61565b5090565b611a8391905b80821115611a7f576000816000905550600101611a67565b5090565b9056fea265627a7a723158208f6d17999d03c733edc4574a18a723a31336a066048eaef0e8aacd5afc83085864736f6c63430005100032",
  "source": "pragma solidity >=0.5.0;\n\nimport \"./BasOwned.sol\";\n\ncontract BasAsset is BasOwned {\n    constructor(address _o) public BasOwned(_o) {}\n\n    struct SubItem {\n        bytes totalName;\n        bytes32 rootHash;\n    }\n\n    struct RootItem {\n        bytes rootName;\n        bool openToPublic;\n        bool isCustomed;\n        uint256 customedPrice;\n    }\n\n    event RootChanged(bytes32 nameHash);\n    event SubChanged(bytes32 nameHash);\n\n    mapping(bytes32 => RootItem) public Root;\n    mapping(bytes32 => SubItem) public Sub;\n\n    function rootExist(bytes32 nameHash) public view returns (bool) {\n        return Root[nameHash].rootName.length > 0;\n    }\n\n    function subExist(bytes32 nameHash) public view returns (bool) {\n        return Sub[nameHash].totalName.length > 0;\n    }\n\n    modifier RootChange(bytes32 nameHash) {\n        _;\n        emit RootChanged(nameHash);\n    }\n\n    function Hash(bytes memory name) public pure returns (bytes32) {\n        return keccak256(abi.encodePacked(name));\n    }\n\n    function TotalNameHash(bytes memory sName, bytes memory rName)\n        public\n        pure\n        returns (bytes32)\n    {\n        return keccak256(abi.encodePacked(sName, \".\", rName));\n    }\n\n    function _a_updateRoot(\n        bytes calldata rootName,\n        bool openToPublic,\n        bool isCustomed,\n        uint256 customedPrice\n    ) external Admin {\n        bytes32 nameHash = Hash(rootName);\n        Root[nameHash] = RootItem(\n            rootName,\n            openToPublic,\n            isCustomed,\n            customedPrice\n        );\n        emit RootChanged(nameHash);\n    }\n\n    function _c_addRoot(\n        bytes calldata rootName,\n        bool openToPublic,\n        bool isCustomed,\n        uint256 customedPrice\n    ) external ContractCaller {\n        bytes32 nameHash = Hash(rootName);\n        require(!rootExist(nameHash), \"root exist\");\n        Root[nameHash] = RootItem(\n            rootName,\n            openToPublic,\n            isCustomed,\n            customedPrice\n        );\n        emit RootChanged(nameHash);\n    }\n\n    function _c_updateRoot(\n        bytes32 nameHash,\n        bool openToPublic,\n        bool isCustomed,\n        uint256 customedPrice\n    ) external ContractCaller {\n        require(rootExist(nameHash), \"root not exist\");\n        Root[nameHash] = RootItem(\n            Root[nameHash].rootName,\n            openToPublic,\n            isCustomed,\n            customedPrice\n        );\n        emit RootChanged(nameHash);\n    }\n\n    function _a_updateSub(bytes calldata totalName, bytes32 rootHash)\n        external\n        Admin\n    {\n        bytes32 nameHash = Hash(totalName);\n        Sub[nameHash] = SubItem(totalName, rootHash);\n        emit SubChanged(nameHash);\n    }\n\n    function _c_addSub(bytes calldata totalName, bytes32 rootHash)\n        external\n        ContractCaller\n    {\n        bytes32 nameHash = Hash(totalName);\n        require(!subExist(nameHash), \"sub exist\");\n        Sub[nameHash] = SubItem(totalName, rootHash);\n        emit SubChanged(nameHash);\n    }\n\n}\n",
  "sourcePath": "/Users/mini2/workspace/truffle suite/baschain/contracts/BasAsset.sol",
  "compiler": {
    "name": "solc",
    "version": "0.5.16+commit.9c3226ce.Emscripten.clang"
  },
  "schemaVersion": "3.0.23",
  "updatedAt": "2020-04-09T02:30:51.375Z",
  "networkType": "ethereum",
  "devdoc": {
    "methods": {}
  },
  "userdoc": {
    "methods": {}
  }
}