{
  "contractName": "BasContact",
  "abi": [
    {
      "inputs": [],
      "payable": false,
      "stateMutability": "nonpayable",
      "type": "constructor"
    },
    {
      "constant": true,
      "inputs": [
        {
          "internalType": "address",
          "name": "",
          "type": "address"
        }
      ],
      "name": "OwnerContact",
      "outputs": [
        {
          "internalType": "string",
          "name": "phone",
          "type": "string"
        },
        {
          "internalType": "string",
          "name": "email",
          "type": "string"
        },
        {
          "internalType": "string",
          "name": "url",
          "type": "string"
        },
        {
          "internalType": "string",
          "name": "location",
          "type": "string"
        }
      ],
      "payable": false,
      "stateMutability": "view",
      "type": "function"
    },
    {
      "constant": false,
      "inputs": [
        {
          "internalType": "string",
          "name": "email",
          "type": "string"
        },
        {
          "internalType": "string",
          "name": "url",
          "type": "string"
        },
        {
          "internalType": "string",
          "name": "phone",
          "type": "string"
        },
        {
          "internalType": "string",
          "name": "location",
          "type": "string"
        }
      ],
      "name": "SetContact",
      "outputs": [],
      "payable": false,
      "stateMutability": "nonpayable",
      "type": "function"
    },
    {
      "constant": false,
      "inputs": [],
      "name": "RemoveContact",
      "outputs": [],
      "payable": false,
      "stateMutability": "nonpayable",
      "type": "function"
    },
    {
      "constant": false,
      "inputs": [
        {
          "internalType": "string",
          "name": "email",
          "type": "string"
        }
      ],
      "name": "SetEmail",
      "outputs": [],
      "payable": false,
      "stateMutability": "nonpayable",
      "type": "function"
    },
    {
      "constant": false,
      "inputs": [
        {
          "internalType": "string",
          "name": "url",
          "type": "string"
        }
      ],
      "name": "SetURL",
      "outputs": [],
      "payable": false,
      "stateMutability": "nonpayable",
      "type": "function"
    },
    {
      "constant": false,
      "inputs": [
        {
          "internalType": "string",
          "name": "phone",
          "type": "string"
        }
      ],
      "name": "SetPhone",
      "outputs": [],
      "payable": false,
      "stateMutability": "nonpayable",
      "type": "function"
    },
    {
      "constant": false,
      "inputs": [
        {
          "internalType": "string",
          "name": "location",
          "type": "string"
        }
      ],
      "name": "SetLocation",
      "outputs": [],
      "payable": false,
      "stateMutability": "nonpayable",
      "type": "function"
    }
  ],
  "bytecode": "0x608060405234801561001057600080fd5b50610c0f806100206000396000f3fe608060405234801561001057600080fd5b506004361061007d5760003560e01c806365db66981161005b57806365db669814610405578063b5c8345f1461047e578063bc145873146104f7578063e85cf601146105705761007d565b8063271692e7146100825780634c4b23c11461028357806363fde09e146103fb575b600080fd5b6100c46004803603602081101561009857600080fd5b81019080803573ffffffffffffffffffffffffffffffffffffffff1690602001909291905050506105e9565b6040518080602001806020018060200180602001858103855289818151815260200191508051906020019080838360005b838110156101105780820151818401526020810190506100f5565b50505050905090810190601f16801561013d5780820380516001836020036101000a031916815260200191505b50858103845288818151815260200191508051906020019080838360005b8381101561017657808201518184015260208101905061015b565b50505050905090810190601f1680156101a35780820380516001836020036101000a031916815260200191505b50858103835287818151815260200191508051906020019080838360005b838110156101dc5780820151818401526020810190506101c1565b50505050905090810190601f1680156102095780820380516001836020036101000a031916815260200191505b50858103825286818151815260200191508051906020019080838360005b83811015610242578082015181840152602081019050610227565b50505050905090810190601f16801561026f5780820380516001836020036101000a031916815260200191505b509850505050505050505060405180910390f35b6103f96004803603608081101561029957600080fd5b81019080803590602001906401000000008111156102b657600080fd5b8201836020820111156102c857600080fd5b803590602001918460018302840111640100000000831117156102ea57600080fd5b90919293919293908035906020019064010000000081111561030b57600080fd5b82018360208201111561031d57600080fd5b8035906020019184600183028401116401000000008311171561033f57600080fd5b90919293919293908035906020019064010000000081111561036057600080fd5b82018360208201111561037257600080fd5b8035906020019184600183028401116401000000008311171561039457600080fd5b9091929391929390803590602001906401000000008111156103b557600080fd5b8201836020820111156103c757600080fd5b803590602001918460018302840111640100000000831117156103e957600080fd5b9091929391929390505050610879565b005b610403610916565b005b61047c6004803603602081101561041b57600080fd5b810190808035906020019064010000000081111561043857600080fd5b82018360208201111561044a57600080fd5b8035906020019184600183028401116401000000008311171561046c57600080fd5b9091929391929390505050610999565b005b6104f56004803603602081101561049457600080fd5b81019080803590602001906401000000008111156104b157600080fd5b8201836020820111156104c357600080fd5b803590602001918460018302840111640100000000831117156104e557600080fd5b90919293919293905050506109ee565b005b61056e6004803603602081101561050d57600080fd5b810190808035906020019064010000000081111561052a57600080fd5b82018360208201111561053c57600080fd5b8035906020019184600183028401116401000000008311171561055e57600080fd5b9091929391929390505050610a43565b005b6105e76004803603602081101561058657600080fd5b81019080803590602001906401000000008111156105a357600080fd5b8201836020820111156105b557600080fd5b803590602001918460018302840111640100000000831117156105d757600080fd5b9091929391929390505050610a98565b005b6000602052806000526040600020600091509050806000018054600181600116156101000203166002900480601f0160208091040260200160405190810160405280929190818152602001828054600181600116156101000203166002900480156106955780601f1061066a57610100808354040283529160200191610695565b820191906000526020600020905b81548152906001019060200180831161067857829003601f168201915b505050505090806001018054600181600116156101000203166002900480601f0160208091040260200160405190810160405280929190818152602001828054600181600116156101000203166002900480156107335780601f1061070857610100808354040283529160200191610733565b820191906000526020600020905b81548152906001019060200180831161071657829003601f168201915b505050505090806002018054600181600116156101000203166002900480601f0160208091040260200160405190810160405280929190818152602001828054600181600116156101000203166002900480156107d15780601f106107a6576101008083540402835291602001916107d1565b820191906000526020600020905b8154815290600101906020018083116107b457829003601f168201915b505050505090806003018054600181600116156101000203166002900480601f01602080910402602001604051908101604052809291908181526020018280546001816001161561010002031660029004801561086f5780601f106108445761010080835404028352916020019161086f565b820191906000526020600020905b81548152906001019060200180831161085257829003601f168201915b5050505050905084565b60008060003373ffffffffffffffffffffffffffffffffffffffff1673ffffffffffffffffffffffffffffffffffffffff168152602001908152602001600020905088888260010191906108ce929190610aed565b5086868260020191906108e2929190610aed565b5084848260000191906108f6929190610aed565b50828282600301919061090a929190610aed565b50505050505050505050565b6000803373ffffffffffffffffffffffffffffffffffffffff1673ffffffffffffffffffffffffffffffffffffffff168152602001908152602001600020600080820160006109659190610b6d565b6001820160006109759190610b6d565b6002820160006109859190610b6d565b6003820160006109959190610b6d565b5050565b81816000803373ffffffffffffffffffffffffffffffffffffffff1673ffffffffffffffffffffffffffffffffffffffff16815260200190815260200160002060020191906109e9929190610aed565b505050565b81816000803373ffffffffffffffffffffffffffffffffffffffff1673ffffffffffffffffffffffffffffffffffffffff1681526020019081526020016000206001019190610a3e929190610aed565b505050565b81816000803373ffffffffffffffffffffffffffffffffffffffff1673ffffffffffffffffffffffffffffffffffffffff1681526020019081526020016000206003019190610a93929190610aed565b505050565b81816000803373ffffffffffffffffffffffffffffffffffffffff1673ffffffffffffffffffffffffffffffffffffffff1681526020019081526020016000206000019190610ae8929190610aed565b505050565b828054600181600116156101000203166002900490600052602060002090601f016020900481019282601f10610b2e57803560ff1916838001178555610b5c565b82800160010185558215610b5c579182015b82811115610b5b578235825591602001919060010190610b40565b5b509050610b699190610bb5565b5090565b50805460018160011615610100020316600290046000825580601f10610b935750610bb2565b601f016020900490600052602060002090810190610bb19190610bb5565b5b50565b610bd791905b80821115610bd3576000816000905550600101610bbb565b5090565b9056fea265627a7a7231582015c9fd98c22f85cb56e4370823572bfc77b42df356960cbfe00c91a42c94c54564736f6c63430005100032",
  "source": "pragma solidity >= 0.5.0;\n\ncontract BasContact {\n\n    struct Contact{\n        string phone;\n        string email;\n        string url;\n        string location;\n    }\n\n    mapping(address=>Contact) public OwnerContact;\n\n    constructor() public{\n\n    }\n    \n    function SetContact(string calldata email,\n                    string calldata url,\n                    string calldata phone,\n                    string calldata location)  external{\n        Contact storage item = OwnerContact[msg.sender];\n\n        item.email = email;\n        item.url = url;\n        item.phone = phone;\n        item.location = location;\n    }\n\n    function RemoveContact() external{\n        delete OwnerContact[msg.sender];\n    }\n\n    function SetEmail(string calldata email) external{\n        OwnerContact[msg.sender].email= email;\n    }\n\n    function SetURL(string calldata url) external{\n        OwnerContact[msg.sender].url= url;\n    }\n\n    function SetPhone(string calldata phone) external{\n        OwnerContact[msg.sender].phone= phone;\n    }\n\n    function SetLocation(string calldata location) external{\n        OwnerContact[msg.sender].location= location;\n    }\n}",
  "sourcePath": "/Users/mini2/workspace/truffle suite/baschain/contracts/BasContact.sol",
  "compiler": {
    "name": "solc",
    "version": "0.5.16+commit.9c3226ce.Emscripten.clang"
  },
  "schemaVersion": "3.0.23",
  "updatedAt": "2020-04-08T10:02:17.759Z",
  "devdoc": {
    "methods": {}
  },
  "userdoc": {
    "methods": {}
  }
}