{
  "contractName": "BasDNS",
  "abi": [
    {
      "inputs": [
        {
          "internalType": "address",
          "name": "_o",
          "type": "address"
        }
      ],
      "payable": false,
      "stateMutability": "nonpayable",
      "type": "constructor"
    },
    {
      "anonymous": false,
      "inputs": [
        {
          "indexed": false,
          "internalType": "bytes32",
          "name": "nameHash",
          "type": "bytes32"
        }
      ],
      "name": "DNSChanged",
      "type": "event"
    },
    {
      "constant": true,
      "inputs": [
        {
          "internalType": "bytes32",
          "name": "",
          "type": "bytes32"
        }
      ],
      "name": "DNS",
      "outputs": [
        {
          "internalType": "bytes4",
          "name": "ipv4",
          "type": "bytes4"
        },
        {
          "internalType": "bytes16",
          "name": "ipv6",
          "type": "bytes16"
        },
        {
          "internalType": "bytes",
          "name": "bca",
          "type": "bytes"
        },
        {
          "internalType": "bytes",
          "name": "opData",
          "type": "bytes"
        },
        {
          "internalType": "string",
          "name": "aliasName",
          "type": "string"
        }
      ],
      "payable": false,
      "stateMutability": "view",
      "type": "function"
    },
    {
      "constant": true,
      "inputs": [],
      "name": "o",
      "outputs": [
        {
          "internalType": "contract BasOwnership",
          "name": "",
          "type": "address"
        }
      ],
      "payable": false,
      "stateMutability": "view",
      "type": "function"
    },
    {
      "constant": false,
      "inputs": [
        {
          "internalType": "bytes32",
          "name": "nameHash",
          "type": "bytes32"
        },
        {
          "internalType": "bytes4",
          "name": "ipv4",
          "type": "bytes4"
        },
        {
          "internalType": "bytes16",
          "name": "ipv6",
          "type": "bytes16"
        },
        {
          "internalType": "bytes",
          "name": "bca",
          "type": "bytes"
        },
        {
          "internalType": "bytes",
          "name": "opData",
          "type": "bytes"
        },
        {
          "internalType": "string",
          "name": "aliasName",
          "type": "string"
        }
      ],
      "name": "_a_update",
      "outputs": [],
      "payable": false,
      "stateMutability": "nonpayable",
      "type": "function"
    },
    {
      "constant": false,
      "inputs": [
        {
          "internalType": "bytes32",
          "name": "nameHash",
          "type": "bytes32"
        },
        {
          "internalType": "bytes4",
          "name": "ipv4",
          "type": "bytes4"
        },
        {
          "internalType": "bytes16",
          "name": "ipv6",
          "type": "bytes16"
        },
        {
          "internalType": "bytes",
          "name": "bca",
          "type": "bytes"
        },
        {
          "internalType": "bytes",
          "name": "opData",
          "type": "bytes"
        },
        {
          "internalType": "string",
          "name": "aliasName",
          "type": "string"
        }
      ],
      "name": "_c_update",
      "outputs": [],
      "payable": false,
      "stateMutability": "nonpayable",
      "type": "function"
    },
    {
      "constant": true,
      "inputs": [
        {
          "internalType": "bytes32",
          "name": "nameHash",
          "type": "bytes32"
        }
      ],
      "name": "query",
      "outputs": [
        {
          "internalType": "bytes4",
          "name": "ipv4",
          "type": "bytes4"
        },
        {
          "internalType": "bytes16",
          "name": "ipv6",
          "type": "bytes16"
        },
        {
          "internalType": "bytes",
          "name": "bca",
          "type": "bytes"
        },
        {
          "internalType": "bytes",
          "name": "opData",
          "type": "bytes"
        },
        {
          "internalType": "string",
          "name": "aliasName",
          "type": "string"
        }
      ],
      "payable": false,
      "stateMutability": "view",
      "type": "function"
    },
    {
      "constant": false,
      "inputs": [
        {
          "internalType": "bytes32",
          "name": "nameHash",
          "type": "bytes32"
        },
        {
          "internalType": "bytes4",
          "name": "ipv4",
          "type": "bytes4"
        },
        {
          "internalType": "bytes16",
          "name": "ipv6",
          "type": "bytes16"
        }
      ],
      "name": "_c_setIP",
      "outputs": [],
      "payable": false,
      "stateMutability": "nonpayable",
      "type": "function"
    },
    {
      "constant": false,
      "inputs": [
        {
          "internalType": "bytes32",
          "name": "nameHash",
          "type": "bytes32"
        },
        {
          "internalType": "bytes",
          "name": "bcAddress",
          "type": "bytes"
        }
      ],
      "name": "_c_setBCAddress",
      "outputs": [],
      "payable": false,
      "stateMutability": "nonpayable",
      "type": "function"
    },
    {
      "constant": false,
      "inputs": [
        {
          "internalType": "bytes32",
          "name": "nameHash",
          "type": "bytes32"
        },
        {
          "internalType": "bytes",
          "name": "opData",
          "type": "bytes"
        }
      ],
      "name": "_c_setOpData",
      "outputs": [],
      "payable": false,
      "stateMutability": "nonpayable",
      "type": "function"
    },
    {
      "constant": false,
      "inputs": [
        {
          "internalType": "bytes32",
          "name": "nameHash",
          "type": "bytes32"
        },
        {
          "internalType": "string",
          "name": "aName",
          "type": "string"
        }
      ],
      "name": "_c_setAlias",
      "outputs": [],
      "payable": false,
      "stateMutability": "nonpayable",
      "type": "function"
    },
    {
      "constant": false,
      "inputs": [
        {
          "internalType": "bytes32",
          "name": "nameHash",
          "type": "bytes32"
        }
      ],
      "name": "_c_clearRecord",
      "outputs": [],
      "payable": false,
      "stateMutability": "nonpayable",
      "type": "function"
    }
  ],
  "bytecode": "0x608060405234801561001057600080fd5b5060405161228b38038061228b8339818101604052602081101561003357600080fd5b810190808051906020019092919050505080806000806101000a81548173ffffffffffffffffffffffffffffffffffffffff021916908373ffffffffffffffffffffffffffffffffffffffff16021790555050506121f5806100966000396000f3fe608060405234801561001057600080fd5b506004361061009e5760003560e01c806359547fec1161006657806359547fec146104d957806389507a231461055c578063a3b61a9c1461058a578063d187e4f61461077b578063d241cf8e146107ef5761009e565b80630883fb43146100a35780631a004ea214610126578063309ba2c31461029957806347beb2fd1461031c57806350cd4df21461048f575b600080fd5b610124600480360360408110156100b957600080fd5b8101908080359060200190929190803590602001906401000000008111156100e057600080fd5b8201836020820111156100f257600080fd5b8035906020019184600183028401116401000000008311171561011457600080fd5b90919293919293905050506109e0565b005b610297600480360360c081101561013c57600080fd5b810190808035906020019092919080357bffffffffffffffffffffffffffffffffffffffffffffffffffffffff1916906020019092919080356fffffffffffffffffffffffffffffffff19169060200190929190803590602001906401000000008111156101a957600080fd5b8201836020820111156101bb57600080fd5b803590602001918460018302840111640100000000831117156101dd57600080fd5b9091929391929390803590602001906401000000008111156101fe57600080fd5b82018360208201111561021057600080fd5b8035906020019184600183028401116401000000008311171561023257600080fd5b90919293919293908035906020019064010000000081111561025357600080fd5b82018360208201111561026557600080fd5b8035906020019184600183028401116401000000008311171561028757600080fd5b9091929391929390505050610b86565b005b61031a600480360360408110156102af57600080fd5b8101908080359060200190929190803590602001906401000000008111156102d657600080fd5b8201836020820111156102e857600080fd5b8035906020019184600183028401116401000000008311171561030a57600080fd5b9091929391929390505050610ef2565b005b61048d600480360360c081101561033257600080fd5b810190808035906020019092919080357bffffffffffffffffffffffffffffffffffffffffffffffffffffffff1916906020019092919080356fffffffffffffffffffffffffffffffff191690602001909291908035906020019064010000000081111561039f57600080fd5b8201836020820111156103b157600080fd5b803590602001918460018302840111640100000000831117156103d357600080fd5b9091929391929390803590602001906401000000008111156103f457600080fd5b82018360208201111561040657600080fd5b8035906020019184600183028401116401000000008311171561042857600080fd5b90919293919293908035906020019064010000000081111561044957600080fd5b82018360208201111561045b57600080fd5b8035906020019184600183028401116401000000008311171561047d57600080fd5b9091929391929390505050611098565b005b610497611404565b604051808273ffffffffffffffffffffffffffffffffffffffff1673ffffffffffffffffffffffffffffffffffffffff16815260200191505060405180910390f35b61055a600480360360408110156104ef57600080fd5b81019080803590602001909291908035906020019064010000000081111561051657600080fd5b82018360208201111561052857600080fd5b8035906020019184600183028401116401000000008311171561054a57600080fd5b9091929391929390505050611429565b005b6105886004803603602081101561057257600080fd5b81019080803590602001909291905050506115cf565b005b6105b6600480360360208110156105a057600080fd5b81019080803590602001909291905050506117cd565b60405180867bffffffffffffffffffffffffffffffffffffffffffffffffffffffff19167bffffffffffffffffffffffffffffffffffffffffffffffffffffffff19168152602001856fffffffffffffffffffffffffffffffff19166fffffffffffffffffffffffffffffffff19168152602001806020018060200180602001848103845287818151815260200191508051906020019080838360005b8381101561066e578082015181840152602081019050610653565b50505050905090810190601f16801561069b5780820380516001836020036101000a031916815260200191505b50848103835286818151815260200191508051906020019080838360005b838110156106d45780820151818401526020810190506106b9565b50505050905090810190601f1680156107015780820380516001836020036101000a031916815260200191505b50848103825285818151815260200191508051906020019080838360005b8381101561073a57808201518184015260208101905061071f565b50505050905090810190601f1680156107675780820380516001836020036101000a031916815260200191505b509850505050505050505060405180910390f35b6107ed6004803603606081101561079157600080fd5b810190808035906020019092919080357bffffffffffffffffffffffffffffffffffffffffffffffffffffffff1916906020019092919080356fffffffffffffffffffffffffffffffff19169060200190929190505050611aa2565b005b61081b6004803603602081101561080557600080fd5b8101908080359060200190929190505050611c92565b60405180867bffffffffffffffffffffffffffffffffffffffffffffffffffffffff19167bffffffffffffffffffffffffffffffffffffffffffffffffffffffff19168152602001856fffffffffffffffffffffffffffffffff19166fffffffffffffffffffffffffffffffff19168152602001806020018060200180602001848103845287818151815260200191508051906020019080838360005b838110156108d35780820151818401526020810190506108b8565b50505050905090810190601f1680156109005780820380516001836020036101000a031916815260200191505b50848103835286818151815260200191508051906020019080838360005b8381101561093957808201518184015260208101905061091e565b50505050905090810190601f1680156109665780820380516001836020036101000a031916815260200191505b50848103825285818151815260200191508051906020019080838360005b8381101561099f578082015181840152602081019050610984565b50505050905090810190601f1680156109cc5780820380516001836020036101000a031916815260200191505b509850505050505050505060405180910390f35b6000809054906101000a900473ffffffffffffffffffffffffffffffffffffffff1673ffffffffffffffffffffffffffffffffffffffff166354cf428a6040518163ffffffff1660e01b815260040160206040518083038186803b158015610a4757600080fd5b505afa158015610a5b573d6000803e3d6000fd5b505050506040513d6020811015610a7157600080fd5b810190808051906020019092919050505073ffffffffffffffffffffffffffffffffffffffff163373ffffffffffffffffffffffffffffffffffffffff1614610b22576040517f08c379a00000000000000000000000000000000000000000000000000000000081526004018080602001828103825260148152602001807f636f6e74726163742063616c6c6572206f6e6c7900000000000000000000000081525060200191505060405180910390fd5b828282600160008781526020019081526020016000206002019190610b48929190611eaa565b507f03168db5f4e31983b2b5ac149fba9bf46e9ff27416789c624ccf91f4be4057a7816040518082815260200191505060405180910390a150505050565b6000809054906101000a900473ffffffffffffffffffffffffffffffffffffffff1673ffffffffffffffffffffffffffffffffffffffff166354cf428a6040518163ffffffff1660e01b815260040160206040518083038186803b158015610bed57600080fd5b505afa158015610c01573d6000803e3d6000fd5b505050506040513d6020811015610c1757600080fd5b810190808051906020019092919050505073ffffffffffffffffffffffffffffffffffffffff163373ffffffffffffffffffffffffffffffffffffffff1614610cc8576040517f08c379a00000000000000000000000000000000000000000000000000000000081526004018080602001828103825260148152602001807f636f6e74726163742063616c6c6572206f6e6c7900000000000000000000000081525060200191505060405180910390fd5b886040518060a001604052808a7bffffffffffffffffffffffffffffffffffffffffffffffffffffffff19168152602001896fffffffffffffffffffffffffffffffff1916815260200188888080601f016020809104026020016040519081016040528093929190818152602001838380828437600081840152601f19601f82011690508083019250505050505050815260200186868080601f016020809104026020016040519081016040528093929190818152602001838380828437600081840152601f19601f82011690508083019250505050505050815260200184848080601f016020809104026020016040519081016040528093929190818152602001838380828437600081840152601f19601f82011690508083019250505050505050815250600160008c815260200190815260200160002060008201518160000160006101000a81548163ffffffff021916908360e01c021790555060208201518160000160046101000a8154816fffffffffffffffffffffffffffffffff021916908360801c02179055506040820151816001019080519060200190610e71929190611f2a565b506060820151816002019080519060200190610e8e929190611f2a565b506080820151816003019080519060200190610eab929190611faa565b509050507f03168db5f4e31983b2b5ac149fba9bf46e9ff27416789c624ccf91f4be4057a7816040518082815260200191505060405180910390a150505050505050505050565b6000809054906101000a900473ffffffffffffffffffffffffffffffffffffffff1673ffffffffffffffffffffffffffffffffffffffff166354cf428a6040518163ffffffff1660e01b815260040160206040518083038186803b158015610f5957600080fd5b505afa158015610f6d573d6000803e3d6000fd5b505050506040513d6020811015610f8357600080fd5b810190808051906020019092919050505073ffffffffffffffffffffffffffffffffffffffff163373ffffffffffffffffffffffffffffffffffffffff1614611034576040517f08c379a00000000000000000000000000000000000000000000000000000000081526004018080602001828103825260148152602001807f636f6e74726163742063616c6c6572206f6e6c7900000000000000000000000081525060200191505060405180910390fd5b82828260016000878152602001908152602001600020600301919061105a92919061202a565b507f03168db5f4e31983b2b5ac149fba9bf46e9ff27416789c624ccf91f4be4057a7816040518082815260200191505060405180910390a150505050565b6000809054906101000a900473ffffffffffffffffffffffffffffffffffffffff1673ffffffffffffffffffffffffffffffffffffffff1663f851a4406040518163ffffffff1660e01b815260040160206040518083038186803b1580156110ff57600080fd5b505afa158015611113573d6000803e3d6000fd5b505050506040513d602081101561112957600080fd5b810190808051906020019092919050505073ffffffffffffffffffffffffffffffffffffffff163373ffffffffffffffffffffffffffffffffffffffff16146111da576040517f08c379a000000000000000000000000000000000000000000000000000000000815260040180806020018281038252600a8152602001807f61646d696e206f6e6c790000000000000000000000000000000000000000000081525060200191505060405180910390fd5b886040518060a001604052808a7bffffffffffffffffffffffffffffffffffffffffffffffffffffffff19168152602001896fffffffffffffffffffffffffffffffff1916815260200188888080601f016020809104026020016040519081016040528093929190818152602001838380828437600081840152601f19601f82011690508083019250505050505050815260200186868080601f016020809104026020016040519081016040528093929190818152602001838380828437600081840152601f19601f82011690508083019250505050505050815260200184848080601f016020809104026020016040519081016040528093929190818152602001838380828437600081840152601f19601f82011690508083019250505050505050815250600160008c815260200190815260200160002060008201518160000160006101000a81548163ffffffff021916908360e01c021790555060208201518160000160046101000a8154816fffffffffffffffffffffffffffffffff021916908360801c02179055506040820151816001019080519060200190611383929190611f2a565b5060608201518160020190805190602001906113a0929190611f2a565b5060808201518160030190805190602001906113bd929190611faa565b509050507f03168db5f4e31983b2b5ac149fba9bf46e9ff27416789c624ccf91f4be4057a7816040518082815260200191505060405180910390a150505050505050505050565b6000809054906101000a900473ffffffffffffffffffffffffffffffffffffffff1681565b6000809054906101000a900473ffffffffffffffffffffffffffffffffffffffff1673ffffffffffffffffffffffffffffffffffffffff166354cf428a6040518163ffffffff1660e01b815260040160206040518083038186803b15801561149057600080fd5b505afa1580156114a4573d6000803e3d6000fd5b505050506040513d60208110156114ba57600080fd5b810190808051906020019092919050505073ffffffffffffffffffffffffffffffffffffffff163373ffffffffffffffffffffffffffffffffffffffff161461156b576040517f08c379a00000000000000000000000000000000000000000000000000000000081526004018080602001828103825260148152602001807f636f6e74726163742063616c6c6572206f6e6c7900000000000000000000000081525060200191505060405180910390fd5b828282600160008781526020019081526020016000206001019190611591929190611eaa565b507f03168db5f4e31983b2b5ac149fba9bf46e9ff27416789c624ccf91f4be4057a7816040518082815260200191505060405180910390a150505050565b6000809054906101000a900473ffffffffffffffffffffffffffffffffffffffff1673ffffffffffffffffffffffffffffffffffffffff166354cf428a6040518163ffffffff1660e01b815260040160206040518083038186803b15801561163657600080fd5b505afa15801561164a573d6000803e3d6000fd5b505050506040513d602081101561166057600080fd5b810190808051906020019092919050505073ffffffffffffffffffffffffffffffffffffffff163373ffffffffffffffffffffffffffffffffffffffff1614611711576040517f08c379a00000000000000000000000000000000000000000000000000000000081526004018080602001828103825260148152602001807f636f6e74726163742063616c6c6572206f6e6c7900000000000000000000000081525060200191505060405180910390fd5b8060016000838152602001908152602001600020600080820160006101000a81549063ffffffff02191690556000820160046101000a8154906fffffffffffffffffffffffffffffffff021916905560018201600061177091906120aa565b60028201600061178091906120aa565b60038201600061179091906120f2565b50507f03168db5f4e31983b2b5ac149fba9bf46e9ff27416789c624ccf91f4be4057a7816040518082815260200191505060405180910390a15050565b60008060608060606117dd61213a565b600160008881526020019081526020016000206040518060a00160405290816000820160009054906101000a900460e01b7bffffffffffffffffffffffffffffffffffffffffffffffffffffffff19167bffffffffffffffffffffffffffffffffffffffffffffffffffffffff191681526020016000820160049054906101000a900460801b6fffffffffffffffffffffffffffffffff19166fffffffffffffffffffffffffffffffff19168152602001600182018054600181600116156101000203166002900480601f0160208091040260200160405190810160405280929190818152602001828054600181600116156101000203166002900480156119265780601f106118fb57610100808354040283529160200191611926565b820191906000526020600020905b81548152906001019060200180831161190957829003601f168201915b50505050508152602001600282018054600181600116156101000203166002900480601f0160208091040260200160405190810160405280929190818152602001828054600181600116156101000203166002900480156119c85780601f1061199d576101008083540402835291602001916119c8565b820191906000526020600020905b8154815290600101906020018083116119ab57829003601f168201915b50505050508152602001600382018054600181600116156101000203166002900480601f016020809104026020016040519081016040528092919081815260200182805460018160011615610100020316600290048015611a6a5780601f10611a3f57610100808354040283529160200191611a6a565b820191906000526020600020905b815481529060010190602001808311611a4d57829003601f168201915b505050505081525050905080600001519550806020015194508060400151935080606001519250806080015191505091939590929450565b6000809054906101000a900473ffffffffffffffffffffffffffffffffffffffff1673ffffffffffffffffffffffffffffffffffffffff166354cf428a6040518163ffffffff1660e01b815260040160206040518083038186803b158015611b0957600080fd5b505afa158015611b1d573d6000803e3d6000fd5b505050506040513d6020811015611b3357600080fd5b810190808051906020019092919050505073ffffffffffffffffffffffffffffffffffffffff163373ffffffffffffffffffffffffffffffffffffffff1614611be4576040517f08c379a00000000000000000000000000000000000000000000000000000000081526004018080602001828103825260148152602001807f636f6e74726163742063616c6c6572206f6e6c7900000000000000000000000081525060200191505060405180910390fd5b82826001600086815260200190815260200160002060000160006101000a81548163ffffffff021916908360e01c0217905550816001600086815260200190815260200160002060000160046101000a8154816fffffffffffffffffffffffffffffffff021916908360801c02179055507f03168db5f4e31983b2b5ac149fba9bf46e9ff27416789c624ccf91f4be4057a7816040518082815260200191505060405180910390a150505050565b60016020528060005260406000206000915090508060000160009054906101000a900460e01b908060000160049054906101000a900460801b90806001018054600181600116156101000203166002900480601f016020809104026020016040519081016040528092919081815260200182805460018160011615610100020316600290048015611d645780601f10611d3957610100808354040283529160200191611d64565b820191906000526020600020905b815481529060010190602001808311611d4757829003601f168201915b505050505090806002018054600181600116156101000203166002900480601f016020809104026020016040519081016040528092919081815260200182805460018160011615610100020316600290048015611e025780601f10611dd757610100808354040283529160200191611e02565b820191906000526020600020905b815481529060010190602001808311611de557829003601f168201915b505050505090806003018054600181600116156101000203166002900480601f016020809104026020016040519081016040528092919081815260200182805460018160011615610100020316600290048015611ea05780601f10611e7557610100808354040283529160200191611ea0565b820191906000526020600020905b815481529060010190602001808311611e8357829003601f168201915b5050505050905085565b828054600181600116156101000203166002900490600052602060002090601f016020900481019282601f10611eeb57803560ff1916838001178555611f19565b82800160010185558215611f19579182015b82811115611f18578235825591602001919060010190611efd565b5b509050611f26919061219b565b5090565b828054600181600116156101000203166002900490600052602060002090601f016020900481019282601f10611f6b57805160ff1916838001178555611f99565b82800160010185558215611f99579182015b82811115611f98578251825591602001919060010190611f7d565b5b509050611fa6919061219b565b5090565b828054600181600116156101000203166002900490600052602060002090601f016020900481019282601f10611feb57805160ff1916838001178555612019565b82800160010185558215612019579182015b82811115612018578251825591602001919060010190611ffd565b5b509050612026919061219b565b5090565b828054600181600116156101000203166002900490600052602060002090601f016020900481019282601f1061206b57803560ff1916838001178555612099565b82800160010185558215612099579182015b8281111561209857823582559160200191906001019061207d565b5b5090506120a6919061219b565b5090565b50805460018160011615610100020316600290046000825580601f106120d057506120ef565b601f0160209004906000526020600020908101906120ee919061219b565b5b50565b50805460018160011615610100020316600290046000825580601f106121185750612137565b601f016020900490600052602060002090810190612136919061219b565b5b50565b6040518060a0016040528060007bffffffffffffffffffffffffffffffffffffffffffffffffffffffff1916815260200160006fffffffffffffffffffffffffffffffff191681526020016060815260200160608152602001606081525090565b6121bd91905b808211156121b95760008160009055506001016121a1565b5090565b9056fea265627a7a72315820271564aa66dab62e1aa571ba7d499e09d8297f7b4ec00b99cad3174d8e20e09764736f6c63430005100032",
  "source": "pragma solidity >=0.5.0;\n\nimport \"./BasOwned.sol\";\n\ncontract BasDNS is BasOwned {\n    constructor(address _o) public BasOwned(_o) {}\n\n    event DNSChanged(bytes32 nameHash);\n\n    struct DNSRecord {\n        bytes4 ipv4;\n        bytes16 ipv6;\n        bytes bca;\n        bytes opData;\n        string aliasName;\n    }\n\n    mapping(bytes32 => DNSRecord) public DNS;\n\n    modifier DNSChange(bytes32 nameHash) {\n        _;\n        emit DNSChanged(nameHash);\n    }\n\n    function _a_update(\n        bytes32 nameHash,\n        bytes4 ipv4,\n        bytes16 ipv6,\n        bytes calldata bca,\n        bytes calldata opData,\n        string calldata aliasName\n    ) external Admin DNSChange(nameHash) {\n        DNS[nameHash] = DNSRecord(ipv4, ipv6, bca, opData, aliasName);\n    }\n\n    function _c_update(\n        bytes32 nameHash,\n        bytes4 ipv4,\n        bytes16 ipv6,\n        bytes calldata bca,\n        bytes calldata opData,\n        string calldata aliasName\n    ) external ContractCaller DNSChange(nameHash) {\n        DNS[nameHash] = DNSRecord(ipv4, ipv6, bca, opData, aliasName);\n    }\n\n    function query(bytes32 nameHash)\n        external\n        view\n        returns (\n            bytes4 ipv4,\n            bytes16 ipv6,\n            bytes memory bca,\n            bytes memory opData,\n            string memory aliasName\n        )\n    {\n        DNSRecord memory record = DNS[nameHash];\n        ipv4 = record.ipv4;\n        ipv6 = record.ipv6;\n        bca = record.bca;\n        opData = record.opData;\n        aliasName = record.aliasName;\n    }\n\n    function _c_setIP(bytes32 nameHash, bytes4 ipv4, bytes16 ipv6)\n        external\n        ContractCaller\n        DNSChange(nameHash)\n    {\n        DNS[nameHash].ipv4 = ipv4;\n        DNS[nameHash].ipv6 = ipv6;\n    }\n\n    function _c_setBCAddress(bytes32 nameHash, bytes calldata bcAddress)\n        external\n        ContractCaller\n        DNSChange(nameHash)\n    {\n        DNS[nameHash].bca = bcAddress;\n    }\n\n    function _c_setOpData(bytes32 nameHash, bytes calldata opData)\n        external\n        ContractCaller\n        DNSChange(nameHash)\n    {\n        DNS[nameHash].opData = opData;\n    }\n\n    function _c_setAlias(bytes32 nameHash, string calldata aName)\n        external\n        ContractCaller\n        DNSChange(nameHash)\n    {\n        DNS[nameHash].aliasName = aName;\n    }\n\n    function _c_clearRecord(bytes32 nameHash)\n        external\n        ContractCaller\n        DNSChange(nameHash)\n    {\n        delete DNS[nameHash];\n    }\n}\n",
  "sourcePath": "/Users/mini2/workspace/truffle suite/baschain/contracts/BasDNS.sol",
  "compiler": {
    "name": "solc",
    "version": "0.5.16+commit.9c3226ce.Emscripten.clang"
  },
  "schemaVersion": "3.0.23",
  "updatedAt": "2020-04-09T02:30:51.378Z",
  "networkType": "ethereum",
  "devdoc": {
    "methods": {}
  },
  "userdoc": {
    "methods": {}
  }
}