{
  "contractName": "BasMarket",
  "abi": [
    {
      "inputs": [
        {
          "internalType": "address",
          "name": "_t",
          "type": "address"
        },
        {
          "internalType": "address",
          "name": "_o",
          "type": "address"
        }
      ],
      "payable": false,
      "stateMutability": "nonpayable",
      "type": "constructor"
    },
    {
      "anonymous": false,
      "inputs": [
        {
          "indexed": false,
          "internalType": "bytes32",
          "name": "nameHash",
          "type": "bytes32"
        },
        {
          "indexed": false,
          "internalType": "address",
          "name": "operator",
          "type": "address"
        },
        {
          "indexed": false,
          "internalType": "uint256",
          "name": "price",
          "type": "uint256"
        },
        {
          "indexed": false,
          "internalType": "uint256",
          "name": "time",
          "type": "uint256"
        }
      ],
      "name": "AskAdded",
      "type": "event"
    },
    {
      "anonymous": false,
      "inputs": [
        {
          "indexed": false,
          "internalType": "bytes32",
          "name": "nameHash",
          "type": "bytes32"
        },
        {
          "indexed": false,
          "internalType": "address",
          "name": "operator",
          "type": "address"
        },
        {
          "indexed": false,
          "internalType": "uint256",
          "name": "price",
          "type": "uint256"
        },
        {
          "indexed": false,
          "internalType": "uint256",
          "name": "time",
          "type": "uint256"
        }
      ],
      "name": "AskChanged",
      "type": "event"
    },
    {
      "anonymous": false,
      "inputs": [
        {
          "indexed": false,
          "internalType": "bytes32",
          "name": "nameHash",
          "type": "bytes32"
        },
        {
          "indexed": false,
          "internalType": "address",
          "name": "operator",
          "type": "address"
        }
      ],
      "name": "AskRemoved",
      "type": "event"
    },
    {
      "anonymous": false,
      "inputs": [
        {
          "indexed": false,
          "internalType": "bytes32",
          "name": "nameHash",
          "type": "bytes32"
        },
        {
          "indexed": false,
          "internalType": "address",
          "name": "operator",
          "type": "address"
        },
        {
          "indexed": false,
          "internalType": "uint256",
          "name": "price",
          "type": "uint256"
        }
      ],
      "name": "SellAdded",
      "type": "event"
    },
    {
      "anonymous": false,
      "inputs": [
        {
          "indexed": false,
          "internalType": "bytes32",
          "name": "nameHash",
          "type": "bytes32"
        },
        {
          "indexed": false,
          "internalType": "address",
          "name": "operator",
          "type": "address"
        },
        {
          "indexed": false,
          "internalType": "uint256",
          "name": "price",
          "type": "uint256"
        }
      ],
      "name": "SellChanged",
      "type": "event"
    },
    {
      "anonymous": false,
      "inputs": [
        {
          "indexed": false,
          "internalType": "bytes32",
          "name": "nameHash",
          "type": "bytes32"
        },
        {
          "indexed": false,
          "internalType": "address",
          "name": "operator",
          "type": "address"
        }
      ],
      "name": "SellRemoved",
      "type": "event"
    },
    {
      "anonymous": false,
      "inputs": [
        {
          "indexed": false,
          "internalType": "bytes32",
          "name": "nameHash",
          "type": "bytes32"
        },
        {
          "indexed": false,
          "internalType": "address",
          "name": "from",
          "type": "address"
        },
        {
          "indexed": false,
          "internalType": "address",
          "name": "to",
          "type": "address"
        },
        {
          "indexed": false,
          "internalType": "uint256",
          "name": "price",
          "type": "uint256"
        }
      ],
      "name": "SoldByAsk",
      "type": "event"
    },
    {
      "anonymous": false,
      "inputs": [
        {
          "indexed": false,
          "internalType": "bytes32",
          "name": "nameHash",
          "type": "bytes32"
        },
        {
          "indexed": false,
          "internalType": "address",
          "name": "from",
          "type": "address"
        },
        {
          "indexed": false,
          "internalType": "address",
          "name": "to",
          "type": "address"
        },
        {
          "indexed": false,
          "internalType": "uint256",
          "name": "price",
          "type": "uint256"
        }
      ],
      "name": "SoldBySell",
      "type": "event"
    },
    {
      "constant": true,
      "inputs": [],
      "name": "AT_LEAST_REMAIN_TIME",
      "outputs": [
        {
          "internalType": "uint256",
          "name": "",
          "type": "uint256"
        }
      ],
      "payable": false,
      "stateMutability": "view",
      "type": "function"
    },
    {
      "constant": true,
      "inputs": [
        {
          "internalType": "address",
          "name": "",
          "type": "address"
        },
        {
          "internalType": "bytes32",
          "name": "",
          "type": "bytes32"
        }
      ],
      "name": "AskOrders",
      "outputs": [
        {
          "internalType": "uint256",
          "name": "price",
          "type": "uint256"
        },
        {
          "internalType": "uint256",
          "name": "protectiveRemainTime",
          "type": "uint256"
        }
      ],
      "payable": false,
      "stateMutability": "view",
      "type": "function"
    },
    {
      "constant": true,
      "inputs": [
        {
          "internalType": "address",
          "name": "",
          "type": "address"
        },
        {
          "internalType": "bytes32",
          "name": "",
          "type": "bytes32"
        }
      ],
      "name": "SellOrders",
      "outputs": [
        {
          "internalType": "uint256",
          "name": "",
          "type": "uint256"
        }
      ],
      "payable": false,
      "stateMutability": "view",
      "type": "function"
    },
    {
      "constant": true,
      "inputs": [],
      "name": "o",
      "outputs": [
        {
          "internalType": "contract BasOwnership",
          "name": "",
          "type": "address"
        }
      ],
      "payable": false,
      "stateMutability": "view",
      "type": "function"
    },
    {
      "constant": true,
      "inputs": [],
      "name": "t",
      "outputs": [
        {
          "internalType": "contract ERC20",
          "name": "",
          "type": "address"
        }
      ],
      "payable": false,
      "stateMutability": "view",
      "type": "function"
    },
    {
      "constant": false,
      "inputs": [
        {
          "internalType": "bytes32",
          "name": "nameHash",
          "type": "bytes32"
        },
        {
          "internalType": "uint256",
          "name": "price",
          "type": "uint256"
        }
      ],
      "name": "AddToSells",
      "outputs": [],
      "payable": false,
      "stateMutability": "nonpayable",
      "type": "function"
    },
    {
      "constant": false,
      "inputs": [
        {
          "internalType": "bytes32",
          "name": "nameHash",
          "type": "bytes32"
        },
        {
          "internalType": "uint256",
          "name": "price",
          "type": "uint256"
        }
      ],
      "name": "ChangeSellPrice",
      "outputs": [],
      "payable": false,
      "stateMutability": "nonpayable",
      "type": "function"
    },
    {
      "constant": false,
      "inputs": [
        {
          "internalType": "bytes32",
          "name": "nameHash",
          "type": "bytes32"
        }
      ],
      "name": "RemoveSellOrder",
      "outputs": [],
      "payable": false,
      "stateMutability": "nonpayable",
      "type": "function"
    },
    {
      "constant": false,
      "inputs": [
        {
          "internalType": "bytes32",
          "name": "nameHash",
          "type": "bytes32"
        },
        {
          "internalType": "uint256",
          "name": "price",
          "type": "uint256"
        },
        {
          "internalType": "uint256",
          "name": "protectiveRemainTime",
          "type": "uint256"
        }
      ],
      "name": "AddToAsks",
      "outputs": [],
      "payable": false,
      "stateMutability": "nonpayable",
      "type": "function"
    },
    {
      "constant": false,
      "inputs": [
        {
          "internalType": "bytes32",
          "name": "nameHash",
          "type": "bytes32"
        },
        {
          "internalType": "uint256",
          "name": "price",
          "type": "uint256"
        },
        {
          "internalType": "uint256",
          "name": "protectiveRemainTime",
          "type": "uint256"
        }
      ],
      "name": "ChangeAsksData",
      "outputs": [],
      "payable": false,
      "stateMutability": "nonpayable",
      "type": "function"
    },
    {
      "constant": false,
      "inputs": [
        {
          "internalType": "bytes32",
          "name": "nameHash",
          "type": "bytes32"
        }
      ],
      "name": "RemoveAskOrder",
      "outputs": [],
      "payable": false,
      "stateMutability": "nonpayable",
      "type": "function"
    },
    {
      "constant": false,
      "inputs": [
        {
          "internalType": "bytes32",
          "name": "nameHash",
          "type": "bytes32"
        },
        {
          "internalType": "address",
          "name": "owner",
          "type": "address"
        }
      ],
      "name": "BuyFromSells",
      "outputs": [],
      "payable": false,
      "stateMutability": "nonpayable",
      "type": "function"
    },
    {
      "constant": false,
      "inputs": [
        {
          "internalType": "bytes32",
          "name": "nameHash",
          "type": "bytes32"
        },
        {
          "internalType": "address",
          "name": "to",
          "type": "address"
        }
      ],
      "name": "SellToAsks",
      "outputs": [],
      "payable": false,
      "stateMutability": "nonpayable",
      "type": "function"
    }
  ],
  "bytecode": "0x608060405234801561001057600080fd5b506040516126ba3803806126ba8339818101604052604081101561003357600080fd5b81019080805190602001909291908051906020019092919050505080806000806101000a81548173ffffffffffffffffffffffffffffffffffffffff021916908373ffffffffffffffffffffffffffffffffffffffff1602179055505081600160006101000a81548173ffffffffffffffffffffffffffffffffffffffff021916908373ffffffffffffffffffffffffffffffffffffffff16021790555050506125d8806100e26000396000f3fe608060405234801561001057600080fd5b50600436106100cf5760003560e01c806343d4a0001161008c57806392d0d1531161006657806392d0d15314610349578063a86bec4c14610393578063e53427ca146103c1578063ebfaafda146103ef576100cf565b806343d4a0001461025e57806350cd4df2146102c757806375a69f1914610311576100cf565b806301f922a4146100d45780630db8ae09146101165780631d4edd20146101785780631d6a1ed0146101b057806332e99397146101ce5780633a2ef92314610210575b600080fd5b610114600480360360608110156100ea57600080fd5b8101908080359060200190929190803590602001909291908035906020019092919050505061043d565b005b6101626004803603604081101561012c57600080fd5b81019080803573ffffffffffffffffffffffffffffffffffffffff16906020019092919080359060200190929190505050610691565b6040518082815260200191505060405180910390f35b6101ae6004803603604081101561018e57600080fd5b8101908080359060200190929190803590602001909291905050506106b6565b005b6101b8610b4c565b6040518082815260200191505060405180910390f35b61020e600480360360608110156101e457600080fd5b81019080803590602001909291908035906020019092919080359060200190929190505050610b53565b005b61025c6004803603604081101561022657600080fd5b8101908080359060200190929190803573ffffffffffffffffffffffffffffffffffffffff169060200190929190505050610f2a565b005b6102aa6004803603604081101561027457600080fd5b81019080803573ffffffffffffffffffffffffffffffffffffffff1690602001909291908035906020019092919050505061135d565b604051808381526020018281526020019250505060405180910390f35b6102cf61138e565b604051808273ffffffffffffffffffffffffffffffffffffffff1673ffffffffffffffffffffffffffffffffffffffff16815260200191505060405180910390f35b6103476004803603604081101561032757600080fd5b8101908080359060200190929190803590602001909291905050506113b3565b005b61035161197e565b604051808273ffffffffffffffffffffffffffffffffffffffff1673ffffffffffffffffffffffffffffffffffffffff16815260200191505060405180910390f35b6103bf600480360360208110156103a957600080fd5b81019080803590602001909291905050506119a4565b005b6103ed600480360360208110156103d757600080fd5b8101908080359060200190929190505050611af3565b005b61043b6004803603604081101561040557600080fd5b8101908080359060200190929190803573ffffffffffffffffffffffffffffffffffffffff169060200190929190505050611c33565b005b610447338461229a565b6104b9576040517f08c379a00000000000000000000000000000000000000000000000000000000081526004018080602001828103825260098152602001807f6e6f74206578697374000000000000000000000000000000000000000000000081525060200191505060405180910390fd5b6000821161052f576040517f08c379a00000000000000000000000000000000000000000000000000000000081526004018080602001828103825260138152602001807f70726963652063616e2774206265207a65726f0000000000000000000000000081525060200191505060405180910390fd5b6000819050600082141561059457600360003373ffffffffffffffffffffffffffffffffffffffff1673ffffffffffffffffffffffffffffffffffffffff16815260200190815260200160002060008581526020019081526020016000206001015490505b604051806040016040528084815260200182815250600360003373ffffffffffffffffffffffffffffffffffffffff1673ffffffffffffffffffffffffffffffffffffffff168152602001908152602001600020600086815260200190815260200160002060008201518160000155602082015181600101559050507f745fa0d1805a08074546ad265a3e7a3e1d8799287dcb35d3947370ba469eb4e084338585604051808581526020018473ffffffffffffffffffffffffffffffffffffffff1673ffffffffffffffffffffffffffffffffffffffff16815260200183815260200182815260200194505050505060405180910390a150505050565b6002602052816000526040600020602052806000526040600020600091509150505481565b816000809054906101000a900473ffffffffffffffffffffffffffffffffffffffff1673ffffffffffffffffffffffffffffffffffffffff16630407abec82336040518363ffffffff1660e01b8152600401808381526020018273ffffffffffffffffffffffffffffffffffffffff1673ffffffffffffffffffffffffffffffffffffffff1681526020019250505060206040518083038186803b15801561075d57600080fd5b505afa158015610771573d6000803e3d6000fd5b505050506040513d602081101561078757600080fd5b810190808051906020019092919050505061080a576040517f08c379a00000000000000000000000000000000000000000000000000000000081526004018080602001828103825260098152602001807f6e6f74206f776e6564000000000000000000000000000000000000000000000081525060200191505060405180910390fd5b3073ffffffffffffffffffffffffffffffffffffffff166000809054906101000a900473ffffffffffffffffffffffffffffffffffffffff1673ffffffffffffffffffffffffffffffffffffffff1663bcf9fcad33846040518363ffffffff1660e01b8152600401808373ffffffffffffffffffffffffffffffffffffffff1673ffffffffffffffffffffffffffffffffffffffff1681526020018281526020019250505060206040518083038186803b1580156108c757600080fd5b505afa1580156108db573d6000803e3d6000fd5b505050506040513d60208110156108f157600080fd5b810190808051906020019092919050505073ffffffffffffffffffffffffffffffffffffffff161461098b576040517f08c379a000000000000000000000000000000000000000000000000000000000815260040180806020018281038252600b8152602001807f6e6f7420616c6c6f77656400000000000000000000000000000000000000000081525060200191505060405180910390fd5b8261099633826122fa565b610a08576040517f08c379a00000000000000000000000000000000000000000000000000000000081526004018080602001828103825260148152602001807f73656c6c206f72646572206e6f74206f776e656400000000000000000000000081525060200191505060405180910390fd5b60008311610a7e576040517f08c379a00000000000000000000000000000000000000000000000000000000081526004018080602001828103825260138152602001807f70726963652063616e2774206265207a65726f0000000000000000000000000081525060200191505060405180910390fd5b82600260003373ffffffffffffffffffffffffffffffffffffffff1673ffffffffffffffffffffffffffffffffffffffff1681526020019081526020016000206000868152602001908152602001600020819055507fe2fbe11a69dd3397016a8ac5cc0d982dd57cc1586c3400f8e3a3167d0dcd3634843385604051808481526020018373ffffffffffffffffffffffffffffffffffffffff1673ffffffffffffffffffffffffffffffffffffffff168152602001828152602001935050505060405180910390a150505050565b62093a8081565b60008060009054906101000a900473ffffffffffffffffffffffffffffffffffffffff1673ffffffffffffffffffffffffffffffffffffffff16637dd56411856040518263ffffffff1660e01b81526004018082815260200191505060206040518083038186803b158015610bc757600080fd5b505afa158015610bdb573d6000803e3d6000fd5b505050506040513d6020811015610bf157600080fd5b81019080805190602001909291905050509050600073ffffffffffffffffffffffffffffffffffffffff168173ffffffffffffffffffffffffffffffffffffffff161415610ca7576040517f08c379a00000000000000000000000000000000000000000000000000000000081526004018080602001828103825260208152602001807f73686f756c64206a757374207265676973746572206f722074616b656f76657281525060200191505060405180910390fd5b610cb1338561229a565b15610d24576040517f08c379a000000000000000000000000000000000000000000000000000000000815260040180806020018281038252600d8152602001807f616c72656164792061646465640000000000000000000000000000000000000081525060200191505060405180910390fd5b610d2e81856122fa565b15610da1576040517f08c379a000000000000000000000000000000000000000000000000000000000815260040180806020018281038252600e8152602001807f646f6d61696e206f6e2073656c6c00000000000000000000000000000000000081525060200191505060405180910390fd5b60008311610e17576040517f08c379a00000000000000000000000000000000000000000000000000000000081526004018080602001828103825260138152602001807f70726963652063616e2774206265207a65726f0000000000000000000000000081525060200191505060405180910390fd5b60008290506000831415610e2c5762093a8090505b604051806040016040528085815260200182815250600360003373ffffffffffffffffffffffffffffffffffffffff1673ffffffffffffffffffffffffffffffffffffffff168152602001908152602001600020600087815260200190815260200160002060008201518160000155602082015181600101559050507feabc52f62acd1d372f720cd90e895e31d674f029df61e3cb880f5641ae32916f85338686604051808581526020018473ffffffffffffffffffffffffffffffffffffffff1673ffffffffffffffffffffffffffffffffffffffff16815260200183815260200182815260200194505050505060405180910390a15050505050565b81816000809054906101000a900473ffffffffffffffffffffffffffffffffffffffff1673ffffffffffffffffffffffffffffffffffffffff16630407abec83836040518363ffffffff1660e01b8152600401808381526020018273ffffffffffffffffffffffffffffffffffffffff1673ffffffffffffffffffffffffffffffffffffffff1681526020019250505060206040518083038186803b158015610fd257600080fd5b505afa158015610fe6573d6000803e3d6000fd5b505050506040513d6020811015610ffc57600080fd5b810190808051906020019092919050505061107f576040517f08c379a00000000000000000000000000000000000000000000000000000000081526004018080602001828103825260098152602001807f6e6f742076616c6964000000000000000000000000000000000000000000000081525060200191505060405180910390fd5b8273ffffffffffffffffffffffffffffffffffffffff163373ffffffffffffffffffffffffffffffffffffffff161415611121576040517f08c379a00000000000000000000000000000000000000000000000000000000081526004018080602001828103825260138152602001807f63616e2774206275792066726f6d2073656c660000000000000000000000000081525060200191505060405180910390fd5b6000600260008573ffffffffffffffffffffffffffffffffffffffff1673ffffffffffffffffffffffffffffffffffffffff1681526020019081526020016000206000868152602001908152602001600020549050600081116111ec576040517f08c379a00000000000000000000000000000000000000000000000000000000081526004018080602001828103825260098152602001807f6e6f74206578697374000000000000000000000000000000000000000000000081525060200191505060405180910390fd5b6111f884338784612357565b600260008573ffffffffffffffffffffffffffffffffffffffff1673ffffffffffffffffffffffffffffffffffffffff168152602001908152602001600020600086815260200190815260200160002060009055600360003373ffffffffffffffffffffffffffffffffffffffff1673ffffffffffffffffffffffffffffffffffffffff1681526020019081526020016000206000868152602001908152602001600020600080820160009055600182016000905550507f9c0f845844791139cd02a1448f071f31346e7d1fee8cafc98925d507dc4d624485853384604051808581526020018473ffffffffffffffffffffffffffffffffffffffff1673ffffffffffffffffffffffffffffffffffffffff1681526020018373ffffffffffffffffffffffffffffffffffffffff1673ffffffffffffffffffffffffffffffffffffffff16815260200182815260200194505050505060405180910390a15050505050565b6003602052816000526040600020602052806000526040600020600091509150508060000154908060010154905082565b6000809054906101000a900473ffffffffffffffffffffffffffffffffffffffff1681565b816000809054906101000a900473ffffffffffffffffffffffffffffffffffffffff1673ffffffffffffffffffffffffffffffffffffffff16630407abec82336040518363ffffffff1660e01b8152600401808381526020018273ffffffffffffffffffffffffffffffffffffffff1673ffffffffffffffffffffffffffffffffffffffff1681526020019250505060206040518083038186803b15801561145a57600080fd5b505afa15801561146e573d6000803e3d6000fd5b505050506040513d602081101561148457600080fd5b8101908080519060200190929190505050611507576040517f08c379a00000000000000000000000000000000000000000000000000000000081526004018080602001828103825260098152602001807f6e6f74206f776e6564000000000000000000000000000000000000000000000081525060200191505060405180910390fd5b3073ffffffffffffffffffffffffffffffffffffffff166000809054906101000a900473ffffffffffffffffffffffffffffffffffffffff1673ffffffffffffffffffffffffffffffffffffffff1663bcf9fcad33846040518363ffffffff1660e01b8152600401808373ffffffffffffffffffffffffffffffffffffffff1673ffffffffffffffffffffffffffffffffffffffff1681526020018281526020019250505060206040518083038186803b1580156115c457600080fd5b505afa1580156115d8573d6000803e3d6000fd5b505050506040513d60208110156115ee57600080fd5b810190808051906020019092919050505073ffffffffffffffffffffffffffffffffffffffff1614611688576040517f08c379a000000000000000000000000000000000000000000000000000000000815260040180806020018281038252600b8152602001807f6e6f7420616c6c6f77656400000000000000000000000000000000000000000081525060200191505060405180910390fd5b61169233846122fa565b15611705576040517f08c379a000000000000000000000000000000000000000000000000000000000815260040180806020018281038252600d8152602001807f7265636f7264206578697374730000000000000000000000000000000000000081525060200191505060405180910390fd5b6000821161177b576040517f08c379a00000000000000000000000000000000000000000000000000000000081526004018080602001828103825260138152602001807f70726963652063616e2774206265207a65726f0000000000000000000000000081525060200191505060405180910390fd5b61179162093a804261256a90919063ffffffff16565b6000809054906101000a900473ffffffffffffffffffffffffffffffffffffffff1673ffffffffffffffffffffffffffffffffffffffff1663f7f67ef9856040518263ffffffff1660e01b81526004018082815260200191505060206040518083038186803b15801561180357600080fd5b505afa158015611817573d6000803e3d6000fd5b505050506040513d602081101561182d57600080fd5b8101908080519060200190929190505050116118b1576040517f08c379a000000000000000000000000000000000000000000000000000000000815260040180806020018281038252601b8152602001807f65787069726174696f6e206c657373207468616e20372064617973000000000081525060200191505060405180910390fd5b81600260003373ffffffffffffffffffffffffffffffffffffffff1673ffffffffffffffffffffffffffffffffffffffff1681526020019081526020016000206000858152602001908152602001600020819055507f10f7d9b00b30f2c94496f80f416e54d140fcd3c6040b5440ae55c39a3294086c833384604051808481526020018373ffffffffffffffffffffffffffffffffffffffff1673ffffffffffffffffffffffffffffffffffffffff168152602001828152602001935050505060405180910390a1505050565b600160009054906101000a900473ffffffffffffffffffffffffffffffffffffffff1681565b806119af338261229a565b611a21576040517f08c379a00000000000000000000000000000000000000000000000000000000081526004018080602001828103825260138152602001807f61736b206f72646572206e6f74206f776e65640000000000000000000000000081525060200191505060405180910390fd5b600360003373ffffffffffffffffffffffffffffffffffffffff1673ffffffffffffffffffffffffffffffffffffffff1681526020019081526020016000206000838152602001908152602001600020600080820160009055600182016000905550507fb715f983de08cb4ac1b5dd69df079431cfcf98fa642f38a0b9b266de6db4a7cc8233604051808381526020018273ffffffffffffffffffffffffffffffffffffffff1673ffffffffffffffffffffffffffffffffffffffff1681526020019250505060405180910390a15050565b80611afe33826122fa565b611b70576040517f08c379a00000000000000000000000000000000000000000000000000000000081526004018080602001828103825260148152602001807f73656c6c206f72646572206e6f74206f776e656400000000000000000000000081525060200191505060405180910390fd5b600260003373ffffffffffffffffffffffffffffffffffffffff1673ffffffffffffffffffffffffffffffffffffffff1681526020019081526020016000206000838152602001908152602001600020600090557fd369082d239e5af317337ed91a37711a5809487a596e485189541c3219a35a0a8233604051808381526020018273ffffffffffffffffffffffffffffffffffffffff1673ffffffffffffffffffffffffffffffffffffffff1681526020019250505060405180910390a15050565b816000809054906101000a900473ffffffffffffffffffffffffffffffffffffffff1673ffffffffffffffffffffffffffffffffffffffff16630407abec82336040518363ffffffff1660e01b8152600401808381526020018273ffffffffffffffffffffffffffffffffffffffff1673ffffffffffffffffffffffffffffffffffffffff1681526020019250505060206040518083038186803b158015611cda57600080fd5b505afa158015611cee573d6000803e3d6000fd5b505050506040513d6020811015611d0457600080fd5b8101908080519060200190929190505050611d87576040517f08c379a00000000000000000000000000000000000000000000000000000000081526004018080602001828103825260098152602001807f6e6f74206f776e6564000000000000000000000000000000000000000000000081525060200191505060405180910390fd5b3073ffffffffffffffffffffffffffffffffffffffff166000809054906101000a900473ffffffffffffffffffffffffffffffffffffffff1673ffffffffffffffffffffffffffffffffffffffff1663bcf9fcad33846040518363ffffffff1660e01b8152600401808373ffffffffffffffffffffffffffffffffffffffff1673ffffffffffffffffffffffffffffffffffffffff1681526020018281526020019250505060206040518083038186803b158015611e4457600080fd5b505afa158015611e58573d6000803e3d6000fd5b505050506040513d6020811015611e6e57600080fd5b810190808051906020019092919050505073ffffffffffffffffffffffffffffffffffffffff1614611f08576040517f08c379a000000000000000000000000000000000000000000000000000000000815260040180806020018281038252600b8152602001807f6e6f7420616c6c6f77656400000000000000000000000000000000000000000081525060200191505060405180910390fd5b611f10612589565b600360008473ffffffffffffffffffffffffffffffffffffffff1673ffffffffffffffffffffffffffffffffffffffff16815260200190815260200160002060008581526020019081526020016000206040518060400160405290816000820154815260200160018201548152505090506000816000015111611ffb576040517f08c379a000000000000000000000000000000000000000000000000000000000815260040180806020018281038252600d8152602001807f61736b206e6f742065786973740000000000000000000000000000000000000081525060200191505060405180910390fd5b806020015142016000809054906101000a900473ffffffffffffffffffffffffffffffffffffffff1673ffffffffffffffffffffffffffffffffffffffff1663f7f67ef9866040518263ffffffff1660e01b81526004018082815260200191505060206040518083038186803b15801561207457600080fd5b505afa158015612088573d6000803e3d6000fd5b505050506040513d602081101561209e57600080fd5b810190808051906020019092919050505011612122576040517f08c379a00000000000000000000000000000000000000000000000000000000081526004018080602001828103825260148152602001807f6e6f7420656e6f7567682074696d65206c65667400000000000000000000000081525060200191505060405180910390fd5b6121323384868460000151612357565b600360008473ffffffffffffffffffffffffffffffffffffffff1673ffffffffffffffffffffffffffffffffffffffff168152602001908152602001600020600085815260200190815260200160002060008082016000905560018201600090555050600260003373ffffffffffffffffffffffffffffffffffffffff1673ffffffffffffffffffffffffffffffffffffffff1681526020019081526020016000206000858152602001908152602001600020600090557ff4a9277c75325361938cc6d0e4f286721bcd4b3f14e95104242d23a7e953172e8433858460000151604051808581526020018473ffffffffffffffffffffffffffffffffffffffff1673ffffffffffffffffffffffffffffffffffffffff1681526020018373ffffffffffffffffffffffffffffffffffffffff1673ffffffffffffffffffffffffffffffffffffffff16815260200182815260200194505050505060405180910390a150505050565b600080600360008573ffffffffffffffffffffffffffffffffffffffff1673ffffffffffffffffffffffffffffffffffffffff16815260200190815260200160002060008481526020019081526020016000206000015411905092915050565b600080600260008573ffffffffffffffffffffffffffffffffffffffff1673ffffffffffffffffffffffffffffffffffffffff16815260200190815260200160002060008481526020019081526020016000205411905092915050565b600160009054906101000a900473ffffffffffffffffffffffffffffffffffffffff1673ffffffffffffffffffffffffffffffffffffffff166323b872dd8486846040518463ffffffff1660e01b8152600401808473ffffffffffffffffffffffffffffffffffffffff1673ffffffffffffffffffffffffffffffffffffffff1681526020018373ffffffffffffffffffffffffffffffffffffffff1673ffffffffffffffffffffffffffffffffffffffff1681526020018281526020019350505050602060405180830381600087803b15801561243457600080fd5b505af1158015612448573d6000803e3d6000fd5b505050506040513d602081101561245e57600080fd5b8101908080519060200190929190505050506000809054906101000a900473ffffffffffffffffffffffffffffffffffffffff1673ffffffffffffffffffffffffffffffffffffffff166382d7bd278386866040518463ffffffff1660e01b8152600401808481526020018373ffffffffffffffffffffffffffffffffffffffff1673ffffffffffffffffffffffffffffffffffffffff1681526020018273ffffffffffffffffffffffffffffffffffffffff1673ffffffffffffffffffffffffffffffffffffffff1681526020019350505050600060405180830381600087803b15801561254c57600080fd5b505af1158015612560573d6000803e3d6000fd5b5050505050505050565b60008082840190508381101561257f57600080fd5b8091505092915050565b60405180604001604052806000815260200160008152509056fea265627a7a72315820fadb58b60bc0f436610b9bf6599ed4b414add1b1b0042fcc5eff5eb8e039f00f64736f6c63430005100032",
  "source": "pragma solidity >=0.5.0;\n\nimport \"./ERC20.sol\";\nimport \"./BasOwned.sol\";\n\ncontract BasMarket is BasOwned {\n    using SafeMath for uint256;\n    ERC20 public t;\n    uint256 public constant AT_LEAST_REMAIN_TIME = 7 days;\n\n    constructor(address _t, address _o) public BasOwned(_o){\n        t = ERC20(_t);\n    }\n\n    struct AskOrder {\n        uint256 price;\n        uint256 protectiveRemainTime;\n    }\n    \n    event SoldBySell(bytes32 nameHash,address from,address to,uint256 price);\n    event SoldByAsk(bytes32 nameHash,address from,address to,uint256 price);\n    event SellAdded(bytes32 nameHash,address operator,uint256 price);\n    event SellChanged(bytes32 nameHash, address operator, uint256 price);\n    event SellRemoved(bytes32 nameHash, address operator);\n    event AskAdded(bytes32 nameHash,address operator,uint256 price, uint256 time);\n    event AskChanged(bytes32 nameHash, address operator, uint256 price, uint256 time);\n    event AskRemoved(bytes32 nameHash, address operator);\n    \n    mapping(address => mapping(bytes32 => uint256)) public  SellOrders;\n    mapping(address => mapping(bytes32 => AskOrder)) public AskOrders;\n    \n    function _sellOrderExist(address addr, bytes32 nameHash) internal view returns (bool){\n        return SellOrders[addr][nameHash] > 0;\n    }\n\n    function _askOrderExist(address addr, bytes32 nameHash) internal view returns (bool){\n        return AskOrders[addr][nameHash].price > 0;\n    }\n    \n    modifier SellOrderOwner(bytes32 nameHash){\n        require(_sellOrderExist(msg.sender,nameHash),\"sell order not owned\");\n        _;\n    }\n    \n    modifier AskOrderOwner(bytes32 nameHash){\n        require(_askOrderExist(msg.sender,nameHash),\"ask order not owned\");\n        _;\n    }\n    \n    function AddToSells(bytes32 nameHash, uint256 price) external Allowed(nameHash){\n        require(!_sellOrderExist(msg.sender,nameHash), \"record exists\");\n        require(price > 0, \"price can't be zero\");\n        require(o.expirationOf(nameHash) > now.add(AT_LEAST_REMAIN_TIME),\"expiration less than 7 days\");\n        SellOrders[msg.sender][nameHash] = price;\n        emit SellAdded(nameHash, msg.sender, price);\n    }\n\n    function ChangeSellPrice(bytes32 nameHash, uint256 price) external Allowed(nameHash) SellOrderOwner(nameHash){\n        require(price > 0, \"price can't be zero\");\n        SellOrders[msg.sender][nameHash] = price;\n        emit SellChanged(nameHash, msg.sender,price);\n    }\n    \n    function RemoveSellOrder(bytes32 nameHash) SellOrderOwner(nameHash) public {\n        delete SellOrders[msg.sender][nameHash];\n        emit SellRemoved(nameHash, msg.sender);\n    }\n\n    function AddToAsks(bytes32 nameHash,uint256 price,uint256 protectiveRemainTime) external {\n        address owner = o.ownerOf(nameHash);\n        require(owner != address(0), \"should just register or takeover\");\n        require(!_askOrderExist(msg.sender,nameHash), \"already added\");\n        require(!_sellOrderExist(owner,nameHash), \"domain on sell\");\n        require(price > 0, \"price can't be zero\");\n        uint256 time = protectiveRemainTime;\n        if (protectiveRemainTime == 0) {\n            time = AT_LEAST_REMAIN_TIME;\n        }\n        AskOrders[msg.sender][nameHash] = AskOrder(price, time);\n        emit AskAdded(nameHash, msg.sender, price, protectiveRemainTime);\n    }\n\n    function ChangeAsksData(bytes32 nameHash,uint256 price,uint256 protectiveRemainTime) external {\n        require(_askOrderExist(msg.sender,nameHash), \"not exist\");\n        require(price > 0, \"price can't be zero\");\n        uint256 time = protectiveRemainTime;\n        if (protectiveRemainTime == 0) {\n            time = AskOrders[msg.sender][nameHash].protectiveRemainTime;\n        }\n        AskOrders[msg.sender][nameHash] = AskOrder(price, time);\n        emit AskChanged(nameHash, msg.sender,price, protectiveRemainTime);\n    }\n    \n    function RemoveAskOrder(bytes32 nameHash) AskOrderOwner(nameHash) external {\n        delete AskOrders[msg.sender][nameHash];\n        emit AskRemoved(nameHash, msg.sender);\n    }\n\n    function _exchangeDomainAndToken(address domainHolder, address tokenHolder, bytes32 nameHash,uint256 aggreedPirce) internal {\n        t.transferFrom(tokenHolder, domainHolder, aggreedPirce);\n        o.transferFrom(nameHash, domainHolder, tokenHolder);\n    }\n    \n    function BuyFromSells(bytes32 nameHash, address owner) Valid(nameHash,owner) external {\n        require(msg.sender != owner, \"can't buy from self\");\n        uint256 price = SellOrders[owner][nameHash];\n        require(price > 0, \"not exist\");\n        _exchangeDomainAndToken(owner,msg.sender,nameHash,price);\n        delete SellOrders[owner][nameHash];\n        delete AskOrders[msg.sender][nameHash];\n        emit SoldBySell(nameHash, owner, msg.sender, price);\n    }\n    \n    function SellToAsks(bytes32 nameHash, address to) Allowed(nameHash) external {\n        AskOrder memory item = AskOrders[to][nameHash];\n        require(item.price > 0, \"ask not exist\");\n        require(o.expirationOf(nameHash) > now + item.protectiveRemainTime,\"not enough time left\");\n        _exchangeDomainAndToken(msg.sender,to,nameHash,item.price);\n        delete AskOrders[to][nameHash];\n        delete SellOrders[msg.sender][nameHash];\n        emit SoldByAsk(nameHash, msg.sender, to, item.price);\n    }\n}",
  "sourcePath": "/Users/mini2/workspace/truffle suite/baschain/contracts/BasMarket.sol",
  "compiler": {
    "name": "solc",
    "version": "0.5.16+commit.9c3226ce.Emscripten.clang"
  },
  "schemaVersion": "3.0.23",
  "updatedAt": "2020-04-09T09:27:06.274Z",
  "networkType": "ethereum",
  "devdoc": {
    "methods": {}
  },
  "userdoc": {
    "methods": {}
  }
}