{
  "contractName": "BasMiner",
  "abi": [
    {
      "inputs": [
        {
          "internalType": "address",
          "name": "t",
          "type": "address"
        },
        {
          "internalType": "address",
          "name": "team",
          "type": "address"
        }
      ],
      "payable": false,
      "stateMutability": "nonpayable",
      "type": "constructor"
    },
    {
      "anonymous": false,
      "inputs": [
        {
          "indexed": false,
          "internalType": "uint8",
          "name": "allocateType",
          "type": "uint8"
        },
        {
          "indexed": false,
          "internalType": "uint256",
          "name": "toAdmin",
          "type": "uint256"
        },
        {
          "indexed": false,
          "internalType": "uint256",
          "name": "toBurn",
          "type": "uint256"
        },
        {
          "indexed": false,
          "internalType": "uint256",
          "name": "toMiner",
          "type": "uint256"
        },
        {
          "indexed": false,
          "internalType": "uint256",
          "name": "toRoot",
          "type": "uint256"
        }
      ],
      "name": "AllocationChanged",
      "type": "event"
    },
    {
      "anonymous": false,
      "inputs": [
        {
          "indexed": false,
          "internalType": "address",
          "name": "miner",
          "type": "address"
        }
      ],
      "name": "MinerAdd",
      "type": "event"
    },
    {
      "anonymous": false,
      "inputs": [
        {
          "indexed": false,
          "internalType": "address",
          "name": "miner",
          "type": "address"
        }
      ],
      "name": "MinerRemove",
      "type": "event"
    },
    {
      "anonymous": false,
      "inputs": [
        {
          "indexed": false,
          "internalType": "address",
          "name": "oldMiner",
          "type": "address"
        },
        {
          "indexed": false,
          "internalType": "address",
          "name": "newMiner",
          "type": "address"
        }
      ],
      "name": "MinerReplace",
      "type": "event"
    },
    {
      "anonymous": false,
      "inputs": [
        {
          "indexed": false,
          "internalType": "bytes32",
          "name": "receiptNumber",
          "type": "bytes32"
        },
        {
          "indexed": false,
          "internalType": "uint256",
          "name": "amout",
          "type": "uint256"
        },
        {
          "indexed": false,
          "internalType": "uint8",
          "name": "allocation",
          "type": "uint8"
        },
        {
          "indexed": false,
          "internalType": "address",
          "name": "from",
          "type": "address"
        }
      ],
      "name": "Receipt",
      "type": "event"
    },
    {
      "anonymous": false,
      "inputs": [
        {
          "indexed": false,
          "internalType": "address",
          "name": "drawer",
          "type": "address"
        },
        {
          "indexed": false,
          "internalType": "uint256",
          "name": "amout",
          "type": "uint256"
        }
      ],
      "name": "Withdraw",
      "type": "event"
    },
    {
      "constant": true,
      "inputs": [],
      "name": "AllocationCustomedSub",
      "outputs": [
        {
          "internalType": "uint8",
          "name": "",
          "type": "uint8"
        }
      ],
      "payable": false,
      "stateMutability": "view",
      "type": "function"
    },
    {
      "constant": true,
      "inputs": [],
      "name": "AllocationRoot",
      "outputs": [
        {
          "internalType": "uint8",
          "name": "",
          "type": "uint8"
        }
      ],
      "payable": false,
      "stateMutability": "view",
      "type": "function"
    },
    {
      "constant": true,
      "inputs": [],
      "name": "AllocationSelfSub",
      "outputs": [
        {
          "internalType": "uint8",
          "name": "",
          "type": "uint8"
        }
      ],
      "payable": false,
      "stateMutability": "view",
      "type": "function"
    },
    {
      "constant": true,
      "inputs": [],
      "name": "AllocationSub",
      "outputs": [
        {
          "internalType": "uint8",
          "name": "",
          "type": "uint8"
        }
      ],
      "payable": false,
      "stateMutability": "view",
      "type": "function"
    },
    {
      "constant": true,
      "inputs": [
        {
          "internalType": "uint256",
          "name": "",
          "type": "uint256"
        }
      ],
      "name": "MainNode",
      "outputs": [
        {
          "internalType": "address",
          "name": "",
          "type": "address"
        }
      ],
      "payable": false,
      "stateMutability": "view",
      "type": "function"
    },
    {
      "constant": true,
      "inputs": [],
      "name": "MainNodeSize",
      "outputs": [
        {
          "internalType": "uint256",
          "name": "",
          "type": "uint256"
        }
      ],
      "payable": false,
      "stateMutability": "view",
      "type": "function"
    },
    {
      "constant": true,
      "inputs": [],
      "name": "OANNAddress",
      "outputs": [
        {
          "internalType": "address",
          "name": "",
          "type": "address"
        }
      ],
      "payable": false,
      "stateMutability": "view",
      "type": "function"
    },
    {
      "constant": true,
      "inputs": [],
      "name": "Satoshi_Nakamoto",
      "outputs": [
        {
          "internalType": "address",
          "name": "",
          "type": "address"
        }
      ],
      "payable": false,
      "stateMutability": "view",
      "type": "function"
    },
    {
      "constant": false,
      "inputs": [
        {
          "internalType": "address",
          "name": "newOwner",
          "type": "address"
        }
      ],
      "name": "_a_changeAdmin",
      "outputs": [],
      "payable": false,
      "stateMutability": "nonpayable",
      "type": "function"
    },
    {
      "constant": false,
      "inputs": [
        {
          "internalType": "address",
          "name": "conAddr",
          "type": "address"
        }
      ],
      "name": "_a_changeContract",
      "outputs": [],
      "payable": false,
      "stateMutability": "nonpayable",
      "type": "function"
    },
    {
      "constant": true,
      "inputs": [],
      "name": "admin",
      "outputs": [
        {
          "internalType": "address",
          "name": "",
          "type": "address"
        }
      ],
      "payable": false,
      "stateMutability": "view",
      "type": "function"
    },
    {
      "constant": true,
      "inputs": [
        {
          "internalType": "address",
          "name": "",
          "type": "address"
        }
      ],
      "name": "balanceOf",
      "outputs": [
        {
          "internalType": "uint256",
          "name": "",
          "type": "uint256"
        }
      ],
      "payable": false,
      "stateMutability": "view",
      "type": "function"
    },
    {
      "constant": true,
      "inputs": [],
      "name": "contractCaller",
      "outputs": [
        {
          "internalType": "address",
          "name": "",
          "type": "address"
        }
      ],
      "payable": false,
      "stateMutability": "view",
      "type": "function"
    },
    {
      "constant": true,
      "inputs": [],
      "name": "customedSubSetting",
      "outputs": [
        {
          "internalType": "uint256",
          "name": "toAdmin",
          "type": "uint256"
        },
        {
          "internalType": "uint256",
          "name": "toBurn",
          "type": "uint256"
        },
        {
          "internalType": "uint256",
          "name": "toMiner",
          "type": "uint256"
        },
        {
          "internalType": "uint256",
          "name": "toRootOwner",
          "type": "uint256"
        }
      ],
      "payable": false,
      "stateMutability": "view",
      "type": "function"
    },
    {
      "constant": true,
      "inputs": [],
      "name": "defaultSubSetting",
      "outputs": [
        {
          "internalType": "uint256",
          "name": "toAdmin",
          "type": "uint256"
        },
        {
          "internalType": "uint256",
          "name": "toBurn",
          "type": "uint256"
        },
        {
          "internalType": "uint256",
          "name": "toMiner",
          "type": "uint256"
        },
        {
          "internalType": "uint256",
          "name": "toRootOwner",
          "type": "uint256"
        }
      ],
      "payable": false,
      "stateMutability": "view",
      "type": "function"
    },
    {
      "constant": true,
      "inputs": [],
      "name": "rootSetting",
      "outputs": [
        {
          "internalType": "uint256",
          "name": "toAdmin",
          "type": "uint256"
        },
        {
          "internalType": "uint256",
          "name": "toBurn",
          "type": "uint256"
        },
        {
          "internalType": "uint256",
          "name": "toMiner",
          "type": "uint256"
        },
        {
          "internalType": "uint256",
          "name": "toRootOwner",
          "type": "uint256"
        }
      ],
      "payable": false,
      "stateMutability": "view",
      "type": "function"
    },
    {
      "constant": true,
      "inputs": [],
      "name": "selfSubSetting",
      "outputs": [
        {
          "internalType": "uint256",
          "name": "toAdmin",
          "type": "uint256"
        },
        {
          "internalType": "uint256",
          "name": "toBurn",
          "type": "uint256"
        },
        {
          "internalType": "uint256",
          "name": "toMiner",
          "type": "uint256"
        },
        {
          "internalType": "uint256",
          "name": "toRootOwner",
          "type": "uint256"
        }
      ],
      "payable": false,
      "stateMutability": "view",
      "type": "function"
    },
    {
      "constant": true,
      "inputs": [],
      "name": "token",
      "outputs": [
        {
          "internalType": "contract BasToken",
          "name": "",
          "type": "address"
        }
      ],
      "payable": false,
      "stateMutability": "view",
      "type": "function"
    },
    {
      "constant": true,
      "inputs": [],
      "name": "GetAllMainNodeAddress",
      "outputs": [
        {
          "internalType": "address[]",
          "name": "",
          "type": "address[]"
        }
      ],
      "payable": false,
      "stateMutability": "view",
      "type": "function"
    },
    {
      "constant": false,
      "inputs": [
        {
          "internalType": "address",
          "name": "to",
          "type": "address"
        },
        {
          "internalType": "uint256",
          "name": "no",
          "type": "uint256"
        }
      ],
      "name": "_a_emergencyWithdraw",
      "outputs": [],
      "payable": false,
      "stateMutability": "nonpayable",
      "type": "function"
    },
    {
      "constant": false,
      "inputs": [
        {
          "internalType": "uint256",
          "name": "admin",
          "type": "uint256"
        },
        {
          "internalType": "uint256",
          "name": "burn",
          "type": "uint256"
        },
        {
          "internalType": "uint256",
          "name": "miner",
          "type": "uint256"
        }
      ],
      "name": "_a_changeRootSetting",
      "outputs": [],
      "payable": false,
      "stateMutability": "nonpayable",
      "type": "function"
    },
    {
      "constant": false,
      "inputs": [
        {
          "internalType": "uint256",
          "name": "admin",
          "type": "uint256"
        },
        {
          "internalType": "uint256",
          "name": "burn",
          "type": "uint256"
        },
        {
          "internalType": "uint256",
          "name": "miner",
          "type": "uint256"
        },
        {
          "internalType": "uint256",
          "name": "root",
          "type": "uint256"
        }
      ],
      "name": "_a_changeDefaultSubSetting",
      "outputs": [],
      "payable": false,
      "stateMutability": "nonpayable",
      "type": "function"
    },
    {
      "constant": false,
      "inputs": [
        {
          "internalType": "uint256",
          "name": "admin",
          "type": "uint256"
        },
        {
          "internalType": "uint256",
          "name": "burn",
          "type": "uint256"
        },
        {
          "internalType": "uint256",
          "name": "miner",
          "type": "uint256"
        },
        {
          "internalType": "uint256",
          "name": "root",
          "type": "uint256"
        }
      ],
      "name": "_a_changeSelfSubSetting",
      "outputs": [],
      "payable": false,
      "stateMutability": "nonpayable",
      "type": "function"
    },
    {
      "constant": false,
      "inputs": [
        {
          "internalType": "uint256",
          "name": "admin",
          "type": "uint256"
        },
        {
          "internalType": "uint256",
          "name": "burn",
          "type": "uint256"
        },
        {
          "internalType": "uint256",
          "name": "miner",
          "type": "uint256"
        },
        {
          "internalType": "uint256",
          "name": "root",
          "type": "uint256"
        }
      ],
      "name": "_a_changeCustomedSubSetting",
      "outputs": [],
      "payable": false,
      "stateMutability": "nonpayable",
      "type": "function"
    },
    {
      "constant": false,
      "inputs": [
        {
          "internalType": "address",
          "name": "m",
          "type": "address"
        }
      ],
      "name": "_a_addMiner",
      "outputs": [],
      "payable": false,
      "stateMutability": "nonpayable",
      "type": "function"
    },
    {
      "constant": false,
      "inputs": [
        {
          "internalType": "address",
          "name": "oldM",
          "type": "address"
        },
        {
          "internalType": "address",
          "name": "newM",
          "type": "address"
        }
      ],
      "name": "_a_replaceMiner",
      "outputs": [],
      "payable": false,
      "stateMutability": "nonpayable",
      "type": "function"
    },
    {
      "constant": false,
      "inputs": [
        {
          "internalType": "address",
          "name": "miner",
          "type": "address"
        }
      ],
      "name": "_a_removeMiner",
      "outputs": [],
      "payable": false,
      "stateMutability": "nonpayable",
      "type": "function"
    },
    {
      "constant": false,
      "inputs": [],
      "name": "withdraw",
      "outputs": [],
      "payable": false,
      "stateMutability": "nonpayable",
      "type": "function"
    },
    {
      "constant": false,
      "inputs": [
        {
          "internalType": "uint256",
          "name": "cost",
          "type": "uint256"
        },
        {
          "internalType": "uint8",
          "name": "allocateType",
          "type": "uint8"
        },
        {
          "internalType": "bytes32",
          "name": "receiptNumber",
          "type": "bytes32"
        },
        {
          "internalType": "address",
          "name": "rootOwner",
          "type": "address"
        }
      ],
      "name": "_c_allocateProfit",
      "outputs": [],
      "payable": false,
      "stateMutability": "nonpayable",
      "type": "function"
    }
  ],
  "bytecode": "0x608060405234801561001057600080fd5b50604051612df8380380612df88339818101604052604081101561003357600080fd5b810190808051906020019092919080519060200190929190505050336000806101000a81548173ffffffffffffffffffffffffffffffffffffffff021916908373ffffffffffffffffffffffffffffffffffffffff16021790555081600460006101000a81548173ffffffffffffffffffffffffffffffffffffffff021916908373ffffffffffffffffffffffffffffffffffffffff16021790555080600260006101000a81548173ffffffffffffffffffffffffffffffffffffffff021916908373ffffffffffffffffffffffffffffffffffffffff160217905550604051806080016040528060148152602001602881526020016028815260200160008152506005600082015181600001556020820151816001015560408201518160020155606082015181600301559050507f0244e311880cf8969cc8b01ad7c19317d1b2f9b197754df3ae5088d8dfa58a37600060146028806000604051808660ff1660ff1681526020018581526020018481526020018381526020018281526020019550505050505060405180910390a16040518060800160405280600a81526020016028815260200160288152602001600a8152506009600082015181600001556020820151816001015560408201518160020155606082015181600301559050507f0244e311880cf8969cc8b01ad7c19317d1b2f9b197754df3ae5088d8dfa58a376001600a602880600a604051808660ff1660ff1681526020018581526020018481526020018381526020018281526020019550505050505060405180910390a16040518060800160405280600a8152602001601e8152602001602881526020016014815250600d600082015181600001556020820151816001015560408201518160020155606082015181600301559050507f0244e311880cf8969cc8b01ad7c19317d1b2f9b197754df3ae5088d8dfa58a376002600a601e60286014604051808660ff1660ff1681526020018581526020018481526020018381526020018281526020019550505050505060405180910390a16040518060800160405280600a8152602001601e815260200160288152602001600f8152506011600082015181600001556020820151816001015560408201518160020155606082015181600301559050507f0244e311880cf8969cc8b01ad7c19317d1b2f9b197754df3ae5088d8dfa58a376003600a601e6028600f604051808660ff1660ff1681526020018581526020018481526020018381526020018281526020019550505050505060405180910390a15050612a09806103ef6000396000f3fe608060405234801561001057600080fd5b50600436106101cf5760003560e01c80636f3cb28f11610104578063bf6f1121116100a2578063dea2124111610071578063dea2124114610866578063f22c9b0014610884578063f851a440146108a8578063fc0c546a146108f2576101cf565b8063bf6f11211461076a578063ce803e2b146107b4578063cf9a400e14610800578063da3926c614610833576101cf565b806375d4b7f7116100de57806375d4b7f714610661578063ac6e389d14610694578063b963b0d2146106e2578063be7738d814610726576101cf565b80636f3cb28f1461056057806370a08231146105c5578063733c19501461061d576101cf565b806343b7919a1161017157806354cf428a1161014b57806354cf428a1461042057806355c120cc1461046a57806357d3a2ba146104ce57806363831e0e1461053c576101cf565b806343b7919a146103705780634cd9e136146103b257806354cc5d54146103d6576101cf565b8063289acc25116101ad578063289acc25146102c35780633ccfd60b146102f65780633f2ed91e1461030057806341e9a9fe1461034c576101cf565b80631062f6cc146101d457806313612f5614610218578063179e0f0014610264575b600080fd5b610216600480360360208110156101ea57600080fd5b81019080803573ffffffffffffffffffffffffffffffffffffffff16906020019092919050505061093c565b005b6102626004803603608081101561022e57600080fd5b8101908080359060200190929190803590602001909291908035906020019092919080359060200190929190505050610a41565b005b61026c610c0c565b6040518080602001828103825283818151815260200191508051906020019060200280838360005b838110156102af578082015181840152602081019050610294565b505050509050019250505060405180910390f35b6102cb610c9a565b6040518085815260200184815260200183815260200182815260200194505050505060405180910390f35b6102fe610cb8565b005b61034a6004803603608081101561031657600080fd5b8101908080359060200190929190803590602001909291908035906020019092919080359060200190929190505050611072565b005b61035461123d565b604051808260ff1660ff16815260200191505060405180910390f35b6103b06004803603606081101561038657600080fd5b81019080803590602001909291908035906020019092919080359060200190929190505050611242565b005b6103ba61140c565b604051808260ff1660ff16815260200191505060405180910390f35b6103de611411565b604051808273ffffffffffffffffffffffffffffffffffffffff1673ffffffffffffffffffffffffffffffffffffffff16815260200191505060405180910390f35b610428611437565b604051808273ffffffffffffffffffffffffffffffffffffffff1673ffffffffffffffffffffffffffffffffffffffff16815260200191505060405180910390f35b6104cc6004803603604081101561048057600080fd5b81019080803573ffffffffffffffffffffffffffffffffffffffff169060200190929190803573ffffffffffffffffffffffffffffffffffffffff16906020019092919050505061145d565b005b6104fa600480360360208110156104e457600080fd5b810190808035906020019092919050505061171c565b604051808273ffffffffffffffffffffffffffffffffffffffff1673ffffffffffffffffffffffffffffffffffffffff16815260200191505060405180910390f35b610544611758565b604051808260ff1660ff16815260200191505060405180910390f35b6105c36004803603608081101561057657600080fd5b8101908080359060200190929190803560ff16906020019092919080359060200190929190803573ffffffffffffffffffffffffffffffffffffffff16906020019092919050505061175d565b005b610607600480360360208110156105db57600080fd5b81019080803573ffffffffffffffffffffffffffffffffffffffff169060200190929190505050611d9c565b6040518082815260200191505060405180910390f35b61065f6004803603602081101561063357600080fd5b81019080803573ffffffffffffffffffffffffffffffffffffffff169060200190929190505050611db4565b005b610669611eba565b6040518085815260200184815260200183815260200182815260200194505050505060405180910390f35b6106e0600480360360408110156106aa57600080fd5b81019080803573ffffffffffffffffffffffffffffffffffffffff16906020019092919080359060200190929190505050611ed8565b005b610724600480360360208110156106f857600080fd5b81019080803573ffffffffffffffffffffffffffffffffffffffff169060200190929190505050612083565b005b6107686004803603602081101561073c57600080fd5b81019080803573ffffffffffffffffffffffffffffffffffffffff16906020019092919050505061228d565b005b610772612598565b604051808273ffffffffffffffffffffffffffffffffffffffff1673ffffffffffffffffffffffffffffffffffffffff16815260200191505060405180910390f35b6107fe600480360360808110156107ca57600080fd5b81019080803590602001909291908035906020019092919080359060200190929190803590602001909291905050506125be565b005b610808612789565b6040518085815260200184815260200183815260200182815260200194505050505060405180910390f35b61083b6127a7565b6040518085815260200184815260200183815260200182815260200194505050505060405180910390f35b61086e6127c5565b6040518082815260200191505060405180910390f35b61088c6127ca565b604051808260ff1660ff16815260200191505060405180910390f35b6108b06127cf565b604051808273ffffffffffffffffffffffffffffffffffffffff1673ffffffffffffffffffffffffffffffffffffffff16815260200191505060405180910390f35b6108fa6127f4565b604051808273ffffffffffffffffffffffffffffffffffffffff1673ffffffffffffffffffffffffffffffffffffffff16815260200191505060405180910390f35b6000809054906101000a900473ffffffffffffffffffffffffffffffffffffffff1673ffffffffffffffffffffffffffffffffffffffff163373ffffffffffffffffffffffffffffffffffffffff16146109fe576040517f08c379a000000000000000000000000000000000000000000000000000000000815260040180806020018281038252600a8152602001807f61646d696e206f6e6c790000000000000000000000000000000000000000000081525060200191505060405180910390fd5b806000806101000a81548173ffffffffffffffffffffffffffffffffffffffff021916908373ffffffffffffffffffffffffffffffffffffffff16021790555050565b6000809054906101000a900473ffffffffffffffffffffffffffffffffffffffff1673ffffffffffffffffffffffffffffffffffffffff163373ffffffffffffffffffffffffffffffffffffffff1614610b03576040517f08c379a000000000000000000000000000000000000000000000000000000000815260040180806020018281038252600a8152602001807f61646d696e206f6e6c790000000000000000000000000000000000000000000081525060200191505060405180910390fd5b6064818385870101011115610b80576040517f08c379a000000000000000000000000000000000000000000000000000000000815260040180806020018281038252600c8152602001807f6572726f722073756d207570000000000000000000000000000000000000000081525060200191505060405180910390fd5b836009600001819055508260096001018190555081600960020181905550806009600301819055507f0244e311880cf8969cc8b01ad7c19317d1b2f9b197754df3ae5088d8dfa58a37600185858585604051808660ff1660ff1681526020018581526020018481526020018381526020018281526020019550505050505060405180910390a150505050565b60606015805480602002602001604051908101604052809291908181526020018280548015610c9057602002820191906000526020600020905b8160009054906101000a900473ffffffffffffffffffffffffffffffffffffffff1673ffffffffffffffffffffffffffffffffffffffff1681526020019060010190808311610c46575b5050505050905090565b60118060000154908060010154908060020154908060030154905084565b6000601660003373ffffffffffffffffffffffffffffffffffffffff1673ffffffffffffffffffffffffffffffffffffffff16815260200190815260200160002054905060008111610d72576040517f08c379a000000000000000000000000000000000000000000000000000000000815260040180806020018281038252600c8152602001807f62616c616e63652069732030000000000000000000000000000000000000000081525060200191505060405180910390fd5b600460009054906101000a900473ffffffffffffffffffffffffffffffffffffffff1673ffffffffffffffffffffffffffffffffffffffff1663a9059cbb33836040518363ffffffff1660e01b8152600401808373ffffffffffffffffffffffffffffffffffffffff1673ffffffffffffffffffffffffffffffffffffffff16815260200182815260200192505050602060405180830381600087803b158015610e1b57600080fd5b505af1158015610e2f573d6000803e3d6000fd5b505050506040513d6020811015610e4557600080fd5b8101908080519060200190929190505050506000601660003373ffffffffffffffffffffffffffffffffffffffff1673ffffffffffffffffffffffffffffffffffffffff16815260200190815260200160002081905550600260009054906101000a900473ffffffffffffffffffffffffffffffffffffffff1673ffffffffffffffffffffffffffffffffffffffff163373ffffffffffffffffffffffffffffffffffffffff16141561100457600460009054906101000a900473ffffffffffffffffffffffffffffffffffffffff1673ffffffffffffffffffffffffffffffffffffffff166342966c68601660008073ffffffffffffffffffffffffffffffffffffffff1673ffffffffffffffffffffffffffffffffffffffff168152602001908152602001600020546040518263ffffffff1660e01b815260040180828152602001915050600060405180830381600087803b158015610fa657600080fd5b505af1158015610fba573d6000803e3d6000fd5b505050506000601660008073ffffffffffffffffffffffffffffffffffffffff1673ffffffffffffffffffffffffffffffffffffffff168152602001908152602001600020819055505b7f884edad9ce6fa2440d8a54cc123490eb96d2768479d49ff9c7366125a94243643382604051808373ffffffffffffffffffffffffffffffffffffffff1673ffffffffffffffffffffffffffffffffffffffff1681526020018281526020019250505060405180910390a150565b6000809054906101000a900473ffffffffffffffffffffffffffffffffffffffff1673ffffffffffffffffffffffffffffffffffffffff163373ffffffffffffffffffffffffffffffffffffffff1614611134576040517f08c379a000000000000000000000000000000000000000000000000000000000815260040180806020018281038252600a8152602001807f61646d696e206f6e6c790000000000000000000000000000000000000000000081525060200191505060405180910390fd5b60648183858701010111156111b1576040517f08c379a000000000000000000000000000000000000000000000000000000000815260040180806020018281038252600c8152602001807f6572726f722073756d207570000000000000000000000000000000000000000081525060200191505060405180910390fd5b83600d6000018190555082600d6001018190555081600d6002018190555080600d600301819055507f0244e311880cf8969cc8b01ad7c19317d1b2f9b197754df3ae5088d8dfa58a37600285858585604051808660ff1660ff1681526020018581526020018481526020018381526020018281526020019550505050505060405180910390a150505050565b600081565b6000809054906101000a900473ffffffffffffffffffffffffffffffffffffffff1673ffffffffffffffffffffffffffffffffffffffff163373ffffffffffffffffffffffffffffffffffffffff1614611304576040517f08c379a000000000000000000000000000000000000000000000000000000000815260040180806020018281038252600a8152602001807f61646d696e206f6e6c790000000000000000000000000000000000000000000081525060200191505060405180910390fd5b60648183850101111561137f576040517f08c379a000000000000000000000000000000000000000000000000000000000815260040180806020018281038252600c8152602001807f6572726f722073756d207570000000000000000000000000000000000000000081525060200191505060405180910390fd5b82600560000181905550816005600101819055508060056002018190555060006005600301819055507f0244e311880cf8969cc8b01ad7c19317d1b2f9b197754df3ae5088d8dfa58a3760008484846000604051808660ff1660ff1681526020018581526020018481526020018381526020018281526020019550505050505060405180910390a1505050565b600381565b600360009054906101000a900473ffffffffffffffffffffffffffffffffffffffff1681565b600160009054906101000a900473ffffffffffffffffffffffffffffffffffffffff1681565b6000809054906101000a900473ffffffffffffffffffffffffffffffffffffffff1673ffffffffffffffffffffffffffffffffffffffff163373ffffffffffffffffffffffffffffffffffffffff161461151f576040517f08c379a000000000000000000000000000000000000000000000000000000000815260040180806020018281038252600a8152602001807f61646d696e206f6e6c790000000000000000000000000000000000000000000081525060200191505060405180910390fd5b60006015805490501161159a576040517f08c379a000000000000000000000000000000000000000000000000000000000815260040180806020018281038252600b8152602001807f6e6f64657320656d70747900000000000000000000000000000000000000000081525060200191505060405180910390fd5b60008090505b601580549050811015611680578273ffffffffffffffffffffffffffffffffffffffff16601582815481106115d157fe5b9060005260206000200160009054906101000a900473ffffffffffffffffffffffffffffffffffffffff1673ffffffffffffffffffffffffffffffffffffffff16141561167357816015828154811061162657fe5b9060005260206000200160006101000a81548173ffffffffffffffffffffffffffffffffffffffff021916908373ffffffffffffffffffffffffffffffffffffffff160217905550611680565b80806001019150506115a0565b507fc205c6ca767906b347bde3b64a6a00763decbd4fb0ea515cb8afb411647591ee8282604051808373ffffffffffffffffffffffffffffffffffffffff1673ffffffffffffffffffffffffffffffffffffffff1681526020018273ffffffffffffffffffffffffffffffffffffffff1673ffffffffffffffffffffffffffffffffffffffff1681526020019250505060405180910390a15050565b6015818154811061172957fe5b906000526020600020016000915054906101000a900473ffffffffffffffffffffffffffffffffffffffff1681565b600281565b600160009054906101000a900473ffffffffffffffffffffffffffffffffffffffff1673ffffffffffffffffffffffffffffffffffffffff163373ffffffffffffffffffffffffffffffffffffffff1614611820576040517f08c379a00000000000000000000000000000000000000000000000000000000081526004018080602001828103825260148152602001807f636f6e74726163742063616c6c6572206f6e6c7900000000000000000000000081525060200191505060405180910390fd5b60008411611896576040517f08c379a00000000000000000000000000000000000000000000000000000000081526004018080602001828103825260098152602001807f636f73742069732030000000000000000000000000000000000000000000000081525060200191505060405180910390fd5b60008060006118a36129ac565b600060ff168760ff1614156118ee5760056040518060800160405290816000820154815260200160018201548152602001600282015481526020016003820154815250509050611a40565b600160ff168760ff1614156119395760096040518060800160405290816000820154815260200160018201548152602001600282015481526020016003820154815250509050611a3f565b600260ff168760ff16141561198457600d6040518060800160405290816000820154815260200160018201548152602001600282015481526020016003820154815250509050611a3e565b600360ff168760ff1614156119cf5760116040518060800160405290816000820154815260200160018201548152602001600282015481526020016003820154815250509050611a3d565b6040517f08c379a00000000000000000000000000000000000000000000000000000000081526004018080602001828103825260178152602001807f756e646566696e656420616c6c6f63617465207479706500000000000000000081525060200191505060405180910390fd5b5b5b5b600081602001511115611b0f57611a776064611a6983602001518b61281a90919063ffffffff16565b61285490919063ffffffff16565b9350611acb84601660008073ffffffffffffffffffffffffffffffffffffffff1673ffffffffffffffffffffffffffffffffffffffff1681526020019081526020016000205461287a90919063ffffffff16565b601660008073ffffffffffffffffffffffffffffffffffffffff1673ffffffffffffffffffffffffffffffffffffffff168152602001908152602001600020819055505b60008160400151118015611b2857506000601580549050115b15611b6357611b576064611b4983604001518b61281a90919063ffffffff16565b61285490919063ffffffff16565b9250611b6283612899565b5b600081606001511115611c3257611b9a6064611b8c83606001518b61281a90919063ffffffff16565b61285490919063ffffffff16565b9150611bee82601660008873ffffffffffffffffffffffffffffffffffffffff1673ffffffffffffffffffffffffffffffffffffffff1681526020019081526020016000205461287a90919063ffffffff16565b601660008773ffffffffffffffffffffffffffffffffffffffff1673ffffffffffffffffffffffffffffffffffffffff168152602001908152602001600020819055505b611cac8284868b03030360166000600260009054906101000a900473ffffffffffffffffffffffffffffffffffffffff1673ffffffffffffffffffffffffffffffffffffffff1673ffffffffffffffffffffffffffffffffffffffff1681526020019081526020016000205461287a90919063ffffffff16565b60166000600260009054906101000a900473ffffffffffffffffffffffffffffffffffffffff1673ffffffffffffffffffffffffffffffffffffffff1673ffffffffffffffffffffffffffffffffffffffff168152602001908152602001600020819055507f3758759a794787144866c77ee84ba833a2225c12a6d58982691b2e88363544ff86898933604051808581526020018481526020018360ff1660ff1681526020018273ffffffffffffffffffffffffffffffffffffffff1673ffffffffffffffffffffffffffffffffffffffff16815260200194505050505060405180910390a15050505050505050565b60166020528060005260406000206000915090505481565b6000809054906101000a900473ffffffffffffffffffffffffffffffffffffffff1673ffffffffffffffffffffffffffffffffffffffff163373ffffffffffffffffffffffffffffffffffffffff1614611e76576040517f08c379a000000000000000000000000000000000000000000000000000000000815260040180806020018281038252600a8152602001807f61646d696e206f6e6c790000000000000000000000000000000000000000000081525060200191505060405180910390fd5b80600160006101000a81548173ffffffffffffffffffffffffffffffffffffffff021916908373ffffffffffffffffffffffffffffffffffffffff16021790555050565b60058060000154908060010154908060020154908060030154905084565b6000809054906101000a900473ffffffffffffffffffffffffffffffffffffffff1673ffffffffffffffffffffffffffffffffffffffff163373ffffffffffffffffffffffffffffffffffffffff1614611f9a576040517f08c379a000000000000000000000000000000000000000000000000000000000815260040180806020018281038252600a8152602001807f61646d696e206f6e6c790000000000000000000000000000000000000000000081525060200191505060405180910390fd5b600460009054906101000a900473ffffffffffffffffffffffffffffffffffffffff1673ffffffffffffffffffffffffffffffffffffffff1663a9059cbb83836040518363ffffffff1660e01b8152600401808373ffffffffffffffffffffffffffffffffffffffff1673ffffffffffffffffffffffffffffffffffffffff16815260200182815260200192505050602060405180830381600087803b15801561204357600080fd5b505af1158015612057573d6000803e3d6000fd5b505050506040513d602081101561206d57600080fd5b8101908080519060200190929190505050505050565b6000809054906101000a900473ffffffffffffffffffffffffffffffffffffffff1673ffffffffffffffffffffffffffffffffffffffff163373ffffffffffffffffffffffffffffffffffffffff1614612145576040517f08c379a000000000000000000000000000000000000000000000000000000000815260040180806020018281038252600a8152602001807f61646d696e206f6e6c790000000000000000000000000000000000000000000081525060200191505060405180910390fd5b60158190806001815401808255809150509060018203906000526020600020016000909192909190916101000a81548173ffffffffffffffffffffffffffffffffffffffff021916908373ffffffffffffffffffffffffffffffffffffffff1602179055505060406015805490501115612227576040517f08c379a000000000000000000000000000000000000000000000000000000000815260040180806020018281038252600d8152602001807f6e6f6465732069732066756c6c0000000000000000000000000000000000000081525060200191505060405180910390fd5b7f424346829819678c1f897cd0d980f28004ae4eb06bb95f034a791e0e4e9cebf581604051808273ffffffffffffffffffffffffffffffffffffffff1673ffffffffffffffffffffffffffffffffffffffff16815260200191505060405180910390a150565b6000809054906101000a900473ffffffffffffffffffffffffffffffffffffffff1673ffffffffffffffffffffffffffffffffffffffff163373ffffffffffffffffffffffffffffffffffffffff161461234f576040517f08c379a000000000000000000000000000000000000000000000000000000000815260040180806020018281038252600a8152602001807f61646d696e206f6e6c790000000000000000000000000000000000000000000081525060200191505060405180910390fd5b6000601580549050116123ca576040517f08c379a000000000000000000000000000000000000000000000000000000000815260040180806020018281038252600b8152602001807f6e6f64657320656d70747900000000000000000000000000000000000000000081525060200191505060405180910390fd5b60008090505b601580549050811015612531578173ffffffffffffffffffffffffffffffffffffffff166015828154811061240157fe5b9060005260206000200160009054906101000a900473ffffffffffffffffffffffffffffffffffffffff1673ffffffffffffffffffffffffffffffffffffffff1614156125245760156001601580549050038154811061245d57fe5b9060005260206000200160009054906101000a900473ffffffffffffffffffffffffffffffffffffffff166015828154811061249557fe5b9060005260206000200160006101000a81548173ffffffffffffffffffffffffffffffffffffffff021916908373ffffffffffffffffffffffffffffffffffffffff1602179055506015600160158054905003815481106124f257fe5b9060005260206000200160006101000a81549073ffffffffffffffffffffffffffffffffffffffff0219169055612531565b80806001019150506123d0565b507f872f9c238db5a645adcaea90821e7c7884c6e063b9e047fd2658592f7cea397d81604051808273ffffffffffffffffffffffffffffffffffffffff1673ffffffffffffffffffffffffffffffffffffffff16815260200191505060405180910390a150565b600260009054906101000a900473ffffffffffffffffffffffffffffffffffffffff1681565b6000809054906101000a900473ffffffffffffffffffffffffffffffffffffffff1673ffffffffffffffffffffffffffffffffffffffff163373ffffffffffffffffffffffffffffffffffffffff1614612680576040517f08c379a000000000000000000000000000000000000000000000000000000000815260040180806020018281038252600a8152602001807f61646d696e206f6e6c790000000000000000000000000000000000000000000081525060200191505060405180910390fd5b60648183858701010111156126fd576040517f08c379a000000000000000000000000000000000000000000000000000000000815260040180806020018281038252600c8152602001807f6572726f722073756d207570000000000000000000000000000000000000000081525060200191505060405180910390fd5b836011600001819055508260116001018190555081601160020181905550806011600301819055507f0244e311880cf8969cc8b01ad7c19317d1b2f9b197754df3ae5088d8dfa58a37600385858585604051808660ff1660ff1681526020018581526020018481526020018381526020018281526020019550505050505060405180910390a150505050565b60098060000154908060010154908060020154908060030154905084565b600d8060000154908060010154908060020154908060030154905084565b604081565b600181565b6000809054906101000a900473ffffffffffffffffffffffffffffffffffffffff1681565b600460009054906101000a900473ffffffffffffffffffffffffffffffffffffffff1681565b60008083141561282d576000905061284e565b600082840290508284828161283e57fe5b041461284957600080fd5b809150505b92915050565b600080821161286257600080fd5b600082848161286d57fe5b0490508091505092915050565b60008082840190508381101561288f57600080fd5b8091505092915050565b60006128b36015805490508361285490919063ffffffff16565b905060008090505b6015805490508110156129a7576000601582815481106128d757fe5b9060005260206000200160009054906101000a900473ffffffffffffffffffffffffffffffffffffffff16905061295683601660008473ffffffffffffffffffffffffffffffffffffffff1673ffffffffffffffffffffffffffffffffffffffff1681526020019081526020016000205461287a90919063ffffffff16565b601660008373ffffffffffffffffffffffffffffffffffffffff1673ffffffffffffffffffffffffffffffffffffffff168152602001908152602001600020819055505080806001019150506128bb565b505050565b604051806080016040528060008152602001600081526020016000815260200160008152509056fea265627a7a72315820b2b48b17410ae5f1b085afe3b12a6ee4b923a5173c77a50ae22059687769bd2e64736f6c63430005100032",
  "source": "pragma solidity >= 0.5.0;\n\nimport \"./BasToken.sol\";\nimport \"./owned.sol\";\n\ncontract BasMiner is owned{\n    using SafeMath for uint256;\n\n    uint256 public constant MainNodeSize = 64;\n    \n    uint8 public constant AllocationRoot = 0;\n    uint8 public constant AllocationSub = 1;\n    uint8 public constant AllocationSelfSub = 2;\n    uint8 public constant AllocationCustomedSub = 3;\n    \n    struct Allocation {\n        uint256 toAdmin;\n        uint256 toBurn;\n        uint256 toMiner;\n        uint256 toRootOwner;\n    }\n\n    address public Satoshi_Nakamoto;\n    address public OANNAddress;\n    BasToken public token;\n    \n    Allocation public rootSetting;\n    Allocation public defaultSubSetting;\n    Allocation public selfSubSetting;\n    Allocation public customedSubSetting;\n\n    address[] public MainNode;\n    \n    mapping(address=>uint) public balanceOf;\n\n    constructor(address t, address team) public {\n        token = BasToken(t);\n        Satoshi_Nakamoto = team;\n        \n        rootSetting = Allocation(20, 40, 40, 0);\n        emit AllocationChanged(AllocationRoot, 20, 40, 40, 0);\n        \n        defaultSubSetting = Allocation(10, 40, 40, 10);\n        emit AllocationChanged(AllocationSub, 10, 40, 40, 10);\n        \n        selfSubSetting = Allocation(10,30,40,20);\n        emit AllocationChanged(AllocationSelfSub, 10,30,40,20);\n        \n        customedSubSetting = Allocation(10, 30, 40, 15);\n        emit AllocationChanged(AllocationCustomedSub, 10, 30, 40, 15);\n    }\n\n    event Receipt(bytes32 receiptNumber, uint256 amout, uint8 allocation, address from);\n    event Withdraw(address drawer, uint256 amout);\n    event AllocationChanged(uint8 allocateType, uint256 toAdmin, uint256 toBurn, uint256 toMiner, uint256 toRoot);\n    event MinerAdd(address miner);\n    event MinerRemove(address miner);\n    event MinerReplace(address oldMiner, address newMiner);\n    \n    function GetAllMainNodeAddress() public view returns(address[] memory){\n        return MainNode;\n    }\n    \n    function _a_emergencyWithdraw(address to,uint256 no) Admin external{\n        token.transfer(to, no);\n    }\n\n    function _a_changeRootSetting(uint256 admin, uint256 burn, uint256 miner) Admin external{\n        require ((admin + burn + miner) <= 100,\"error sum up\");\n        rootSetting.toAdmin = admin;\n        rootSetting.toBurn = burn;\n        rootSetting.toMiner = miner;\n        rootSetting.toRootOwner = 0;\n        emit AllocationChanged(AllocationRoot, admin, burn, miner, 0);\n    }\n    \n    function _a_changeDefaultSubSetting(uint256 admin, uint256 burn, uint256 miner, uint256 root) Admin external{\n        require ((admin + burn + miner + root) <= 100,\"error sum up\");\n        defaultSubSetting.toAdmin = admin;\n        defaultSubSetting.toBurn = burn;\n        defaultSubSetting.toMiner = miner;\n        defaultSubSetting.toRootOwner = root;\n        emit AllocationChanged(AllocationSub, admin, burn, miner, root);\n    }\n    \n    function _a_changeSelfSubSetting(uint256 admin, uint256 burn, uint256 miner, uint256 root) Admin external {\n        require ((admin + burn + miner + root) <= 100,\"error sum up\");\n        selfSubSetting.toAdmin = admin;\n        selfSubSetting.toBurn = burn;\n        selfSubSetting.toMiner = miner;\n        selfSubSetting.toRootOwner = root;\n        emit AllocationChanged(AllocationSelfSub, admin, burn, miner, root);\n    }\n    \n    function _a_changeCustomedSubSetting(uint256 admin, uint256 burn, uint256 miner, uint256 root) Admin external{\n        require ((admin + burn + miner + root) <= 100,\"error sum up\");\n        customedSubSetting.toAdmin = admin;\n        customedSubSetting.toBurn = burn;\n        customedSubSetting.toMiner = miner;\n        customedSubSetting.toRootOwner = root;\n        emit AllocationChanged(AllocationCustomedSub, admin, burn, miner, root);\n    }\n\n    function _a_addMiner(address m) Admin external{\n        MainNode.push(m);\n        require(MainNode.length <= MainNodeSize,\"nodes is full\");\n        emit MinerAdd(m);\n    }\n\n    function _a_replaceMiner(address oldM, address newM) Admin external{\n        require(MainNode.length > 0,\"nodes empty\");\n\n        for (uint256 i = 0; i < MainNode.length; i++){\n            if (MainNode[i] == oldM){\n                MainNode[i] = newM;\n                break;\n            }\n        }\n        emit MinerReplace(oldM, newM);\n    }\n\n    function _a_removeMiner(address miner) Admin external{\n        require(MainNode.length > 0,\"nodes empty\");\n        for (uint256 i = 0; i < MainNode.length; i++){\n            if (MainNode[i] == miner){\n                MainNode[i] = MainNode[MainNode.length - 1];\n                delete MainNode[MainNode.length - 1];\n                break;\n            }\n        }\n        emit MinerRemove(miner);\n    }\n\n    function withdraw() external {\n        uint256 balance = balanceOf[msg.sender];\n        require(balance > 0,\"balance is 0\");\n        token.transfer(msg.sender, balance);\n        balanceOf[msg.sender] = 0;\n        \n        if (msg.sender == Satoshi_Nakamoto){\n            token.burn(balanceOf[address(0)]);\n            balanceOf[address(0)] = 0;\n        }\n        \n        emit Withdraw(msg.sender, balance);\n    }\n\n\n    function _c_allocateProfit(uint256 cost, uint8 allocateType, bytes32 receiptNumber, address rootOwner) ContractCaller external {\n        require(cost > 0 , \"cost is 0\");\n        \n        uint256 burnSum;\n        uint256 minerSum;\n        uint256 rootSum;\n        Allocation memory setting;\n        \n        \n        if (allocateType==AllocationRoot){\n            setting = rootSetting;\n        }else if (allocateType == AllocationSub){\n            setting = defaultSubSetting;\n        }else if (allocateType == AllocationSelfSub){\n            setting = selfSubSetting;\n        }else if (allocateType == AllocationCustomedSub){\n            setting = customedSubSetting;\n        }else{\n            revert(\"undefined allocate type\");    \n        }\n        \n        if (setting.toBurn > 0){\n            burnSum = cost.mul(setting.toBurn).div(100);\n            balanceOf[address(0)] = balanceOf[address(0)].add(burnSum);\n        }\n\n        if (setting.toMiner > 0 && MainNode.length > 0){\n            minerSum = cost.mul(setting.toMiner).div(100);\n            _splitToMiner(minerSum);\n        }\n\n        if (setting.toRootOwner > 0){\n            rootSum = cost.mul(setting.toRootOwner).div(100);\n            balanceOf[rootOwner] = balanceOf[rootOwner].add(rootSum);\n        }\n        \n        balanceOf[Satoshi_Nakamoto] = balanceOf[Satoshi_Nakamoto].add(cost - burnSum - minerSum - rootSum);\n        \n        emit Receipt(receiptNumber, cost, allocateType, msg.sender);\n    } \n    \n    function _splitToMiner(uint256 sum) internal{\n\n        uint256 one_porift = sum.div(MainNode.length);\n        for (uint256 i = 0; i < MainNode.length; i++){\n            address miner_address = MainNode[i];\n            balanceOf[miner_address] = balanceOf[miner_address].add(one_porift);\n        }\n    }\n    \n}",
  "sourcePath": "/Users/mini2/workspace/truffle suite/baschain/contracts/BasMiner.sol",
  "compiler": {
    "name": "solc",
    "version": "0.5.16+commit.9c3226ce.Emscripten.clang"
  },
  "schemaVersion": "3.0.23",
  "updatedAt": "2020-04-09T02:30:51.387Z",
  "networkType": "ethereum",
  "devdoc": {
    "methods": {}
  },
  "userdoc": {
    "methods": {}
  }
}