{
  "contractName": "BasOANN",
  "abi": [
    {
      "inputs": [
        {
          "internalType": "address",
          "name": "_t",
          "type": "address"
        },
        {
          "internalType": "address",
          "name": "_o",
          "type": "address"
        },
        {
          "internalType": "address",
          "name": "_a",
          "type": "address"
        },
        {
          "internalType": "address",
          "name": "_d",
          "type": "address"
        },
        {
          "internalType": "address",
          "name": "_m",
          "type": "address"
        },
        {
          "internalType": "address",
          "name": "_r",
          "type": "address"
        }
      ],
      "payable": false,
      "stateMutability": "nonpayable",
      "type": "constructor"
    },
    {
      "anonymous": false,
      "inputs": [
        {
          "indexed": false,
          "internalType": "address",
          "name": "payer",
          "type": "address"
        },
        {
          "indexed": false,
          "internalType": "bytes",
          "name": "name",
          "type": "bytes"
        },
        {
          "indexed": false,
          "internalType": "string",
          "name": "option",
          "type": "string"
        },
        {
          "indexed": false,
          "internalType": "uint256",
          "name": "amount",
          "type": "uint256"
        },
        {
          "indexed": false,
          "internalType": "bytes32",
          "name": "receipt",
          "type": "bytes32"
        }
      ],
      "name": "Paid",
      "type": "event"
    },
    {
      "anonymous": false,
      "inputs": [],
      "name": "SettingChanged",
      "type": "event"
    },
    {
      "constant": true,
      "inputs": [],
      "name": "AROOT_GAS",
      "outputs": [
        {
          "internalType": "uint256",
          "name": "",
          "type": "uint256"
        }
      ],
      "payable": false,
      "stateMutability": "view",
      "type": "function"
    },
    {
      "constant": true,
      "inputs": [],
      "name": "BROOT_GAS",
      "outputs": [
        {
          "internalType": "uint256",
          "name": "",
          "type": "uint256"
        }
      ],
      "payable": false,
      "stateMutability": "view",
      "type": "function"
    },
    {
      "constant": true,
      "inputs": [],
      "name": "CUSTOMED_PRICE_GAS",
      "outputs": [
        {
          "internalType": "uint256",
          "name": "",
          "type": "uint256"
        }
      ],
      "payable": false,
      "stateMutability": "view",
      "type": "function"
    },
    {
      "constant": true,
      "inputs": [],
      "name": "MAX_YEAR",
      "outputs": [
        {
          "internalType": "uint256",
          "name": "",
          "type": "uint256"
        }
      ],
      "payable": false,
      "stateMutability": "view",
      "type": "function"
    },
    {
      "constant": true,
      "inputs": [],
      "name": "RARE_TYPE_LENGTH",
      "outputs": [
        {
          "internalType": "uint256",
          "name": "",
          "type": "uint256"
        }
      ],
      "payable": false,
      "stateMutability": "view",
      "type": "function"
    },
    {
      "constant": true,
      "inputs": [],
      "name": "SUB_GAS",
      "outputs": [
        {
          "internalType": "uint256",
          "name": "",
          "type": "uint256"
        }
      ],
      "payable": false,
      "stateMutability": "view",
      "type": "function"
    },
    {
      "constant": false,
      "inputs": [
        {
          "internalType": "address",
          "name": "newOwner",
          "type": "address"
        }
      ],
      "name": "_a_changeAdmin",
      "outputs": [],
      "payable": false,
      "stateMutability": "nonpayable",
      "type": "function"
    },
    {
      "constant": false,
      "inputs": [
        {
          "internalType": "address",
          "name": "conAddr",
          "type": "address"
        }
      ],
      "name": "_a_changeContract",
      "outputs": [],
      "payable": false,
      "stateMutability": "nonpayable",
      "type": "function"
    },
    {
      "constant": true,
      "inputs": [],
      "name": "admin",
      "outputs": [
        {
          "internalType": "address",
          "name": "",
          "type": "address"
        }
      ],
      "payable": false,
      "stateMutability": "view",
      "type": "function"
    },
    {
      "constant": true,
      "inputs": [],
      "name": "contractCaller",
      "outputs": [
        {
          "internalType": "address",
          "name": "",
          "type": "address"
        }
      ],
      "payable": false,
      "stateMutability": "view",
      "type": "function"
    },
    {
      "constant": false,
      "inputs": [
        {
          "internalType": "uint256",
          "name": "newGas",
          "type": "uint256"
        }
      ],
      "name": "setARootGas",
      "outputs": [],
      "payable": false,
      "stateMutability": "nonpayable",
      "type": "function"
    },
    {
      "constant": false,
      "inputs": [
        {
          "internalType": "uint256",
          "name": "newGas",
          "type": "uint256"
        }
      ],
      "name": "setBRootGas",
      "outputs": [],
      "payable": false,
      "stateMutability": "nonpayable",
      "type": "function"
    },
    {
      "constant": false,
      "inputs": [
        {
          "internalType": "uint256",
          "name": "newGas",
          "type": "uint256"
        }
      ],
      "name": "setSubGas",
      "outputs": [],
      "payable": false,
      "stateMutability": "nonpayable",
      "type": "function"
    },
    {
      "constant": false,
      "inputs": [
        {
          "internalType": "uint256",
          "name": "newGas",
          "type": "uint256"
        }
      ],
      "name": "setCustomedPriceGas",
      "outputs": [],
      "payable": false,
      "stateMutability": "nonpayable",
      "type": "function"
    },
    {
      "constant": false,
      "inputs": [
        {
          "internalType": "uint256",
          "name": "year",
          "type": "uint256"
        }
      ],
      "name": "setMaxYear",
      "outputs": [],
      "payable": false,
      "stateMutability": "nonpayable",
      "type": "function"
    },
    {
      "constant": false,
      "inputs": [
        {
          "internalType": "uint8",
          "name": "len",
          "type": "uint8"
        }
      ],
      "name": "setRareTypeLength",
      "outputs": [],
      "payable": false,
      "stateMutability": "nonpayable",
      "type": "function"
    },
    {
      "constant": true,
      "inputs": [],
      "name": "checkAssociatedContractAddress",
      "outputs": [
        {
          "internalType": "address",
          "name": "BasToken",
          "type": "address"
        },
        {
          "internalType": "address",
          "name": "BasOwnership",
          "type": "address"
        },
        {
          "internalType": "address",
          "name": "BasAsset",
          "type": "address"
        },
        {
          "internalType": "address",
          "name": "BasDNS",
          "type": "address"
        },
        {
          "internalType": "address",
          "name": "BasMiner",
          "type": "address"
        },
        {
          "internalType": "address",
          "name": "BasRule",
          "type": "address"
        }
      ],
      "payable": false,
      "stateMutability": "view",
      "type": "function"
    },
    {
      "constant": true,
      "inputs": [
        {
          "internalType": "uint8",
          "name": "y",
          "type": "uint8"
        }
      ],
      "name": "validDuration",
      "outputs": [
        {
          "internalType": "bool",
          "name": "",
          "type": "bool"
        }
      ],
      "payable": false,
      "stateMutability": "view",
      "type": "function"
    },
    {
      "constant": true,
      "inputs": [
        {
          "internalType": "bytes",
          "name": "name",
          "type": "bytes"
        },
        {
          "internalType": "bool",
          "name": "isCustomed",
          "type": "bool"
        },
        {
          "internalType": "uint8",
          "name": "durationInYear",
          "type": "uint8"
        }
      ],
      "name": "evalueRootPrice",
      "outputs": [
        {
          "internalType": "bytes32",
          "name": "nameHash",
          "type": "bytes32"
        },
        {
          "internalType": "bool",
          "name": "isValid",
          "type": "bool"
        },
        {
          "internalType": "uint256",
          "name": "cost",
          "type": "uint256"
        },
        {
          "internalType": "bool",
          "name": "exist",
          "type": "bool"
        }
      ],
      "payable": false,
      "stateMutability": "view",
      "type": "function"
    },
    {
      "constant": true,
      "inputs": [
        {
          "internalType": "bytes",
          "name": "rName",
          "type": "bytes"
        },
        {
          "internalType": "bytes",
          "name": "sName",
          "type": "bytes"
        },
        {
          "internalType": "uint8",
          "name": "durationInYear",
          "type": "uint8"
        }
      ],
      "name": "evalueSubPrice",
      "outputs": [
        {
          "internalType": "bytes32",
          "name": "nameHash",
          "type": "bytes32"
        },
        {
          "internalType": "bytes",
          "name": "totalName",
          "type": "bytes"
        },
        {
          "internalType": "bytes32",
          "name": "rootHash",
          "type": "bytes32"
        },
        {
          "internalType": "bool",
          "name": "isValid",
          "type": "bool"
        },
        {
          "internalType": "address",
          "name": "rootOwner",
          "type": "address"
        },
        {
          "internalType": "bool",
          "name": "isCustomed",
          "type": "bool"
        },
        {
          "internalType": "uint256",
          "name": "cost",
          "type": "uint256"
        },
        {
          "internalType": "bool",
          "name": "exist",
          "type": "bool"
        }
      ],
      "payable": false,
      "stateMutability": "view",
      "type": "function"
    },
    {
      "constant": false,
      "inputs": [
        {
          "internalType": "bytes",
          "name": "name",
          "type": "bytes"
        },
        {
          "internalType": "bool",
          "name": "isOpen",
          "type": "bool"
        },
        {
          "internalType": "bool",
          "name": "isCustomed",
          "type": "bool"
        },
        {
          "internalType": "uint256",
          "name": "cusPrice",
          "type": "uint256"
        },
        {
          "internalType": "uint8",
          "name": "durationInYear",
          "type": "uint8"
        }
      ],
      "name": "registerRoot",
      "outputs": [],
      "payable": false,
      "stateMutability": "nonpayable",
      "type": "function"
    },
    {
      "constant": false,
      "inputs": [
        {
          "internalType": "bytes",
          "name": "rName",
          "type": "bytes"
        },
        {
          "internalType": "bytes",
          "name": "sName",
          "type": "bytes"
        },
        {
          "internalType": "uint8",
          "name": "durationInYear",
          "type": "uint8"
        }
      ],
      "name": "registerSub",
      "outputs": [],
      "payable": false,
      "stateMutability": "nonpayable",
      "type": "function"
    },
    {
      "constant": false,
      "inputs": [
        {
          "internalType": "bytes",
          "name": "name",
          "type": "bytes"
        },
        {
          "internalType": "uint8",
          "name": "durationInYear",
          "type": "uint8"
        }
      ],
      "name": "recharge",
      "outputs": [],
      "payable": false,
      "stateMutability": "nonpayable",
      "type": "function"
    },
    {
      "constant": false,
      "inputs": [
        {
          "internalType": "bytes32",
          "name": "nameHash",
          "type": "bytes32"
        },
        {
          "internalType": "uint256",
          "name": "price",
          "type": "uint256"
        }
      ],
      "name": "openCustomedPrice",
      "outputs": [],
      "payable": false,
      "stateMutability": "nonpayable",
      "type": "function"
    },
    {
      "constant": false,
      "inputs": [
        {
          "internalType": "bytes32",
          "name": "nameHash",
          "type": "bytes32"
        }
      ],
      "name": "closeCustomedPrice",
      "outputs": [],
      "payable": false,
      "stateMutability": "nonpayable",
      "type": "function"
    },
    {
      "constant": false,
      "inputs": [
        {
          "internalType": "bytes32",
          "name": "nameHash",
          "type": "bytes32"
        }
      ],
      "name": "openToPublic",
      "outputs": [],
      "payable": false,
      "stateMutability": "nonpayable",
      "type": "function"
    },
    {
      "constant": false,
      "inputs": [
        {
          "internalType": "bytes32",
          "name": "nameHash",
          "type": "bytes32"
        }
      ],
      "name": "closeToPublic",
      "outputs": [],
      "payable": false,
      "stateMutability": "nonpayable",
      "type": "function"
    },
    {
      "constant": false,
      "inputs": [
        {
          "internalType": "bytes32",
          "name": "nameHash",
          "type": "bytes32"
        },
        {
          "internalType": "bytes4",
          "name": "ipv4",
          "type": "bytes4"
        },
        {
          "internalType": "bytes16",
          "name": "ipv6",
          "type": "bytes16"
        },
        {
          "internalType": "bytes",
          "name": "bca",
          "type": "bytes"
        },
        {
          "internalType": "bytes",
          "name": "opData",
          "type": "bytes"
        },
        {
          "internalType": "string",
          "name": "aliasName",
          "type": "string"
        }
      ],
      "name": "setRecord",
      "outputs": [],
      "payable": false,
      "stateMutability": "nonpayable",
      "type": "function"
    }
  ],
  "bytecode": "0x6080604052681b1ae4d6e2ef5000006002556801158e460913d00000600355673782dace9d90000060045568056bc75e2d63100000600555600560065560066007553480156200004e57600080fd5b5060405162005f4d38038062005f4d833981810160405260c08110156200007457600080fd5b81019080805190602001909291908051906020019092919080519060200190929190805190602001909291908051906020019092919080519060200190929190505050336000806101000a81548173ffffffffffffffffffffffffffffffffffffffff021916908373ffffffffffffffffffffffffffffffffffffffff16021790555085600860006101000a81548173ffffffffffffffffffffffffffffffffffffffff021916908373ffffffffffffffffffffffffffffffffffffffff16021790555084600960006101000a81548173ffffffffffffffffffffffffffffffffffffffff021916908373ffffffffffffffffffffffffffffffffffffffff16021790555083600a60006101000a81548173ffffffffffffffffffffffffffffffffffffffff021916908373ffffffffffffffffffffffffffffffffffffffff16021790555082600b60006101000a81548173ffffffffffffffffffffffffffffffffffffffff021916908373ffffffffffffffffffffffffffffffffffffffff16021790555081600c60006101000a81548173ffffffffffffffffffffffffffffffffffffffff021916908373ffffffffffffffffffffffffffffffffffffffff16021790555080600d60006101000a81548173ffffffffffffffffffffffffffffffffffffffff021916908373ffffffffffffffffffffffffffffffffffffffff160217905550505050505050615cba80620002936000396000f3fe608060405234801561001057600080fd5b50600436106101c45760003560e01c80639c626de4116100f9578063d0f0b43d11610097578063ee9a512a11610071578063ee9a512a14610c65578063f851a44014610d40578063fa1826bb14610d8a578063fcb2683014610da8576101c4565b8063d0f0b43d14610b04578063e4ede0c514610b32578063ed26e5ae14610c37576101c4565b8063a59ea829116100d3578063a59ea82914610a04578063a7a6907b14610a22578063b84f5f2014610a50578063c0bd516d14610ad6576101c4565b80639c626de41461085f578063a23a72451461088d578063a3e0c839146108bb576101c4565b8063536acc1c1161016657806361c9511e1161014057806361c9511e1461073757806370a1495c14610755578063733c1950146107fd578063789dba4f14610841576101c4565b8063536acc1c146106a157806354cf428a146106bf5780636000e09914610709576101c4565b806330ffb316116101a257806330ffb316146102875780633834ae56146102b55780633d04f2fb14610428578063413e637d14610460576101c4565b806305790fd1146101c95780631062f6cc146101fa5780632b1e49e41461023e575b600080fd5b6101f8600480360360208110156101df57600080fd5b81019080803560ff169060200190929190505050610dc6565b005b61023c6004803603602081101561021057600080fd5b81019080803573ffffffffffffffffffffffffffffffffffffffff169060200190929190505050610ec1565b005b61026d6004803603602081101561025457600080fd5b81019080803560ff169060200190929190505050610fc6565b604051808215151515815260200191505060405180910390f35b6102b36004803603602081101561029d57600080fd5b8101908080359060200190929190505050610fe7565b005b610426600480360360c08110156102cb57600080fd5b810190808035906020019092919080357bffffffffffffffffffffffffffffffffffffffffffffffffffffffff1916906020019092919080356fffffffffffffffffffffffffffffffff191690602001909291908035906020019064010000000081111561033857600080fd5b82018360208201111561034a57600080fd5b8035906020019184600183028401116401000000008311171561036c57600080fd5b90919293919293908035906020019064010000000081111561038d57600080fd5b82018360208201111561039f57600080fd5b803590602001918460018302840111640100000000831117156103c157600080fd5b9091929391929390803590602001906401000000008111156103e257600080fd5b8201836020820111156103f457600080fd5b8035906020019184600183028401116401000000008311171561041657600080fd5b90919293919293905050506110df565b005b61045e6004803603604081101561043e57600080fd5b8101908080359060200190929190803590602001909291905050506113dd565b005b6105bd6004803603606081101561047657600080fd5b810190808035906020019064010000000081111561049357600080fd5b8201836020820111156104a557600080fd5b803590602001918460018302840111640100000000831117156104c757600080fd5b91908080601f016020809104026020016040519081016040528093929190818152602001838380828437600081840152601f19601f8201169050808301925050505050505091929192908035906020019064010000000081111561052a57600080fd5b82018360208201111561053c57600080fd5b8035906020019184600183028401116401000000008311171561055e57600080fd5b91908080601f016020809104026020016040519081016040528093929190818152602001838380828437600081840152601f19601f820116905080830192505050505050509192919290803560ff169060200190929190505050611b40565b6040518089815260200180602001888152602001871515151581526020018673ffffffffffffffffffffffffffffffffffffffff1673ffffffffffffffffffffffffffffffffffffffff1681526020018515151515815260200184815260200183151515158152602001828103825289818151815260200191508051906020019080838360005b8381101561065f578082015181840152602081019050610644565b50505050905090810190601f16801561068c5780820380516001836020036101000a031916815260200191505b50995050505050505050505060405180910390f35b6106a9612634565b6040518082815260200191505060405180910390f35b6106c761263a565b604051808273ffffffffffffffffffffffffffffffffffffffff1673ffffffffffffffffffffffffffffffffffffffff16815260200191505060405180910390f35b6107356004803603602081101561071f57600080fd5b8101908080359060200190929190505050612660565b005b61073f612758565b6040518082815260200191505060405180910390f35b6107fb600480360360a081101561076b57600080fd5b810190808035906020019064010000000081111561078857600080fd5b82018360208201111561079a57600080fd5b803590602001918460018302840111640100000000831117156107bc57600080fd5b909192939192939080351515906020019092919080351515906020019092919080359060200190929190803560ff16906020019092919050505061275e565b005b61083f6004803603602081101561081357600080fd5b81019080803573ffffffffffffffffffffffffffffffffffffffff169060200190929190505050612f2f565b005b610849613035565b6040518082815260200191505060405180910390f35b61088b6004803603602081101561087557600080fd5b810190808035906020019092919050505061303b565b005b6108b9600480360360208110156108a357600080fd5b8101908080359060200190929190505050613133565b005b6108c361322b565b604051808773ffffffffffffffffffffffffffffffffffffffff1673ffffffffffffffffffffffffffffffffffffffff1681526020018673ffffffffffffffffffffffffffffffffffffffff1673ffffffffffffffffffffffffffffffffffffffff1681526020018573ffffffffffffffffffffffffffffffffffffffff1673ffffffffffffffffffffffffffffffffffffffff1681526020018473ffffffffffffffffffffffffffffffffffffffff1673ffffffffffffffffffffffffffffffffffffffff1681526020018373ffffffffffffffffffffffffffffffffffffffff1673ffffffffffffffffffffffffffffffffffffffff1681526020018273ffffffffffffffffffffffffffffffffffffffff1673ffffffffffffffffffffffffffffffffffffffff168152602001965050505050505060405180910390f35b610a0c61331a565b6040518082815260200191505060405180910390f35b610a4e60048036036020811015610a3857600080fd5b8101908080359060200190929190505050613320565b005b610ad460048036036040811015610a6657600080fd5b8101908080359060200190640100000000811115610a8357600080fd5b820183602082011115610a9557600080fd5b80359060200191846001830284011164010000000083111715610ab757600080fd5b9091929391929390803560ff169060200190929190505050613418565b005b610b0260048036036020811015610aec57600080fd5b8101908080359060200190929190505050614160565b005b610b3060048036036020811015610b1a57600080fd5b81019080803590602001909291905050506144ff565b005b610c0460048036036060811015610b4857600080fd5b8101908080359060200190640100000000811115610b6557600080fd5b820183602082011115610b7757600080fd5b80359060200191846001830284011164010000000083111715610b9957600080fd5b91908080601f016020809104026020016040519081016040528093929190818152602001838380828437600081840152601f19601f820116905080830192505050505050509192919290803515159060200190929190803560ff16906020019092919050505061489e565b60405180858152602001841515151581526020018381526020018215151515815260200194505050505060405180910390f35b610c6360048036036020811015610c4d57600080fd5b8101908080359060200190929190505050614cd2565b005b610d3e60048036036060811015610c7b57600080fd5b8101908080359060200190640100000000811115610c9857600080fd5b820183602082011115610caa57600080fd5b80359060200191846001830284011164010000000083111715610ccc57600080fd5b909192939192939080359060200190640100000000811115610ced57600080fd5b820183602082011115610cff57600080fd5b80359060200191846001830284011164010000000083111715610d2157600080fd5b9091929391929390803560ff169060200190929190505050615071565b005b610d486154ae565b604051808273ffffffffffffffffffffffffffffffffffffffff1673ffffffffffffffffffffffffffffffffffffffff16815260200191505060405180910390f35b610d926154d3565b6040518082815260200191505060405180910390f35b610db06154d9565b6040518082815260200191505060405180910390f35b6000809054906101000a900473ffffffffffffffffffffffffffffffffffffffff1673ffffffffffffffffffffffffffffffffffffffff163373ffffffffffffffffffffffffffffffffffffffff1614610e88576040517f08c379a000000000000000000000000000000000000000000000000000000000815260040180806020018281038252600a8152602001807f61646d696e206f6e6c790000000000000000000000000000000000000000000081525060200191505060405180910390fd5b8060ff166007819055507f5ffe75daa1ede2c9bd288845d6ad07ff296949679fe3f8b1ede2e14ce414c51c60405160405180910390a150565b6000809054906101000a900473ffffffffffffffffffffffffffffffffffffffff1673ffffffffffffffffffffffffffffffffffffffff163373ffffffffffffffffffffffffffffffffffffffff1614610f83576040517f08c379a000000000000000000000000000000000000000000000000000000000815260040180806020018281038252600a8152602001807f61646d696e206f6e6c790000000000000000000000000000000000000000000081525060200191505060405180910390fd5b806000806101000a81548173ffffffffffffffffffffffffffffffffffffffff021916908373ffffffffffffffffffffffffffffffffffffffff16021790555050565b60006006548260ff1611158015610fe0575060008260ff16115b9050919050565b6000809054906101000a900473ffffffffffffffffffffffffffffffffffffffff1673ffffffffffffffffffffffffffffffffffffffff163373ffffffffffffffffffffffffffffffffffffffff16146110a9576040517f08c379a000000000000000000000000000000000000000000000000000000000815260040180806020018281038252600a8152602001807f61646d696e206f6e6c790000000000000000000000000000000000000000000081525060200191505060405180910390fd5b806005819055507f5ffe75daa1ede2c9bd288845d6ad07ff296949679fe3f8b1ede2e14ce414c51c60405160405180910390a150565b88600960009054906101000a900473ffffffffffffffffffffffffffffffffffffffff1673ffffffffffffffffffffffffffffffffffffffff16630407abec82336040518363ffffffff1660e01b8152600401808381526020018273ffffffffffffffffffffffffffffffffffffffff1673ffffffffffffffffffffffffffffffffffffffff1681526020019250505060206040518083038186803b15801561118757600080fd5b505afa15801561119b573d6000803e3d6000fd5b505050506040513d60208110156111b157600080fd5b8101908080519060200190929190505050611234576040517f08c379a000000000000000000000000000000000000000000000000000000000815260040180806020018281038252600a8152602001807f6f776e6572206f6e6c790000000000000000000000000000000000000000000081525060200191505060405180910390fd5b600b60009054906101000a900473ffffffffffffffffffffffffffffffffffffffff1673ffffffffffffffffffffffffffffffffffffffff16631a004ea28b8b8b8b8b8b8b8b8b6040518a63ffffffff1660e01b8152600401808a8152602001897bffffffffffffffffffffffffffffffffffffffffffffffffffffffff19167bffffffffffffffffffffffffffffffffffffffffffffffffffffffff19168152602001886fffffffffffffffffffffffffffffffff19166fffffffffffffffffffffffffffffffff1916815260200180602001806020018060200184810384528a8a82818152602001925080828437600081840152601f19601f8201169050808301925050508481038352888882818152602001925080828437600081840152601f19601f8201169050808301925050508481038252868682818152602001925080828437600081840152601f19601f8201169050808301925050509c50505050505050505050505050600060405180830381600087803b1580156113b957600080fd5b505af11580156113cd573d6000803e3d6000fd5b5050505050505050505050505050565b81600960009054906101000a900473ffffffffffffffffffffffffffffffffffffffff1673ffffffffffffffffffffffffffffffffffffffff16630407abec82336040518363ffffffff1660e01b8152600401808381526020018273ffffffffffffffffffffffffffffffffffffffff1673ffffffffffffffffffffffffffffffffffffffff1681526020019250505060206040518083038186803b15801561148557600080fd5b505afa158015611499573d6000803e3d6000fd5b505050506040513d60208110156114af57600080fd5b8101908080519060200190929190505050611532576040517f08c379a000000000000000000000000000000000000000000000000000000000815260040180806020018281038252600a8152602001807f6f776e6572206f6e6c790000000000000000000000000000000000000000000081525060200191505060405180910390fd5b600454821161158c576040517f08c379a0000000000000000000000000000000000000000000000000000000008152600401808060200182810382526022815260200180615c646022913960400191505060405180910390fd5b600860009054906101000a900473ffffffffffffffffffffffffffffffffffffffff1673ffffffffffffffffffffffffffffffffffffffff166323b872dd33600c60009054906101000a900473ffffffffffffffffffffffffffffffffffffffff166005546040518463ffffffff1660e01b8152600401808473ffffffffffffffffffffffffffffffffffffffff1673ffffffffffffffffffffffffffffffffffffffff1681526020018373ffffffffffffffffffffffffffffffffffffffff1673ffffffffffffffffffffffffffffffffffffffff1681526020018281526020019350505050602060405180830381600087803b15801561168d57600080fd5b505af11580156116a1573d6000803e3d6000fd5b505050506040513d60208110156116b757600080fd5b810190808051906020019092919050505061173a576040517f08c379a00000000000000000000000000000000000000000000000000000000081526004018080602001828103825260148152602001807f6e6f7420656e6f75676820616c6c6f77616e636500000000000000000000000081525060200191505060405180910390fd5b6060600a60009054906101000a900473ffffffffffffffffffffffffffffffffffffffff1673ffffffffffffffffffffffffffffffffffffffff166383b8202f856040518263ffffffff1660e01b81526004018082815260200191505060006040518083038186803b1580156117af57600080fd5b505afa1580156117c3573d6000803e3d6000fd5b505050506040513d6000823e3d601f19601f8201168201806040525060808110156117ed57600080fd5b810190808051604051939291908464010000000082111561180d57600080fd5b8382019150602082018581111561182357600080fd5b825186600182028301116401000000008211171561184057600080fd5b8083526020830192505050908051906020019080838360005b83811015611874578082015181840152602081019050611859565b50505050905090810190601f1680156118a15780820380516001836020036101000a031916815260200191505b506040526020018051906020019092919080519060200190929190805190602001909291905050505050509050600c60009054906101000a900473ffffffffffffffffffffffffffffffffffffffff1673ffffffffffffffffffffffffffffffffffffffff16636f3cb28f600554600c60009054906101000a900473ffffffffffffffffffffffffffffffffffffffff1673ffffffffffffffffffffffffffffffffffffffff166341e9a9fe6040518163ffffffff1660e01b815260040160206040518083038186803b15801561197757600080fd5b505afa15801561198b573d6000803e3d6000fd5b505050506040513d60208110156119a157600080fd5b81019080805190602001909291905050506119f533866040518060400160405280601181526020017f4f50454e435553544f4d454450524943450000000000000000000000000000008152506005546154df565b60006040518563ffffffff1660e01b8152600401808581526020018460ff1660ff1681526020018381526020018273ffffffffffffffffffffffffffffffffffffffff1673ffffffffffffffffffffffffffffffffffffffff168152602001945050505050600060405180830381600087803b158015611a7457600080fd5b505af1158015611a88573d6000803e3d6000fd5b50505050600a60009054906101000a900473ffffffffffffffffffffffffffffffffffffffff1673ffffffffffffffffffffffffffffffffffffffff1663514bfdca85600180876040518563ffffffff1660e01b8152600401808581526020018415151515815260200183151515158152602001828152602001945050505050600060405180830381600087803b158015611b2257600080fd5b505af1158015611b36573d6000803e3d6000fd5b5050505050505050565b60006060600080600080600080600a60009054906101000a900473ffffffffffffffffffffffffffffffffffffffff1673ffffffffffffffffffffffffffffffffffffffff1663c38219728b8d6040518363ffffffff1660e01b8152600401808060200180602001838103835285818151815260200191508051906020019080838360005b83811015611be0578082015181840152602081019050611bc5565b50505050905090810190601f168015611c0d5780820380516001836020036101000a031916815260200191505b50838103825284818151815260200191508051906020019080838360005b83811015611c46578082015181840152602081019050611c2b565b50505050905090810190601f168015611c735780820380516001836020036101000a031916815260200191505b5094505050505060206040518083038186803b158015611c9257600080fd5b505afa158015611ca6573d6000803e3d6000fd5b505050506040513d6020811015611cbc57600080fd5b81019080805190602001909291905050509750898b6040516020018083805190602001908083835b60208310611d075780518252602082019150602081019050602083039250611ce4565b6001836020036101000a038019825116818451168082178552505050505050905001807f2e0000000000000000000000000000000000000000000000000000000000000081525060010182805190602001908083835b60208310611d805780518252602082019150602081019050602083039250611d5d565b6001836020036101000a038019825116818451168082178552505050505050905001925050506040516020818303038152906040529650600a60009054906101000a900473ffffffffffffffffffffffffffffffffffffffff1673ffffffffffffffffffffffffffffffffffffffff1663bd1bd35a8c6040518263ffffffff1660e01b81526004018080602001828103825283818151815260200191508051906020019080838360005b83811015611e45578082015181840152602081019050611e2a565b50505050905090810190601f168015611e725780820380516001836020036101000a031916815260200191505b509250505060206040518083038186803b158015611e8f57600080fd5b505afa158015611ea3573d6000803e3d6000fd5b505050506040513d6020811015611eb957600080fd5b81019080805190602001909291905050509550600960009054906101000a900473ffffffffffffffffffffffffffffffffffffffff1673ffffffffffffffffffffffffffffffffffffffff16637dd56411876040518263ffffffff1660e01b81526004018082815260200191505060206040518083038186803b158015611f3f57600080fd5b505afa158015611f53573d6000803e3d6000fd5b505050506040513d6020811015611f6957600080fd5b81019080805190602001909291905050509350600960009054906101000a900473ffffffffffffffffffffffffffffffffffffffff1673ffffffffffffffffffffffffffffffffffffffff166373e8b3d4896040518263ffffffff1660e01b81526004018082815260200191505060206040518083038186803b158015611fef57600080fd5b505afa158015612003573d6000803e3d6000fd5b505050506040513d602081101561201957600080fd5b810190808051906020019092919050505090506000600d60009054906101000a900473ffffffffffffffffffffffffffffffffffffffff1673ffffffffffffffffffffffffffffffffffffffff166320d912fa8d6007546040518363ffffffff1660e01b81526004018080602001838152602001828103825284818151815260200191508051906020019080838360005b838110156120c55780820151818401526020810190506120aa565b50505050905090810190601f1680156120f25780820380516001836020036101000a031916815260200191505b509350505050604080518083038186803b15801561210f57600080fd5b505afa158015612123573d6000803e3d6000fd5b505050506040513d604081101561213957600080fd5b8101908080519060200190929190805190602001909291905050505090506000600d60009054906101000a900473ffffffffffffffffffffffffffffffffffffffff1673ffffffffffffffffffffffffffffffffffffffff16631cd0c24d8d8f516040518363ffffffff1660e01b81526004018080602001838152602001828103825284818151815260200191508051906020019080838360005b838110156121ef5780820151818401526020810190506121d4565b50505050905090810190601f16801561221c5780820380516001836020036101000a031916815260200191505b50935050505060206040518083038186803b15801561223a57600080fd5b505afa15801561224e573d6000803e3d6000fd5b505050506040513d602081101561226457600080fd5b810190808051906020019092919050505090508180156122815750805b801561229257506122918b610fc6565b5b80156123485750600960009054906101000a900473ffffffffffffffffffffffffffffffffffffffff1673ffffffffffffffffffffffffffffffffffffffff1663a87587f68b6040518263ffffffff1660e01b81526004018082815260200191505060206040518083038186803b15801561230c57600080fd5b505afa158015612320573d6000803e3d6000fd5b505050506040513d602081101561233657600080fd5b81019080805190602001909291905050505b96506000806000600a60009054906101000a900473ffffffffffffffffffffffffffffffffffffffff1673ffffffffffffffffffffffffffffffffffffffff166383b8202f8c6040518263ffffffff1660e01b81526004018082815260200191505060006040518083038186803b1580156123c257600080fd5b505afa1580156123d6573d6000803e3d6000fd5b505050506040513d6000823e3d601f19601f82011682018060405250608081101561240057600080fd5b810190808051604051939291908464010000000082111561242057600080fd5b8382019150602082018581111561243657600080fd5b825186600182028301116401000000008211171561245357600080fd5b8083526020830192505050908051906020019080838360005b8381101561248757808201518184015260208101905061246c565b50505050905090810190601f1680156124b45780820380516001836020036101000a031916815260200191505b50604052602001805190602001909291908051906020019092919080519060200190929190505050935093509350508980156125d857503373ffffffffffffffffffffffffffffffffffffffff168973ffffffffffffffffffffffffffffffffffffffff1614806125225750825b806125d75750600960009054906101000a900473ffffffffffffffffffffffffffffffffffffffff1673ffffffffffffffffffffffffffffffffffffffff1663a87587f68c6040518263ffffffff1660e01b81526004018082815260200191505060206040518083038186803b15801561259b57600080fd5b505afa1580156125af573d6000803e3d6000fd5b505050506040513d60208110156125c557600080fd5b81019080805190602001909291905050505b5b99508197508915612622578715612606576125ff8e60ff168261574990919063ffffffff16565b9650612621565b61261e8e60ff1660045461574990919063ffffffff16565b96505b5b50505050509397509397509397509397565b60055481565b600160009054906101000a900473ffffffffffffffffffffffffffffffffffffffff1681565b6000809054906101000a900473ffffffffffffffffffffffffffffffffffffffff1673ffffffffffffffffffffffffffffffffffffffff163373ffffffffffffffffffffffffffffffffffffffff1614612722576040517f08c379a000000000000000000000000000000000000000000000000000000000815260040180806020018281038252600a8152602001807f61646d696e206f6e6c790000000000000000000000000000000000000000000081525060200191505060405180910390fd5b806006819055507f5ffe75daa1ede2c9bd288845d6ad07ff296949679fe3f8b1ede2e14ce414c51c60405160405180910390a150565b60065481565b6000806000806127b38a8a8080601f016020809104026020016040519081016040528093929190818152602001838380828437600081840152601f19601f82011690508083019250505050505050888761489e565b93509350935093508261282e576040517f08c379a00000000000000000000000000000000000000000000000000000000081526004018080602001828103825260098152602001807f6e6f742076616c6964000000000000000000000000000000000000000000000081525060200191505060405180910390fd5b600860009054906101000a900473ffffffffffffffffffffffffffffffffffffffff1673ffffffffffffffffffffffffffffffffffffffff166323b872dd33600c60009054906101000a900473ffffffffffffffffffffffffffffffffffffffff16856040518463ffffffff1660e01b8152600401808473ffffffffffffffffffffffffffffffffffffffff1673ffffffffffffffffffffffffffffffffffffffff1681526020018373ffffffffffffffffffffffffffffffffffffffff1673ffffffffffffffffffffffffffffffffffffffff1681526020018281526020019350505050602060405180830381600087803b15801561292d57600080fd5b505af1158015612941573d6000803e3d6000fd5b505050506040513d602081101561295757600080fd5b81019080805190602001909291905050506129da576040517f08c379a00000000000000000000000000000000000000000000000000000000081526004018080602001828103825260148152602001807f6e6f7420656e6f75676820616c6c6f77616e636500000000000000000000000081525060200191505060405180910390fd5b600c60009054906101000a900473ffffffffffffffffffffffffffffffffffffffff1673ffffffffffffffffffffffffffffffffffffffff16636f3cb28f83600c60009054906101000a900473ffffffffffffffffffffffffffffffffffffffff1673ffffffffffffffffffffffffffffffffffffffff166341e9a9fe6040518163ffffffff1660e01b815260040160206040518083038186803b158015612a8157600080fd5b505afa158015612a95573d6000803e3d6000fd5b505050506040513d6020811015612aab57600080fd5b8101908080519060200190929190505050612b41338f8f8080601f016020809104026020016040519081016040528093929190818152602001838380828437600081840152601f19601f820116905080830192505050505050506040518060400160405280600c81526020017f5245474953544552524f4f540000000000000000000000000000000000000000815250896154df565b60006040518563ffffffff1660e01b8152600401808581526020018460ff1660ff1681526020018381526020018273ffffffffffffffffffffffffffffffffffffffff1673ffffffffffffffffffffffffffffffffffffffff168152602001945050505050600060405180830381600087803b158015612bc057600080fd5b505af1158015612bd4573d6000803e3d6000fd5b505050506000612bfc6301e133808760ff160263ffffffff164261578390919063ffffffff16565b90508115612d7f57600960009054906101000a900473ffffffffffffffffffffffffffffffffffffffff1673ffffffffffffffffffffffffffffffffffffffff166356b7f1a08633846040518463ffffffff1660e01b8152600401808481526020018373ffffffffffffffffffffffffffffffffffffffff1673ffffffffffffffffffffffffffffffffffffffff1681526020018281526020019350505050600060405180830381600087803b158015612cb557600080fd5b505af1158015612cc9573d6000803e3d6000fd5b50505050600a60009054906101000a900473ffffffffffffffffffffffffffffffffffffffff1673ffffffffffffffffffffffffffffffffffffffff1663514bfdca868b8b8b6040518563ffffffff1660e01b8152600401808581526020018415151515815260200183151515158152602001828152602001945050505050600060405180830381600087803b158015612d6257600080fd5b505af1158015612d76573d6000803e3d6000fd5b50505050612f22565b600960009054906101000a900473ffffffffffffffffffffffffffffffffffffffff1673ffffffffffffffffffffffffffffffffffffffff166333c7fb4c8633846040518463ffffffff1660e01b8152600401808481526020018373ffffffffffffffffffffffffffffffffffffffff1673ffffffffffffffffffffffffffffffffffffffff1681526020018281526020019350505050600060405180830381600087803b158015612e3057600080fd5b505af1158015612e44573d6000803e3d6000fd5b50505050600a60009054906101000a900473ffffffffffffffffffffffffffffffffffffffff1673ffffffffffffffffffffffffffffffffffffffff16636f84208d8c8c8c8c8c6040518663ffffffff1660e01b8152600401808060200185151515158152602001841515151581526020018381526020018281038252878782818152602001925080828437600081840152601f19601f8201169050808301925050509650505050505050600060405180830381600087803b158015612f0957600080fd5b505af1158015612f1d573d6000803e3d6000fd5b505050505b5050505050505050505050565b6000809054906101000a900473ffffffffffffffffffffffffffffffffffffffff1673ffffffffffffffffffffffffffffffffffffffff163373ffffffffffffffffffffffffffffffffffffffff1614612ff1576040517f08c379a000000000000000000000000000000000000000000000000000000000815260040180806020018281038252600a8152602001807f61646d696e206f6e6c790000000000000000000000000000000000000000000081525060200191505060405180910390fd5b80600160006101000a81548173ffffffffffffffffffffffffffffffffffffffff021916908373ffffffffffffffffffffffffffffffffffffffff16021790555050565b60025481565b6000809054906101000a900473ffffffffffffffffffffffffffffffffffffffff1673ffffffffffffffffffffffffffffffffffffffff163373ffffffffffffffffffffffffffffffffffffffff16146130fd576040517f08c379a000000000000000000000000000000000000000000000000000000000815260040180806020018281038252600a8152602001807f61646d696e206f6e6c790000000000000000000000000000000000000000000081525060200191505060405180910390fd5b806002819055507f5ffe75daa1ede2c9bd288845d6ad07ff296949679fe3f8b1ede2e14ce414c51c60405160405180910390a150565b6000809054906101000a900473ffffffffffffffffffffffffffffffffffffffff1673ffffffffffffffffffffffffffffffffffffffff163373ffffffffffffffffffffffffffffffffffffffff16146131f5576040517f08c379a000000000000000000000000000000000000000000000000000000000815260040180806020018281038252600a8152602001807f61646d696e206f6e6c790000000000000000000000000000000000000000000081525060200191505060405180910390fd5b806003819055507f5ffe75daa1ede2c9bd288845d6ad07ff296949679fe3f8b1ede2e14ce414c51c60405160405180910390a150565b600080600080600080600860009054906101000a900473ffffffffffffffffffffffffffffffffffffffff169550600960009054906101000a900473ffffffffffffffffffffffffffffffffffffffff169450600a60009054906101000a900473ffffffffffffffffffffffffffffffffffffffff169350600b60009054906101000a900473ffffffffffffffffffffffffffffffffffffffff169250600c60009054906101000a900473ffffffffffffffffffffffffffffffffffffffff169150600d60009054906101000a900473ffffffffffffffffffffffffffffffffffffffff169050909192939495565b60075481565b6000809054906101000a900473ffffffffffffffffffffffffffffffffffffffff1673ffffffffffffffffffffffffffffffffffffffff163373ffffffffffffffffffffffffffffffffffffffff16146133e2576040517f08c379a000000000000000000000000000000000000000000000000000000000815260040180806020018281038252600a8152602001807f61646d696e206f6e6c790000000000000000000000000000000000000000000081525060200191505060405180910390fd5b806004819055507f5ffe75daa1ede2c9bd288845d6ad07ff296949679fe3f8b1ede2e14ce414c51c60405160405180910390a150565b6000600a60009054906101000a900473ffffffffffffffffffffffffffffffffffffffff1673ffffffffffffffffffffffffffffffffffffffff1663bd1bd35a85856040518363ffffffff1660e01b815260040180806020018281038252848482818152602001925080828437600081840152601f19601f820116905080830192505050935050505060206040518083038186803b1580156134b957600080fd5b505afa1580156134cd573d6000803e3d6000fd5b505050506040513d60208110156134e357600080fd5b810190808051906020019092919050505090506000600960009054906101000a900473ffffffffffffffffffffffffffffffffffffffff1673ffffffffffffffffffffffffffffffffffffffff16637dd56411836040518263ffffffff1660e01b81526004018082815260200191505060206040518083038186803b15801561356b57600080fd5b505afa15801561357f573d6000803e3d6000fd5b505050506040513d602081101561359557600080fd5b81019080805190602001909291905050509050600073ffffffffffffffffffffffffffffffffffffffff168173ffffffffffffffffffffffffffffffffffffffff16141561364b576040517f08c379a00000000000000000000000000000000000000000000000000000000081526004018080602001828103825260098152602001807f6e6f74206578697374000000000000000000000000000000000000000000000081525060200191505060405180910390fd5b6000600a60009054906101000a900473ffffffffffffffffffffffffffffffffffffffff1673ffffffffffffffffffffffffffffffffffffffff1663333cf44c846040518263ffffffff1660e01b81526004018082815260200191505060006040518083038186803b1580156136c057600080fd5b505afa1580156136d4573d6000803e3d6000fd5b505050506040513d6000823e3d601f19601f8201168201806040525060408110156136fe57600080fd5b810190808051604051939291908464010000000082111561371e57600080fd5b8382019150602082018581111561373457600080fd5b825186600182028301116401000000008211171561375157600080fd5b8083526020830192505050908051906020019080838360005b8381101561378557808201518184015260208101905061376a565b50505050905090810190601f1680156137b25780820380516001836020036101000a031916815260200191505b506040526020018051906020019092919050505091505060008060001b821415613b0c576000600d60009054906101000a900473ffffffffffffffffffffffffffffffffffffffff1673ffffffffffffffffffffffffffffffffffffffff166320d912fa89896007546040518463ffffffff1660e01b815260040180806020018381526020018281038252858582818152602001925080828437600081840152601f19601f820116905080830192505050945050505050604080518083038186803b15801561388057600080fd5b505afa158015613894573d6000803e3d6000fd5b505050506040513d60408110156138aa57600080fd5b81019080805190602001909291908051906020019092919050505091505080156138ed576138e68660ff1660025461574990919063ffffffff16565b9150613908565b6139058660ff1660035461574990919063ffffffff16565b91505b600c60009054906101000a900473ffffffffffffffffffffffffffffffffffffffff1673ffffffffffffffffffffffffffffffffffffffff16636f3cb28f83600c60009054906101000a900473ffffffffffffffffffffffffffffffffffffffff1673ffffffffffffffffffffffffffffffffffffffff166341e9a9fe6040518163ffffffff1660e01b815260040160206040518083038186803b1580156139af57600080fd5b505afa1580156139c3573d6000803e3d6000fd5b505050506040513d60208110156139d957600080fd5b8101908080519060200190929190505050613a6f338d8d8080601f016020809104026020016040519081016040528093929190818152602001838380828437600081840152601f19601f820116905080830192505050505050506040518060400160405280600881526020017f5245434841524745000000000000000000000000000000000000000000000000815250896154df565b60006040518563ffffffff1660e01b8152600401808581526020018460ff1660ff1681526020018381526020018273ffffffffffffffffffffffffffffffffffffffff1673ffffffffffffffffffffffffffffffffffffffff168152602001945050505050600060405180830381600087803b158015613aee57600080fd5b505af1158015613b02573d6000803e3d6000fd5b5050505050613f07565b6000600960009054906101000a900473ffffffffffffffffffffffffffffffffffffffff1673ffffffffffffffffffffffffffffffffffffffff16637dd56411846040518263ffffffff1660e01b81526004018082815260200191505060206040518083038186803b158015613b8157600080fd5b505afa158015613b95573d6000803e3d6000fd5b505050506040513d6020811015613bab57600080fd5b81019080805190602001909291905050509050600080600a60009054906101000a900473ffffffffffffffffffffffffffffffffffffffff1673ffffffffffffffffffffffffffffffffffffffff166383b8202f866040518263ffffffff1660e01b81526004018082815260200191505060006040518083038186803b158015613c3457600080fd5b505afa158015613c48573d6000803e3d6000fd5b505050506040513d6000823e3d601f19601f820116820180604052506080811015613c7257600080fd5b8101908080516040519392919084640100000000821115613c9257600080fd5b83820191506020820185811115613ca857600080fd5b8251866001820283011164010000000082111715613cc557600080fd5b8083526020830192505050908051906020019080838360005b83811015613cf9578082015181840152602081019050613cde565b50505050905090810190601f168015613d265780820380516001836020036101000a031916815260200191505b50604052602001805190602001909291908051906020019092919080519060200190929190505050935093505050600960009054906101000a900473ffffffffffffffffffffffffffffffffffffffff1673ffffffffffffffffffffffffffffffffffffffff16630407abec86856040518363ffffffff1660e01b8152600401808381526020018273ffffffffffffffffffffffffffffffffffffffff1673ffffffffffffffffffffffffffffffffffffffff1681526020019250505060206040518083038186803b158015613dfb57600080fd5b505afa158015613e0f573d6000803e3d6000fd5b505050506040513d6020811015613e2557600080fd5b810190808051906020019092919050505015613e5857613e518860ff168261574990919063ffffffff16565b9350613e73565b613e708860ff1660045461574990919063ffffffff16565b93505b613f03838386613efe338f8f8080601f016020809104026020016040519081016040528093929190818152602001838380828437600081840152601f19601f820116905080830192505050505050506040518060400160405280600881526020017f52454348415247450000000000000000000000000000000000000000000000008152508b6154df565b6157a2565b5050505b600860009054906101000a900473ffffffffffffffffffffffffffffffffffffffff1673ffffffffffffffffffffffffffffffffffffffff166323b872dd33600c60009054906101000a900473ffffffffffffffffffffffffffffffffffffffff16846040518463ffffffff1660e01b8152600401808473ffffffffffffffffffffffffffffffffffffffff1673ffffffffffffffffffffffffffffffffffffffff1681526020018373ffffffffffffffffffffffffffffffffffffffff1673ffffffffffffffffffffffffffffffffffffffff1681526020018281526020019350505050602060405180830381600087803b15801561400657600080fd5b505af115801561401a573d6000803e3d6000fd5b505050506040513d602081101561403057600080fd5b81019080805190602001909291905050506140b3576040517f08c379a00000000000000000000000000000000000000000000000000000000081526004018080602001828103825260148152602001807f6e6f7420656e6f75676820616c6c6f77616e636500000000000000000000000081525060200191505060405180910390fd5b600960009054906101000a900473ffffffffffffffffffffffffffffffffffffffff1673ffffffffffffffffffffffffffffffffffffffff16637f77bbcd856301e133808860ff16026040518363ffffffff1660e01b8152600401808381526020018263ffffffff16815260200192505050600060405180830381600087803b15801561413f57600080fd5b505af1158015614153573d6000803e3d6000fd5b5050505050505050505050565b80600960009054906101000a900473ffffffffffffffffffffffffffffffffffffffff1673ffffffffffffffffffffffffffffffffffffffff16630407abec82336040518363ffffffff1660e01b8152600401808381526020018273ffffffffffffffffffffffffffffffffffffffff1673ffffffffffffffffffffffffffffffffffffffff1681526020019250505060206040518083038186803b15801561420857600080fd5b505afa15801561421c573d6000803e3d6000fd5b505050506040513d602081101561423257600080fd5b81019080805190602001909291905050506142b5576040517f08c379a000000000000000000000000000000000000000000000000000000000815260040180806020018281038252600a8152602001807f6f776e6572206f6e6c790000000000000000000000000000000000000000000081525060200191505060405180910390fd5b600080600a60009054906101000a900473ffffffffffffffffffffffffffffffffffffffff1673ffffffffffffffffffffffffffffffffffffffff166383b8202f856040518263ffffffff1660e01b81526004018082815260200191505060006040518083038186803b15801561432b57600080fd5b505afa15801561433f573d6000803e3d6000fd5b505050506040513d6000823e3d601f19601f82011682018060405250608081101561436957600080fd5b810190808051604051939291908464010000000082111561438957600080fd5b8382019150602082018581111561439f57600080fd5b82518660018202830111640100000000821117156143bc57600080fd5b8083526020830192505050908051906020019080838360005b838110156143f05780820151818401526020810190506143d5565b50505050905090810190601f16801561441d5780820380516001836020036101000a031916815260200191505b50604052602001805190602001909291908051906020019092919080519060200190929190505050935050925050600a60009054906101000a900473ffffffffffffffffffffffffffffffffffffffff1673ffffffffffffffffffffffffffffffffffffffff1663514bfdca85846000856040518563ffffffff1660e01b8152600401808581526020018415151515815260200183151515158152602001828152602001945050505050600060405180830381600087803b1580156144e157600080fd5b505af11580156144f5573d6000803e3d6000fd5b5050505050505050565b80600960009054906101000a900473ffffffffffffffffffffffffffffffffffffffff1673ffffffffffffffffffffffffffffffffffffffff16630407abec82336040518363ffffffff1660e01b8152600401808381526020018273ffffffffffffffffffffffffffffffffffffffff1673ffffffffffffffffffffffffffffffffffffffff1681526020019250505060206040518083038186803b1580156145a757600080fd5b505afa1580156145bb573d6000803e3d6000fd5b505050506040513d60208110156145d157600080fd5b8101908080519060200190929190505050614654576040517f08c379a000000000000000000000000000000000000000000000000000000000815260040180806020018281038252600a8152602001807f6f776e6572206f6e6c790000000000000000000000000000000000000000000081525060200191505060405180910390fd5b600080600a60009054906101000a900473ffffffffffffffffffffffffffffffffffffffff1673ffffffffffffffffffffffffffffffffffffffff166383b8202f856040518263ffffffff1660e01b81526004018082815260200191505060006040518083038186803b1580156146ca57600080fd5b505afa1580156146de573d6000803e3d6000fd5b505050506040513d6000823e3d601f19601f82011682018060405250608081101561470857600080fd5b810190808051604051939291908464010000000082111561472857600080fd5b8382019150602082018581111561473e57600080fd5b825186600182028301116401000000008211171561475b57600080fd5b8083526020830192505050908051906020019080838360005b8381101561478f578082015181840152602081019050614774565b50505050905090810190601f1680156147bc5780820380516001836020036101000a031916815260200191505b50604052602001805190602001909291908051906020019092919080519060200190929190505050935093505050600a60009054906101000a900473ffffffffffffffffffffffffffffffffffffffff1673ffffffffffffffffffffffffffffffffffffffff1663514bfdca85600085856040518563ffffffff1660e01b8152600401808581526020018415151515815260200183151515158152602001828152602001945050505050600060405180830381600087803b15801561488057600080fd5b505af1158015614894573d6000803e3d6000fd5b5050505050505050565b600080600080600a60009054906101000a900473ffffffffffffffffffffffffffffffffffffffff1673ffffffffffffffffffffffffffffffffffffffff1663bd1bd35a886040518263ffffffff1660e01b81526004018080602001828103825283818151815260200191508051906020019080838360005b83811015614932578082015181840152602081019050614917565b50505050905090810190601f16801561495f5780820380516001836020036101000a031916815260200191505b509250505060206040518083038186803b15801561497c57600080fd5b505afa158015614990573d6000803e3d6000fd5b505050506040513d60208110156149a657600080fd5b810190808051906020019092919050505093506000600d60009054906101000a900473ffffffffffffffffffffffffffffffffffffffff1673ffffffffffffffffffffffffffffffffffffffff166320d912fa896007546040518363ffffffff1660e01b81526004018080602001838152602001828103825284818151815260200191508051906020019080838360005b83811015614a52578082015181840152602081019050614a37565b50505050905090810190601f168015614a7f5780820380516001836020036101000a031916815260200191505b509350505050604080518083038186803b158015614a9c57600080fd5b505afa158015614ab0573d6000803e3d6000fd5b505050506040513d6040811015614ac657600080fd5b8101908080519060200190929190805190602001909291905050508092508195505050600960009054906101000a900473ffffffffffffffffffffffffffffffffffffffff1673ffffffffffffffffffffffffffffffffffffffff166373e8b3d4866040518263ffffffff1660e01b81526004018082815260200191505060206040518083038186803b158015614b5c57600080fd5b505afa158015614b70573d6000803e3d6000fd5b505050506040513d6020811015614b8657600080fd5b81019080805190602001909291905050509150838015614bab5750614baa86610fc6565b5b8015614c615750600960009054906101000a900473ffffffffffffffffffffffffffffffffffffffff1673ffffffffffffffffffffffffffffffffffffffff1663a87587f6866040518263ffffffff1660e01b81526004018082815260200191505060206040518083038186803b158015614c2557600080fd5b505afa158015614c39573d6000803e3d6000fd5b505050506040513d6020811015614c4f57600080fd5b81019080805190602001909291905050505b93508315614cc8578015614c8e57614c878660ff1660025461574990919063ffffffff16565b9250614ca9565b614ca68660ff1660035461574990919063ffffffff16565b92505b8615614cc757614cc46005548461578390919063ffffffff16565b92505b5b5093509350935093565b80600960009054906101000a900473ffffffffffffffffffffffffffffffffffffffff1673ffffffffffffffffffffffffffffffffffffffff16630407abec82336040518363ffffffff1660e01b8152600401808381526020018273ffffffffffffffffffffffffffffffffffffffff1673ffffffffffffffffffffffffffffffffffffffff1681526020019250505060206040518083038186803b158015614d7a57600080fd5b505afa158015614d8e573d6000803e3d6000fd5b505050506040513d6020811015614da457600080fd5b8101908080519060200190929190505050614e27576040517f08c379a000000000000000000000000000000000000000000000000000000000815260040180806020018281038252600a8152602001807f6f776e6572206f6e6c790000000000000000000000000000000000000000000081525060200191505060405180910390fd5b600080600a60009054906101000a900473ffffffffffffffffffffffffffffffffffffffff1673ffffffffffffffffffffffffffffffffffffffff166383b8202f856040518263ffffffff1660e01b81526004018082815260200191505060006040518083038186803b158015614e9d57600080fd5b505afa158015614eb1573d6000803e3d6000fd5b505050506040513d6000823e3d601f19601f820116820180604052506080811015614edb57600080fd5b8101908080516040519392919084640100000000821115614efb57600080fd5b83820191506020820185811115614f1157600080fd5b8251866001820283011164010000000082111715614f2e57600080fd5b8083526020830192505050908051906020019080838360005b83811015614f62578082015181840152602081019050614f47565b50505050905090810190601f168015614f8f5780820380516001836020036101000a031916815260200191505b50604052602001805190602001909291908051906020019092919080519060200190929190505050935093505050600a60009054906101000a900473ffffffffffffffffffffffffffffffffffffffff1673ffffffffffffffffffffffffffffffffffffffff1663514bfdca85600185856040518563ffffffff1660e01b8152600401808581526020018415151515815260200183151515158152602001828152602001945050505050600060405180830381600087803b15801561505357600080fd5b505af1158015615067573d6000803e3d6000fd5b5050505050505050565b600060606000806000806000806151118d8d8080601f016020809104026020016040519081016040528093929190818152602001838380828437600081840152601f19601f820116905080830192505050505050508c8c8080601f016020809104026020016040519081016040528093929190818152602001838380828437600081840152601f19601f820116905080830192505050505050508b611b40565b9750975097509750975097509750975084615194576040517f08c379a00000000000000000000000000000000000000000000000000000000081526004018080602001828103825260098152602001807f6e6f742076616c6964000000000000000000000000000000000000000000000081525060200191505060405180910390fd5b6151e08484846151db338c6040518060400160405280600b81526020017f5245474953544552535542000000000000000000000000000000000000000000815250896154df565b6157a2565b60006152046301e133808b60ff160263ffffffff164261578390919063ffffffff16565b905081156152da57600960009054906101000a900473ffffffffffffffffffffffffffffffffffffffff1673ffffffffffffffffffffffffffffffffffffffff166356b7f1a08a33846040518463ffffffff1660e01b8152600401808481526020018373ffffffffffffffffffffffffffffffffffffffff1673ffffffffffffffffffffffffffffffffffffffff1681526020018281526020019350505050600060405180830381600087803b1580156152bd57600080fd5b505af11580156152d1573d6000803e3d6000fd5b5050505061549e565b600960009054906101000a900473ffffffffffffffffffffffffffffffffffffffff1673ffffffffffffffffffffffffffffffffffffffff166333c7fb4c8a33846040518463ffffffff1660e01b8152600401808481526020018373ffffffffffffffffffffffffffffffffffffffff1673ffffffffffffffffffffffffffffffffffffffff1681526020018281526020019350505050600060405180830381600087803b15801561538b57600080fd5b505af115801561539f573d6000803e3d6000fd5b50505050600a60009054906101000a900473ffffffffffffffffffffffffffffffffffffffff1673ffffffffffffffffffffffffffffffffffffffff166366967cfb89896040518363ffffffff1660e01b81526004018080602001838152602001828103825284818151815260200191508051906020019080838360005b8381101561543857808201518184015260208101905061541d565b50505050905090810190601f1680156154655780820380516001836020036101000a031916815260200191505b509350505050600060405180830381600087803b15801561548557600080fd5b505af1158015615499573d6000803e3d6000fd5b505050505b5050505050505050505050505050565b6000809054906101000a900473ffffffffffffffffffffffffffffffffffffffff1681565b60045481565b60035481565b6000808585858542604051602001808673ffffffffffffffffffffffffffffffffffffffff1673ffffffffffffffffffffffffffffffffffffffff1660601b815260140185805190602001908083835b60208310615552578051825260208201915060208101905060208303925061552f565b6001836020036101000a03801982511681845116808217855250505050505090500184805190602001908083835b602083106155a35780518252602082019150602081019050602083039250615580565b6001836020036101000a038019825116818451168082178552505050505050905001838152602001828152602001955050505050506040516020818303038152906040528051906020012090507ffa05436f36a82dd83418cf5822d58c004af42d1fce873be55da6ec43ae3df78c8686868685604051808673ffffffffffffffffffffffffffffffffffffffff1673ffffffffffffffffffffffffffffffffffffffff1681526020018060200180602001858152602001848152602001838103835287818151815260200191508051906020019080838360005b8381101561569857808201518184015260208101905061567d565b50505050905090810190601f1680156156c55780820380516001836020036101000a031916815260200191505b50838103825286818151815260200191508051906020019080838360005b838110156156fe5780820151818401526020810190506156e3565b50505050905090810190601f16801561572b5780820380516001836020036101000a031916815260200191505b5097505050505050505060405180910390a180915050949350505050565b60008083141561575c576000905061577d565b600082840290508284828161576d57fe5b041461577857600080fd5b809150505b92915050565b60008082840190508381101561579857600080fd5b8091505092915050565b60003373ffffffffffffffffffffffffffffffffffffffff168573ffffffffffffffffffffffffffffffffffffffff16141561588257600c60009054906101000a900473ffffffffffffffffffffffffffffffffffffffff1673ffffffffffffffffffffffffffffffffffffffff166363831e0e6040518163ffffffff1660e01b815260040160206040518083038186803b15801561584057600080fd5b505afa158015615854573d6000803e3d6000fd5b505050506040513d602081101561586a57600080fd5b810190808051906020019092919050505090506159d9565b831561593257600c60009054906101000a900473ffffffffffffffffffffffffffffffffffffffff1673ffffffffffffffffffffffffffffffffffffffff16634cd9e1366040518163ffffffff1660e01b815260040160206040518083038186803b1580156158f057600080fd5b505afa158015615904573d6000803e3d6000fd5b505050506040513d602081101561591a57600080fd5b810190808051906020019092919050505090506159d8565b600c60009054906101000a900473ffffffffffffffffffffffffffffffffffffffff1673ffffffffffffffffffffffffffffffffffffffff1663f22c9b006040518163ffffffff1660e01b815260040160206040518083038186803b15801561599a57600080fd5b505afa1580156159ae573d6000803e3d6000fd5b505050506040513d60208110156159c457600080fd5b810190808051906020019092919050505090505b5b600860009054906101000a900473ffffffffffffffffffffffffffffffffffffffff1673ffffffffffffffffffffffffffffffffffffffff166323b872dd33600c60009054906101000a900473ffffffffffffffffffffffffffffffffffffffff16866040518463ffffffff1660e01b8152600401808473ffffffffffffffffffffffffffffffffffffffff1673ffffffffffffffffffffffffffffffffffffffff1681526020018373ffffffffffffffffffffffffffffffffffffffff1673ffffffffffffffffffffffffffffffffffffffff1681526020018281526020019350505050602060405180830381600087803b158015615ad857600080fd5b505af1158015615aec573d6000803e3d6000fd5b505050506040513d6020811015615b0257600080fd5b8101908080519060200190929190505050615b85576040517f08c379a00000000000000000000000000000000000000000000000000000000081526004018080602001828103825260148152602001807f6e6f7420656e6f75676820616c6c6f77616e636500000000000000000000000081525060200191505060405180910390fd5b600c60009054906101000a900473ffffffffffffffffffffffffffffffffffffffff1673ffffffffffffffffffffffffffffffffffffffff16636f3cb28f848385896040518563ffffffff1660e01b8152600401808581526020018460ff1660ff1681526020018381526020018273ffffffffffffffffffffffffffffffffffffffff1673ffffffffffffffffffffffffffffffffffffffff168152602001945050505050600060405180830381600087803b158015615c4457600080fd5b505af1158015615c58573d6000803e3d6000fd5b50505050505050505056fe63616e277420736574207072696365206c6f776572207468616e2064656661756c74a265627a7a72315820918e206da3e03ab31c0731f7a0d45f6574fcb0709a6828b34266e90be793b01d64736f6c63430005100032",
  "source": "pragma solidity >=0.5.0;\n\nimport \"./owned.sol\";\nimport \"./BasOwnership.sol\";\nimport \"./BasAsset.sol\";\nimport \"./BasDNS.sol\";\nimport \"./BasMiner.sol\";\nimport \"./ERC20.sol\";\nimport \"./BasRule.sol\";\n\ncontract BasOANN is owned {\n    using SafeMath for uint256;\n\n    uint256 public AROOT_GAS = 500 * (10**18);\n    uint256 public BROOT_GAS = 20 * (10**18);\n    uint256 public SUB_GAS = 4 * (10**18);\n    uint256 public CUSTOMED_PRICE_GAS = 100 * (10**18);\n    uint256 public MAX_YEAR = 5;\n    uint256 public RARE_TYPE_LENGTH = 6;\n\n    event Paid(address payer,bytes name , string option, uint256 amount, bytes32 receipt);\n    event SettingChanged();\n    \n    function emitPaid(address payer, bytes memory name, string memory option, uint256 amount) \n        internal returns (bytes32){\n            \n        bytes32 receipt =  keccak256(abi.encodePacked(payer,name, option, amount,now));\n        emit Paid(payer,name,option,amount,receipt);\n        \n        return receipt;\n    }\n    \n    \n    function setARootGas(uint256 newGas) external Admin {\n        AROOT_GAS = newGas;\n        emit SettingChanged();\n    }\n    function setBRootGas(uint256 newGas) external Admin {\n        BROOT_GAS = newGas;\n        emit SettingChanged();\n    }\n    function setSubGas(uint256 newGas) external Admin {\n        SUB_GAS = newGas;\n        emit SettingChanged();\n    }\n    function setCustomedPriceGas(uint256 newGas) external Admin {\n        CUSTOMED_PRICE_GAS = newGas;\n        emit SettingChanged();\n    }\n    function setMaxYear(uint256 year) external Admin {\n        MAX_YEAR = year;\n        emit SettingChanged();\n    }\n    function setRareTypeLength(uint8 len) external Admin {\n        RARE_TYPE_LENGTH = len;\n        emit SettingChanged();\n    }\n\n    string private constant REGISTERROOT = \"REGISTERROOT\";\n    string private constant REGISTERSUB = \"REGISTERSUB\";\n    string private constant OPENCUSTOMEDPRICE = \"OPENCUSTOMEDPRICE\";\n    string private constant RECHARGE = \"RECHARGE\";\n\n    ERC20 private t;\n    BasOwnership private o;\n    BasAsset private a;\n    BasDNS private d;\n    BasMiner private m;\n    BasRule private r;\n\n    constructor(address _t, address _o, address _a, address _d, address _m, address _r)\n        public\n    {\n        t = ERC20(_t);\n        o = BasOwnership(_o);\n        a = BasAsset(_a);\n        d = BasDNS(_d);\n        m = BasMiner(_m);\n        r = BasRule(_r);\n    }\n    \n    function checkAssociatedContractAddress() external view returns (\n        address BasToken,\n        address BasOwnership,\n        address BasAsset,\n        address BasDNS,\n        address BasMiner,\n        address BasRule){\n            BasToken = address(t);\n            BasOwnership = address(o);\n            BasAsset = address(a);\n            BasDNS = address(d);\n            BasMiner = address(m);\n            BasRule = address(r);\n        }\n    \n    modifier Owner(bytes32 nameHash) {\n        require(o.isValid(nameHash, msg.sender), \"owner only\");\n        _;\n    }\n\n    \n    function validDuration(uint8 y) public view returns (bool) {\n        return (y <= MAX_YEAR && y > 0);\n    }\n\n    function evalueRootPrice(\n        bytes memory name,\n        bool isCustomed,\n        uint8 durationInYear\n    )\n        public\n        view\n        returns (bytes32 nameHash, bool isValid, uint256 cost, bool exist)\n    {\n        nameHash = a.Hash(name);\n        bool isRare;\n        (isValid, isRare) = r.classifyRoot(name,RARE_TYPE_LENGTH);\n        exist = o.exist(nameHash);\n        isValid =\n            isValid &&\n            validDuration(durationInYear) &&\n            o.isWild(nameHash);\n        if (isValid) {\n            if (isRare) {\n                cost = AROOT_GAS.mul(durationInYear);\n            } else {\n                cost = BROOT_GAS.mul(durationInYear);\n            }\n            if (isCustomed) {\n                cost  = cost.add(CUSTOMED_PRICE_GAS);\n            }\n        }\n    }\n\n    function evalueSubPrice(\n        bytes memory rName,\n        bytes memory sName,\n        uint8 durationInYear\n    )\n        public\n        view\n        returns (\n            bytes32 nameHash,\n            bytes memory totalName,\n            bytes32 rootHash,\n            bool isValid,\n            address rootOwner,\n            bool isCustomed,\n            uint256 cost,\n            bool exist\n        )\n    {\n        nameHash = a.TotalNameHash(sName, rName);\n        totalName = abi.encodePacked(sName, \".\", rName);\n        rootHash = a.Hash(rName);\n        rootOwner = o.ownerOf(rootHash);\n        exist = o.exist(nameHash);\n        (bool rValid, ) = r.classifyRoot(rName,RARE_TYPE_LENGTH);\n        bool sValid = r.verifySub(sName,rName.length);\n        isValid =\n            rValid &&\n            sValid &&\n            validDuration(durationInYear) &&\n            o.isWild(nameHash);\n        (, bool isOpen, bool _isCustomed, uint256 customedPrice) = a.Root(\n            rootHash\n        );\n        isValid =\n            isValid &&\n            (rootOwner == msg.sender || isOpen || o.isWild(rootHash));\n        isCustomed = _isCustomed;\n        if (isValid) {\n            if (isCustomed) {\n                cost = customedPrice.mul(durationInYear);\n            } else {\n                cost = SUB_GAS.mul(durationInYear);\n            }\n        }\n    }\n\n    function registerRoot(\n        bytes calldata name,\n        bool isOpen,\n        bool isCustomed,\n        uint256 cusPrice,\n        uint8 durationInYear\n    ) external {\n        (bytes32 nameHash, bool isValid, uint256 cost, bool exist) = evalueRootPrice(\n            name,\n            isCustomed,\n            durationInYear\n        );\n        require(isValid, \"not valid\");\n        require(\n            t.transferFrom(msg.sender, address(m), cost),\n            \"not enough allowance\"\n        );\n        \n        m._c_allocateProfit(cost,m.AllocationRoot(), emitPaid(msg.sender, name, REGISTERROOT, cost), address(0));\n        \n        uint256 expire = now.add((durationInYear * 365 days));\n        if (exist) {\n            o._c_takeover(nameHash, msg.sender, expire);\n            a._c_updateRoot(nameHash, isOpen, isCustomed, cusPrice);\n        } else {\n            o._c_add(nameHash, msg.sender, expire);\n            a._c_addRoot(name, isOpen, isCustomed, cusPrice);\n        }\n    }\n\n    function _profitSub(address rootOwner, bool isCustomed, uint256 cost, bytes32 receiptNumber)\n        internal\n    {   \n        uint8 allocateType;\n        if (rootOwner == msg.sender) {\n            allocateType = m.AllocationSelfSub();\n        } else if (isCustomed) {\n            allocateType = m.AllocationCustomedSub();\n        } else {\n            allocateType = m.AllocationSub();\n        }\n        require(\n            t.transferFrom(msg.sender, address(m), cost),\n            \"not enough allowance\"\n        );\n        m._c_allocateProfit(cost, allocateType, receiptNumber, rootOwner);\n    }\n\n    function registerSub(\n        bytes calldata rName,\n        bytes calldata sName,\n        uint8 durationInYear\n    ) external {\n        (bytes32 nameHash, bytes memory totalName, bytes32 rootHash, bool isValid, address rootOwner, bool isCustomed, uint256 cost, bool exist) = evalueSubPrice(\n            rName,\n            sName,\n            durationInYear\n        );\n        require(isValid, \"not valid\");\n        \n        _profitSub(rootOwner, isCustomed, cost,emitPaid(msg.sender, totalName,REGISTERSUB, cost));\n        \n        uint256 expire = now.add((durationInYear * 365 days));\n        if (exist) {\n            o._c_takeover(nameHash, msg.sender, expire);\n        } else {\n            o._c_add(nameHash, msg.sender, expire);\n            a._c_addSub(totalName, rootHash);\n        }\n    }\n\n    function recharge(bytes calldata name, uint8 durationInYear) external {\n        bytes32 nameHash = a.Hash(name);\n        address owner = o.ownerOf(nameHash);\n        require(owner != address(0), \"not exist\");\n        (, bytes32 rHash) = a.Sub(nameHash);\n        uint256 cost;\n        if (rHash == bytes32(0)) {\n            (, bool isRare) = r.classifyRoot(name,RARE_TYPE_LENGTH);\n            if (isRare) {\n                cost = AROOT_GAS.mul(durationInYear);\n            } else {\n                cost = BROOT_GAS.mul(durationInYear);\n            }\n            m._c_allocateProfit(cost,m.AllocationRoot(), emitPaid(msg.sender, name, RECHARGE, cost), address(0));\n        } else {\n            address rootOwner = o.ownerOf(rHash);\n            (, , bool isCustomed, uint256 customedPrice) = a.Root(rHash);\n            if (o.isValid(rHash, rootOwner)) {\n                cost = customedPrice.mul(durationInYear);\n            } else {\n                cost = SUB_GAS.mul(durationInYear);\n            }\n            \n            _profitSub(rootOwner, isCustomed, cost,emitPaid(msg.sender,name,RECHARGE,cost));\n            \n        }\n        require(\n            t.transferFrom(msg.sender, address(m), cost),\n            \"not enough allowance\"\n        );\n        o._c_extend(nameHash, durationInYear * 365 days);\n    }\n\n    function openCustomedPrice(bytes32 nameHash, uint256 price)\n        external\n        Owner(nameHash)\n    {\n        require(price > SUB_GAS, \"can't set price lower than default\");\n        require(\n            t.transferFrom(msg.sender, address(m), CUSTOMED_PRICE_GAS),\n            \"not enough allowance\"\n        );\n        (bytes memory name, , , ) = a.Root(nameHash);\n        m._c_allocateProfit(CUSTOMED_PRICE_GAS,m.AllocationRoot(), emitPaid(msg.sender, name, OPENCUSTOMEDPRICE, CUSTOMED_PRICE_GAS), address(0));\n        a._c_updateRoot(nameHash, true, true, price);\n    }\n\n    function closeCustomedPrice(bytes32 nameHash) external Owner(nameHash) {\n        (, bool isOpen, , uint256 price) = a.Root(nameHash);\n        a._c_updateRoot(nameHash, isOpen, false, price);\n    }\n\n    function openToPublic(bytes32 nameHash) external Owner(nameHash) {\n        (, , bool isCustomed, uint256 price) = a.Root(nameHash);\n        a._c_updateRoot(nameHash, true, isCustomed, price);\n    }\n\n    function closeToPublic(bytes32 nameHash) external Owner(nameHash) {\n        (, , bool isCustomed, uint256 price) = a.Root(nameHash);\n        a._c_updateRoot(nameHash, false, isCustomed, price);\n    }\n\n    function setRecord(\n        bytes32 nameHash,\n        bytes4 ipv4,\n        bytes16 ipv6,\n        bytes calldata bca,\n        bytes calldata opData,\n        string calldata aliasName\n    ) external Owner(nameHash) {\n        d._c_update(nameHash, ipv4, ipv6, bca, opData, aliasName);\n    }\n\n}\n",
  "sourcePath": "/Users/mini2/workspace/truffle suite/baschain/contracts/BasOANN.sol",
  "compiler": {
    "name": "solc",
    "version": "0.5.16+commit.9c3226ce.Emscripten.clang"
  },
  "schemaVersion": "3.0.23",
  "updatedAt": "2020-04-09T09:27:06.264Z",
  "networkType": "ethereum",
  "devdoc": {
    "methods": {}
  },
  "userdoc": {
    "methods": {}
  }
}