{
  "contractName": "BasOwned",
  "abi": [
    {
      "inputs": [
        {
          "internalType": "address",
          "name": "_o",
          "type": "address"
        }
      ],
      "payable": false,
      "stateMutability": "nonpayable",
      "type": "constructor"
    },
    {
      "constant": true,
      "inputs": [],
      "name": "o",
      "outputs": [
        {
          "internalType": "contract BasOwnership",
          "name": "",
          "type": "address"
        }
      ],
      "payable": false,
      "stateMutability": "view",
      "type": "function"
    }
  ],
  "bytecode": "0x608060405234801561001057600080fd5b506040516101623803806101628339818101604052602081101561003357600080fd5b8101908080519060200190929190505050806000806101000a81548173ffffffffffffffffffffffffffffffffffffffff021916908373ffffffffffffffffffffffffffffffffffffffff1602179055505060cf806100936000396000f3fe6080604052348015600f57600080fd5b506004361060285760003560e01c806350cd4df214602d575b600080fd5b60336075565b604051808273ffffffffffffffffffffffffffffffffffffffff1673ffffffffffffffffffffffffffffffffffffffff16815260200191505060405180910390f35b6000809054906101000a900473ffffffffffffffffffffffffffffffffffffffff168156fea265627a7a72315820baa4ff851f641f986267f9fbcc0bf6d70bffca0f7ff2038c0d95b6e124ca823464736f6c63430005100032",
  "source": "pragma solidity >=0.5.0;\n\nimport \"./BasOwnership.sol\";\n\ncontract BasOwned {\n    BasOwnership public o;\n\n    constructor(address _o) public {\n        o = BasOwnership(_o);\n    }\n\n    modifier Admin {\n        require(msg.sender == o.admin(), \"admin only\");\n        _;\n    }\n\n    modifier ContractCaller {\n        require(msg.sender == o.contractCaller(), \"contract caller only\");\n        _;\n    }\n    \n    modifier Allowed(bytes32 nameHash) {\n        require(o.isValid(nameHash, msg.sender), \"not owned\");\n        require(o.allowance(msg.sender,nameHash)==address(this), \"not allowed\");\n        _;\n    }\n\n    modifier Owner(bytes32 nameHash) {\n        require(o.isValid(nameHash, msg.sender), \"owner only\");\n        _;\n    }\n\n    modifier Wild(bytes32 nameHash) {\n        require(o.isWild(nameHash), \"not Wild\");\n        _;\n    }\n\n    modifier Exist(bytes32 nameHash) {\n        require(o.exist(nameHash), \"not exist\");\n        _;\n    }\n\n    modifier NotExist(bytes32 nameHash) {\n        require(!o.exist(nameHash), \"exist\");\n        _;\n    }\n\n    modifier Expired(bytes32 nameHash) {\n        require(o.expired(nameHash), \"not expired\");\n        _;\n    }\n\n    modifier Valid(bytes32 nameHash, address check) {\n        require(o.isValid(nameHash, check), \"not valid\");\n        _;\n    }\n}\n",
  "sourcePath": "/Users/mini2/workspace/truffle suite/baschain/contracts/BasOwned.sol",
  "compiler": {
    "name": "solc",
    "version": "0.5.16+commit.9c3226ce.Emscripten.clang"
  },
  "schemaVersion": "3.0.23",
  "updatedAt": "2020-04-08T10:02:17.786Z",
  "devdoc": {
    "methods": {}
  },
  "userdoc": {
    "methods": {}
  }
}