{
  "contractName": "BasOwnership",
  "abi": [
    {
      "anonymous": false,
      "inputs": [
        {
          "indexed": false,
          "internalType": "bytes32",
          "name": "nameHash",
          "type": "bytes32"
        },
        {
          "indexed": false,
          "internalType": "address",
          "name": "owner",
          "type": "address"
        }
      ],
      "name": "Add",
      "type": "event"
    },
    {
      "anonymous": false,
      "inputs": [
        {
          "indexed": false,
          "internalType": "bytes32",
          "name": "nameHash",
          "type": "bytes32"
        },
        {
          "indexed": false,
          "internalType": "uint256",
          "name": "time",
          "type": "uint256"
        }
      ],
      "name": "Extend",
      "type": "event"
    },
    {
      "anonymous": false,
      "inputs": [
        {
          "indexed": false,
          "internalType": "bytes32",
          "name": "nameHash",
          "type": "bytes32"
        }
      ],
      "name": "Remove",
      "type": "event"
    },
    {
      "anonymous": false,
      "inputs": [
        {
          "indexed": false,
          "internalType": "bytes32",
          "name": "nameHash",
          "type": "bytes32"
        },
        {
          "indexed": false,
          "internalType": "address",
          "name": "from",
          "type": "address"
        },
        {
          "indexed": false,
          "internalType": "address",
          "name": "to",
          "type": "address"
        }
      ],
      "name": "Takeover",
      "type": "event"
    },
    {
      "anonymous": false,
      "inputs": [
        {
          "indexed": false,
          "internalType": "bytes32",
          "name": "nameHash",
          "type": "bytes32"
        },
        {
          "indexed": false,
          "internalType": "address",
          "name": "from",
          "type": "address"
        },
        {
          "indexed": false,
          "internalType": "address",
          "name": "to",
          "type": "address"
        }
      ],
      "name": "Transfer",
      "type": "event"
    },
    {
      "anonymous": false,
      "inputs": [
        {
          "indexed": false,
          "internalType": "bytes32",
          "name": "nameHash",
          "type": "bytes32"
        },
        {
          "indexed": false,
          "internalType": "address",
          "name": "from",
          "type": "address"
        },
        {
          "indexed": false,
          "internalType": "address",
          "name": "to",
          "type": "address"
        },
        {
          "indexed": false,
          "internalType": "address",
          "name": "by",
          "type": "address"
        }
      ],
      "name": "TransferFrom",
      "type": "event"
    },
    {
      "anonymous": false,
      "inputs": [
        {
          "indexed": false,
          "internalType": "bytes32",
          "name": "nameHash",
          "type": "bytes32"
        },
        {
          "indexed": false,
          "internalType": "address",
          "name": "owner",
          "type": "address"
        }
      ],
      "name": "Update",
      "type": "event"
    },
    {
      "constant": false,
      "inputs": [
        {
          "internalType": "address",
          "name": "newOwner",
          "type": "address"
        }
      ],
      "name": "_a_changeAdmin",
      "outputs": [],
      "payable": false,
      "stateMutability": "nonpayable",
      "type": "function"
    },
    {
      "constant": false,
      "inputs": [
        {
          "internalType": "address",
          "name": "conAddr",
          "type": "address"
        }
      ],
      "name": "_a_changeContract",
      "outputs": [],
      "payable": false,
      "stateMutability": "nonpayable",
      "type": "function"
    },
    {
      "constant": true,
      "inputs": [],
      "name": "admin",
      "outputs": [
        {
          "internalType": "address",
          "name": "",
          "type": "address"
        }
      ],
      "payable": false,
      "stateMutability": "view",
      "type": "function"
    },
    {
      "constant": true,
      "inputs": [],
      "name": "contractCaller",
      "outputs": [
        {
          "internalType": "address",
          "name": "",
          "type": "address"
        }
      ],
      "payable": false,
      "stateMutability": "view",
      "type": "function"
    },
    {
      "constant": true,
      "inputs": [
        {
          "internalType": "bytes32",
          "name": "",
          "type": "bytes32"
        }
      ],
      "name": "expirationOf",
      "outputs": [
        {
          "internalType": "uint256",
          "name": "",
          "type": "uint256"
        }
      ],
      "payable": false,
      "stateMutability": "view",
      "type": "function"
    },
    {
      "constant": true,
      "inputs": [
        {
          "internalType": "bytes32",
          "name": "",
          "type": "bytes32"
        }
      ],
      "name": "ownerOf",
      "outputs": [
        {
          "internalType": "address",
          "name": "",
          "type": "address"
        }
      ],
      "payable": false,
      "stateMutability": "view",
      "type": "function"
    },
    {
      "constant": true,
      "inputs": [
        {
          "internalType": "bytes32",
          "name": "nameHash",
          "type": "bytes32"
        }
      ],
      "name": "query",
      "outputs": [
        {
          "internalType": "address",
          "name": "",
          "type": "address"
        },
        {
          "internalType": "uint256",
          "name": "",
          "type": "uint256"
        }
      ],
      "payable": false,
      "stateMutability": "view",
      "type": "function"
    },
    {
      "constant": true,
      "inputs": [
        {
          "internalType": "bytes32",
          "name": "nameHash",
          "type": "bytes32"
        }
      ],
      "name": "isWild",
      "outputs": [
        {
          "internalType": "bool",
          "name": "",
          "type": "bool"
        }
      ],
      "payable": false,
      "stateMutability": "view",
      "type": "function"
    },
    {
      "constant": true,
      "inputs": [
        {
          "internalType": "bytes32",
          "name": "nameHash",
          "type": "bytes32"
        }
      ],
      "name": "exist",
      "outputs": [
        {
          "internalType": "bool",
          "name": "",
          "type": "bool"
        }
      ],
      "payable": false,
      "stateMutability": "view",
      "type": "function"
    },
    {
      "constant": true,
      "inputs": [
        {
          "internalType": "bytes32",
          "name": "nameHash",
          "type": "bytes32"
        }
      ],
      "name": "expired",
      "outputs": [
        {
          "internalType": "bool",
          "name": "",
          "type": "bool"
        }
      ],
      "payable": false,
      "stateMutability": "view",
      "type": "function"
    },
    {
      "constant": true,
      "inputs": [
        {
          "internalType": "bytes32",
          "name": "nameHash",
          "type": "bytes32"
        },
        {
          "internalType": "address",
          "name": "check",
          "type": "address"
        }
      ],
      "name": "isValid",
      "outputs": [
        {
          "internalType": "bool",
          "name": "",
          "type": "bool"
        }
      ],
      "payable": false,
      "stateMutability": "view",
      "type": "function"
    },
    {
      "constant": false,
      "inputs": [
        {
          "internalType": "bytes32",
          "name": "nameHash",
          "type": "bytes32"
        },
        {
          "internalType": "address",
          "name": "owner",
          "type": "address"
        },
        {
          "internalType": "uint256",
          "name": "expire",
          "type": "uint256"
        }
      ],
      "name": "_a_update",
      "outputs": [],
      "payable": false,
      "stateMutability": "nonpayable",
      "type": "function"
    },
    {
      "constant": false,
      "inputs": [
        {
          "internalType": "bytes32",
          "name": "nameHash",
          "type": "bytes32"
        },
        {
          "internalType": "address",
          "name": "owner",
          "type": "address"
        },
        {
          "internalType": "uint256",
          "name": "expire",
          "type": "uint256"
        }
      ],
      "name": "_c_add",
      "outputs": [],
      "payable": false,
      "stateMutability": "nonpayable",
      "type": "function"
    },
    {
      "constant": false,
      "inputs": [
        {
          "internalType": "bytes32",
          "name": "nameHash",
          "type": "bytes32"
        },
        {
          "internalType": "address",
          "name": "owner",
          "type": "address"
        },
        {
          "internalType": "uint256",
          "name": "expire",
          "type": "uint256"
        }
      ],
      "name": "_c_takeover",
      "outputs": [],
      "payable": false,
      "stateMutability": "nonpayable",
      "type": "function"
    },
    {
      "constant": false,
      "inputs": [
        {
          "internalType": "bytes32",
          "name": "nameHash",
          "type": "bytes32"
        },
        {
          "internalType": "uint256",
          "name": "extend",
          "type": "uint256"
        }
      ],
      "name": "_c_extend",
      "outputs": [],
      "payable": false,
      "stateMutability": "nonpayable",
      "type": "function"
    },
    {
      "constant": false,
      "inputs": [
        {
          "internalType": "bytes32",
          "name": "nameHash",
          "type": "bytes32"
        }
      ],
      "name": "remove",
      "outputs": [],
      "payable": false,
      "stateMutability": "nonpayable",
      "type": "function"
    },
    {
      "constant": false,
      "inputs": [
        {
          "internalType": "bytes32",
          "name": "nameHash",
          "type": "bytes32"
        }
      ],
      "name": "removeExpired",
      "outputs": [],
      "payable": false,
      "stateMutability": "nonpayable",
      "type": "function"
    },
    {
      "constant": false,
      "inputs": [
        {
          "internalType": "bytes32",
          "name": "nameHash",
          "type": "bytes32"
        },
        {
          "internalType": "address",
          "name": "to",
          "type": "address"
        }
      ],
      "name": "transfer",
      "outputs": [],
      "payable": false,
      "stateMutability": "nonpayable",
      "type": "function"
    },
    {
      "constant": false,
      "inputs": [
        {
          "internalType": "bytes32",
          "name": "nameHash",
          "type": "bytes32"
        },
        {
          "internalType": "address",
          "name": "spender",
          "type": "address"
        }
      ],
      "name": "approve",
      "outputs": [],
      "payable": false,
      "stateMutability": "nonpayable",
      "type": "function"
    },
    {
      "constant": true,
      "inputs": [
        {
          "internalType": "address",
          "name": "owner",
          "type": "address"
        },
        {
          "internalType": "bytes32",
          "name": "nameHash",
          "type": "bytes32"
        }
      ],
      "name": "allowance",
      "outputs": [
        {
          "internalType": "address",
          "name": "",
          "type": "address"
        }
      ],
      "payable": false,
      "stateMutability": "view",
      "type": "function"
    },
    {
      "constant": false,
      "inputs": [
        {
          "internalType": "bytes32",
          "name": "nameHash",
          "type": "bytes32"
        }
      ],
      "name": "revoke",
      "outputs": [],
      "payable": false,
      "stateMutability": "nonpayable",
      "type": "function"
    },
    {
      "constant": false,
      "inputs": [
        {
          "internalType": "bytes32",
          "name": "nameHash",
          "type": "bytes32"
        },
        {
          "internalType": "address",
          "name": "from",
          "type": "address"
        },
        {
          "internalType": "address",
          "name": "to",
          "type": "address"
        }
      ],
      "name": "transferFrom",
      "outputs": [],
      "payable": false,
      "stateMutability": "nonpayable",
      "type": "function"
    }
  ],
  "bytecode": "0x6080604052336000806101000a81548173ffffffffffffffffffffffffffffffffffffffff021916908373ffffffffffffffffffffffffffffffffffffffff160217905550611f4a806100536000396000f3fe608060405234801561001057600080fd5b50600436106101425760003560e01c80637f77bbcd116100b8578063a87587f61161007c578063a87587f614610646578063b2e2c99b1461068c578063b75c7dc6146106da578063bcf9fcad14610708578063f7f67ef914610796578063f851a440146107d857610142565b80637f77bbcd146104cf57806382d7bd27146105075780638380d30c1461057557806395bc2673146105a3578063a3b61a9c146105d157610142565b806356b7f1a01161010a57806356b7f1a0146102d9578063733c19501461033157806373e8b3d414610375578063788ccdea146103bb57806379ce9fac146104135780637dd564111461046157610142565b80630407abec146101475780631062f6cc146101ad57806330cc3597146101f157806333c7fb4c1461023757806354cf428a1461028f575b600080fd5b6101936004803603604081101561015d57600080fd5b8101908080359060200190929190803573ffffffffffffffffffffffffffffffffffffffff169060200190929190505050610822565b604051808215151515815260200191505060405180910390f35b6101ef600480360360208110156101c357600080fd5b81019080803573ffffffffffffffffffffffffffffffffffffffff1690602001909291905050506108ac565b005b61021d6004803603602081101561020757600080fd5b81019080803590602001909291905050506109b1565b604051808215151515815260200191505060405180910390f35b61028d6004803603606081101561024d57600080fd5b8101908080359060200190929190803573ffffffffffffffffffffffffffffffffffffffff169060200190929190803590602001909291905050506109e1565b005b610297610bfc565b604051808273ffffffffffffffffffffffffffffffffffffffff1673ffffffffffffffffffffffffffffffffffffffff16815260200191505060405180910390f35b61032f600480360360608110156102ef57600080fd5b8101908080359060200190929190803573ffffffffffffffffffffffffffffffffffffffff16906020019092919080359060200190929190505050610c22565b005b6103736004803603602081101561034757600080fd5b81019080803573ffffffffffffffffffffffffffffffffffffffff169060200190929190505050610ea3565b005b6103a16004803603602081101561038b57600080fd5b8101908080359060200190929190505050610fa9565b604051808215151515815260200191505060405180910390f35b610411600480360360608110156103d157600080fd5b8101908080359060200190929190803573ffffffffffffffffffffffffffffffffffffffff16906020019092919080359060200190929190505050611015565b005b61045f6004803603604081101561042957600080fd5b8101908080359060200190929190803573ffffffffffffffffffffffffffffffffffffffff1690602001909291905050506111b1565b005b61048d6004803603602081101561047757600080fd5b81019080803590602001909291905050506113c6565b604051808273ffffffffffffffffffffffffffffffffffffffff1673ffffffffffffffffffffffffffffffffffffffff16815260200191505060405180910390f35b610505600480360360408110156104e557600080fd5b8101908080359060200190929190803590602001909291905050506113f9565b005b6105736004803603606081101561051d57600080fd5b8101908080359060200190929190803573ffffffffffffffffffffffffffffffffffffffff169060200190929190803573ffffffffffffffffffffffffffffffffffffffff1690602001909291905050506115f7565b005b6105a16004803603602081101561058b57600080fd5b8101908080359060200190929190505050611954565b005b6105cf600480360360208110156105b957600080fd5b8101908080359060200190929190505050611a58565b005b6105fd600480360360208110156105e757600080fd5b8101908080359060200190929190505050611b5d565b604051808373ffffffffffffffffffffffffffffffffffffffff1673ffffffffffffffffffffffffffffffffffffffff1681526020018281526020019250505060405180910390f35b6106726004803603602081101561065c57600080fd5b8101908080359060200190929190505050611bb1565b604051808215151515815260200191505060405180910390f35b6106d8600480360360408110156106a257600080fd5b8101908080359060200190929190803573ffffffffffffffffffffffffffffffffffffffff169060200190929190505050611c39565b005b610706600480360360208110156106f057600080fd5b8101908080359060200190929190505050611d4a565b005b6107546004803603604081101561071e57600080fd5b81019080803573ffffffffffffffffffffffffffffffffffffffff16906020019092919080359060200190929190505050611e3e565b604051808273ffffffffffffffffffffffffffffffffffffffff1673ffffffffffffffffffffffffffffffffffffffff16815260200191505060405180910390f35b6107c2600480360360208110156107ac57600080fd5b8101908080359060200190929190505050611eb9565b6040518082815260200191505060405180910390f35b6107e0611ed1565b604051808273ffffffffffffffffffffffffffffffffffffffff1673ffffffffffffffffffffffffffffffffffffffff16815260200191505060405180910390f35b60008173ffffffffffffffffffffffffffffffffffffffff166002600085815260200190815260200160002060009054906101000a900473ffffffffffffffffffffffffffffffffffffffff1673ffffffffffffffffffffffffffffffffffffffff161480156108a45750426003600085815260200190815260200160002054115b905092915050565b6000809054906101000a900473ffffffffffffffffffffffffffffffffffffffff1673ffffffffffffffffffffffffffffffffffffffff163373ffffffffffffffffffffffffffffffffffffffff161461096e576040517f08c379a000000000000000000000000000000000000000000000000000000000815260040180806020018281038252600a8152602001807f61646d696e206f6e6c790000000000000000000000000000000000000000000081525060200191505060405180910390fd5b806000806101000a81548173ffffffffffffffffffffffffffffffffffffffff021916908373ffffffffffffffffffffffffffffffffffffffff16021790555050565b60006109bc82610fa9565b80156109da5750426003600084815260200190815260200160002054105b9050919050565b600160009054906101000a900473ffffffffffffffffffffffffffffffffffffffff1673ffffffffffffffffffffffffffffffffffffffff163373ffffffffffffffffffffffffffffffffffffffff1614610aa4576040517f08c379a00000000000000000000000000000000000000000000000000000000081526004018080602001828103825260148152602001807f636f6e74726163742063616c6c6572206f6e6c7900000000000000000000000081525060200191505060405180910390fd5b82610aae81610fa9565b15610b21576040517f08c379a00000000000000000000000000000000000000000000000000000000081526004018080602001828103825260058152602001807f657869737400000000000000000000000000000000000000000000000000000081525060200191505060405180910390fd5b826002600086815260200190815260200160002060006101000a81548173ffffffffffffffffffffffffffffffffffffffff021916908373ffffffffffffffffffffffffffffffffffffffff1602179055508160036000868152602001908152602001600020819055507f5f17f6377b8024fbe396282bbccde46c3c704613385bd2f4b4b3ff955fd56a358484604051808381526020018273ffffffffffffffffffffffffffffffffffffffff1673ffffffffffffffffffffffffffffffffffffffff1681526020019250505060405180910390a150505050565b600160009054906101000a900473ffffffffffffffffffffffffffffffffffffffff1681565b600160009054906101000a900473ffffffffffffffffffffffffffffffffffffffff1673ffffffffffffffffffffffffffffffffffffffff163373ffffffffffffffffffffffffffffffffffffffff1614610ce5576040517f08c379a00000000000000000000000000000000000000000000000000000000081526004018080602001828103825260148152602001807f636f6e74726163742063616c6c6572206f6e6c7900000000000000000000000081525060200191505060405180910390fd5b82610cef816109b1565b610d61576040517f08c379a000000000000000000000000000000000000000000000000000000000815260040180806020018281038252600b8152602001807f6e6f74206578706972656400000000000000000000000000000000000000000081525060200191505060405180910390fd5b7fae53ff61a227b196db64e2dea26e80d455bb2d90fd10372db78b44ace9cb0f62846002600087815260200190815260200160002060009054906101000a900473ffffffffffffffffffffffffffffffffffffffff1685604051808481526020018373ffffffffffffffffffffffffffffffffffffffff1673ffffffffffffffffffffffffffffffffffffffff1681526020018273ffffffffffffffffffffffffffffffffffffffff1673ffffffffffffffffffffffffffffffffffffffff168152602001935050505060405180910390a1826002600086815260200190815260200160002060006101000a81548173ffffffffffffffffffffffffffffffffffffffff021916908373ffffffffffffffffffffffffffffffffffffffff16021790555081600360008681526020019081526020016000208190555050505050565b6000809054906101000a900473ffffffffffffffffffffffffffffffffffffffff1673ffffffffffffffffffffffffffffffffffffffff163373ffffffffffffffffffffffffffffffffffffffff1614610f65576040517f08c379a000000000000000000000000000000000000000000000000000000000815260040180806020018281038252600a8152602001807f61646d696e206f6e6c790000000000000000000000000000000000000000000081525060200191505060405180910390fd5b80600160006101000a81548173ffffffffffffffffffffffffffffffffffffffff021916908373ffffffffffffffffffffffffffffffffffffffff16021790555050565b60008073ffffffffffffffffffffffffffffffffffffffff166002600084815260200190815260200160002060009054906101000a900473ffffffffffffffffffffffffffffffffffffffff1673ffffffffffffffffffffffffffffffffffffffff1614159050919050565b6000809054906101000a900473ffffffffffffffffffffffffffffffffffffffff1673ffffffffffffffffffffffffffffffffffffffff163373ffffffffffffffffffffffffffffffffffffffff16146110d7576040517f08c379a000000000000000000000000000000000000000000000000000000000815260040180806020018281038252600a8152602001807f61646d696e206f6e6c790000000000000000000000000000000000000000000081525060200191505060405180910390fd5b816002600085815260200190815260200160002060006101000a81548173ffffffffffffffffffffffffffffffffffffffff021916908373ffffffffffffffffffffffffffffffffffffffff1602179055508060036000858152602001908152602001600020819055507fb2b848c23b147f2d3c11308c74cb0ff81a30b54628e5c73c4d70bf623eb98f728383604051808381526020018273ffffffffffffffffffffffffffffffffffffffff1673ffffffffffffffffffffffffffffffffffffffff1681526020019250505060405180910390a1505050565b816111bc8133610822565b61122e576040517f08c379a000000000000000000000000000000000000000000000000000000000815260040180806020018281038252600a8152602001807f6f776e6572206f6e6c790000000000000000000000000000000000000000000081525060200191505060405180910390fd5b8173ffffffffffffffffffffffffffffffffffffffff163373ffffffffffffffffffffffffffffffffffffffff1614156112d0576040517f08c379a00000000000000000000000000000000000000000000000000000000081526004018080602001828103825260108152602001807f7472616e7366657220746f2073656c660000000000000000000000000000000081525060200191505060405180910390fd5b816002600085815260200190815260200160002060006101000a81548173ffffffffffffffffffffffffffffffffffffffff021916908373ffffffffffffffffffffffffffffffffffffffff1602179055507f57972c0bcb114a9f52d3501767c95a65e93901ff48da6677c7399b5593b4e999833384604051808481526020018373ffffffffffffffffffffffffffffffffffffffff1673ffffffffffffffffffffffffffffffffffffffff1681526020018273ffffffffffffffffffffffffffffffffffffffff1673ffffffffffffffffffffffffffffffffffffffff168152602001935050505060405180910390a1505050565b60026020528060005260406000206000915054906101000a900473ffffffffffffffffffffffffffffffffffffffff1681565b600160009054906101000a900473ffffffffffffffffffffffffffffffffffffffff1673ffffffffffffffffffffffffffffffffffffffff163373ffffffffffffffffffffffffffffffffffffffff16146114bc576040517f08c379a00000000000000000000000000000000000000000000000000000000081526004018080602001828103825260148152602001807f636f6e74726163742063616c6c6572206f6e6c7900000000000000000000000081525060200191505060405180910390fd5b816114c681610fa9565b611538576040517f08c379a00000000000000000000000000000000000000000000000000000000081526004018080602001828103825260098152602001807f6e6f74206578697374000000000000000000000000000000000000000000000081525060200191505060405180910390fd5b611541836109b1565b15611575576115594283611ef690919063ffffffff16565b60036000858152602001908152602001600020819055506115b3565b61159b600360008581526020019081526020016000205483611ef690919063ffffffff16565b60036000858152602001908152602001600020819055505b7fe898863b26adf3af54e82709ac1a76136eaaa5f3a7d9b790ce6d539d508e75ff8383604051808381526020018281526020019250505060405180910390a1505050565b82826116038282610822565b611675576040517f08c379a00000000000000000000000000000000000000000000000000000000081526004018080602001828103825260098152602001807f6e6f742076616c6964000000000000000000000000000000000000000000000081525060200191505060405180910390fd5b3373ffffffffffffffffffffffffffffffffffffffff16600460008673ffffffffffffffffffffffffffffffffffffffff1673ffffffffffffffffffffffffffffffffffffffff168152602001908152602001600020600087815260200190815260200160002060009054906101000a900473ffffffffffffffffffffffffffffffffffffffff1673ffffffffffffffffffffffffffffffffffffffff1614611786576040517f08c379a000000000000000000000000000000000000000000000000000000000815260040180806020018281038252600b8152602001807f6e6f7420616c6c6f77656400000000000000000000000000000000000000000081525060200191505060405180910390fd5b8273ffffffffffffffffffffffffffffffffffffffff168473ffffffffffffffffffffffffffffffffffffffff161415611828576040517f08c379a00000000000000000000000000000000000000000000000000000000081526004018080602001828103825260108152602001807f7472616e7366657220746f2073656c660000000000000000000000000000000081525060200191505060405180910390fd5b826002600087815260200190815260200160002060006101000a81548173ffffffffffffffffffffffffffffffffffffffff021916908373ffffffffffffffffffffffffffffffffffffffff1602179055507f3f8c833a27e9521421e46d68c5a31e603cc465fc4bbff2226b98d964252ebb3f85858533604051808581526020018473ffffffffffffffffffffffffffffffffffffffff1673ffffffffffffffffffffffffffffffffffffffff1681526020018373ffffffffffffffffffffffffffffffffffffffff1673ffffffffffffffffffffffffffffffffffffffff1681526020018273ffffffffffffffffffffffffffffffffffffffff1673ffffffffffffffffffffffffffffffffffffffff16815260200194505050505060405180910390a15050505050565b8061195e816109b1565b6119d0576040517f08c379a000000000000000000000000000000000000000000000000000000000815260040180806020018281038252600b8152602001807f6e6f74206578706972656400000000000000000000000000000000000000000081525060200191505060405180910390fd5b6002600083815260200190815260200160002060006101000a81549073ffffffffffffffffffffffffffffffffffffffff021916905560036000838152602001908152602001600020600090557fa56fb2a6d4126f324526f0668c53927c0cd8e08f41ba0fe0f2d6090a84bc75c8826040518082815260200191505060405180910390a15050565b80611a638133610822565b611ad5576040517f08c379a000000000000000000000000000000000000000000000000000000000815260040180806020018281038252600a8152602001807f6f776e6572206f6e6c790000000000000000000000000000000000000000000081525060200191505060405180910390fd5b6002600083815260200190815260200160002060006101000a81549073ffffffffffffffffffffffffffffffffffffffff021916905560036000838152602001908152602001600020600090557fa56fb2a6d4126f324526f0668c53927c0cd8e08f41ba0fe0f2d6090a84bc75c8826040518082815260200191505060405180910390a15050565b6000806002600084815260200190815260200160002060009054906101000a900473ffffffffffffffffffffffffffffffffffffffff16600360008581526020019081526020016000205491509150915091565b60008073ffffffffffffffffffffffffffffffffffffffff166002600084815260200190815260200160002060009054906101000a900473ffffffffffffffffffffffffffffffffffffffff1673ffffffffffffffffffffffffffffffffffffffff161480611c325750426003600084815260200190815260200160002054105b9050919050565b81611c448133610822565b611cb6576040517f08c379a000000000000000000000000000000000000000000000000000000000815260040180806020018281038252600a8152602001807f6f776e6572206f6e6c790000000000000000000000000000000000000000000081525060200191505060405180910390fd5b81600460003373ffffffffffffffffffffffffffffffffffffffff1673ffffffffffffffffffffffffffffffffffffffff168152602001908152602001600020600085815260200190815260200160002060006101000a81548173ffffffffffffffffffffffffffffffffffffffff021916908373ffffffffffffffffffffffffffffffffffffffff160217905550505050565b80611d558133610822565b611dc7576040517f08c379a000000000000000000000000000000000000000000000000000000000815260040180806020018281038252600a8152602001807f6f776e6572206f6e6c790000000000000000000000000000000000000000000081525060200191505060405180910390fd5b600460003373ffffffffffffffffffffffffffffffffffffffff1673ffffffffffffffffffffffffffffffffffffffff168152602001908152602001600020600083815260200190815260200160002060006101000a81549073ffffffffffffffffffffffffffffffffffffffff02191690555050565b6000600460008473ffffffffffffffffffffffffffffffffffffffff1673ffffffffffffffffffffffffffffffffffffffff168152602001908152602001600020600083815260200190815260200160002060009054906101000a900473ffffffffffffffffffffffffffffffffffffffff16905092915050565b60036020528060005260406000206000915090505481565b6000809054906101000a900473ffffffffffffffffffffffffffffffffffffffff1681565b600080828401905083811015611f0b57600080fd5b809150509291505056fea265627a7a723158204c12f6b166445a18e59997e3c69507f06aae174d73f760590a6565b0d4abc86b64736f6c63430005100032",
  "source": "pragma solidity >=0.5.0;\nimport \"./safemath.sol\";\nimport \"./owned.sol\";\n\ncontract BasOwnership is owned{\n    using SafeMath for uint256;\n\n    event Add(bytes32 nameHash, address owner);\n    event Update(bytes32 nameHash, address owner);\n    event Extend(bytes32 nameHash, uint256 time);\n    event Takeover(bytes32 nameHash, address from, address to);\n    event Transfer(bytes32 nameHash, address from, address to);\n    event TransferFrom(bytes32 nameHash, address from, address to, address by);\n    event Remove(bytes32 nameHash);\n\n    mapping(bytes32 => address) public ownerOf;\n    mapping(bytes32 => uint256) public expirationOf;\n    mapping(address => mapping(bytes32 => address)) private _allowed;\n    \n    function query(bytes32 nameHash) public view returns (address,uint256){\n        return (ownerOf[nameHash],expirationOf[nameHash]);\n    }\n\n    function isWild(bytes32 nameHash) public view returns (bool) {\n        return ownerOf[nameHash] == address(0) || expirationOf[nameHash] < now;\n    }\n\n    function exist(bytes32 nameHash) public view returns (bool) {\n        return ownerOf[nameHash] != address(0);\n    }\n\n    function expired(bytes32 nameHash) public view returns (bool) {\n        return exist(nameHash) && expirationOf[nameHash] < now;\n    }\n\n    function isValid(bytes32 nameHash, address check)\n        public\n        view\n        returns (bool)\n    {\n        return ownerOf[nameHash] == check && expirationOf[nameHash] > now;\n    }\n\n    modifier Owner(bytes32 nameHash) {\n        require(isValid(nameHash, msg.sender), \"owner only\");\n        _;\n    }\n\n    modifier Wild(bytes32 nameHash) {\n        require(isWild(nameHash), \"not Wild\");\n        _;\n    }\n\n    modifier Exist(bytes32 nameHash) {\n        require(exist(nameHash), \"not exist\");\n        _;\n    }\n\n    modifier NotExist(bytes32 nameHash) {\n        require(!exist(nameHash), \"exist\");\n        _;\n    }\n\n    modifier Expired(bytes32 nameHash) {\n        require(expired(nameHash), \"not expired\");\n        _;\n    }\n\n    modifier NotExpired(bytes32 nameHash) {\n        require(!expired(nameHash), \"expired\");\n        _;\n    }\n\n    modifier Valid(bytes32 nameHash, address check) {\n        require(isValid(nameHash, check), \"not valid\");\n        _;\n    }\n\n    function _a_update(bytes32 nameHash, address owner, uint256 expire)\n        external\n        Admin\n    {\n        ownerOf[nameHash] = owner;\n        expirationOf[nameHash] = expire;\n        emit Update(nameHash, owner);\n    }\n\n    function _c_add(bytes32 nameHash, address owner, uint256 expire)\n        external\n        ContractCaller\n        NotExist(nameHash)\n    {\n        ownerOf[nameHash] = owner;\n        expirationOf[nameHash] = expire;\n        emit Add(nameHash, owner);\n    }\n\n    function _c_takeover(bytes32 nameHash, address owner, uint256 expire)\n        external\n        ContractCaller\n        Expired(nameHash)\n    {\n        emit Takeover(nameHash, ownerOf[nameHash], owner);\n        ownerOf[nameHash] = owner;\n        expirationOf[nameHash] = expire;\n    }\n\n    function _c_extend(bytes32 nameHash, uint256 extend)\n        external\n        ContractCaller\n        Exist(nameHash)\n    {\n        if (expired(nameHash)) {\n            expirationOf[nameHash] = extend.add(now);\n        } else {\n            expirationOf[nameHash] = extend.add(expirationOf[nameHash]);\n        }\n        emit Extend(nameHash,extend);\n    }\n\n    function remove(bytes32 nameHash) external Owner(nameHash) {\n        delete ownerOf[nameHash];\n        delete expirationOf[nameHash];\n        emit Remove(nameHash);\n    }\n\n    function removeExpired(bytes32 nameHash) external Expired(nameHash) {\n        delete ownerOf[nameHash];\n        delete expirationOf[nameHash];\n        emit Remove(nameHash);\n    }\n\n    function transfer(bytes32 nameHash, address to) external Owner(nameHash) {\n        require(msg.sender != to, \"transfer to self\");\n        ownerOf[nameHash] = to;\n        emit Transfer(nameHash, msg.sender, to);\n    }\n\n    function approve(bytes32 nameHash, address spender)\n        external\n        Owner(nameHash)\n    {\n        _allowed[msg.sender][nameHash] = spender;\n    }\n\n    function allowance(address owner, bytes32 nameHash)\n        external\n        view\n        returns (address)\n    {\n        return _allowed[owner][nameHash];\n    }\n\n    function revoke(bytes32 nameHash) external Owner(nameHash) {\n        delete _allowed[msg.sender][nameHash];\n    }\n\n    function transferFrom(bytes32 nameHash, address from, address to)\n        external\n        Valid(nameHash, from)\n    {\n        require(_allowed[from][nameHash] == msg.sender, \"not allowed\");\n        require(from != to, \"transfer to self\");\n        ownerOf[nameHash] = to;\n        emit TransferFrom(nameHash, from, to, msg.sender);\n    }\n\n}\n",
  "sourcePath": "/Users/mini2/workspace/truffle suite/baschain/contracts/BasOwnership.sol",
  "compiler": {
    "name": "solc",
    "version": "0.5.16+commit.9c3226ce.Emscripten.clang"
  },
  "schemaVersion": "3.0.23",
  "updatedAt": "2020-04-09T09:27:06.230Z",
  "networkType": "ethereum",
  "devdoc": {
    "methods": {}
  },
  "userdoc": {
    "methods": {}
  }
}