{
  "contractName": "BasRule",
  "abi": [
    {
      "constant": true,
      "inputs": [
        {
          "internalType": "bytes1",
          "name": "c",
          "type": "bytes1"
        }
      ],
      "name": "validChar",
      "outputs": [
        {
          "internalType": "bool",
          "name": "",
          "type": "bool"
        }
      ],
      "payable": false,
      "stateMutability": "pure",
      "type": "function"
    },
    {
      "constant": true,
      "inputs": [
        {
          "internalType": "bytes",
          "name": "name",
          "type": "bytes"
        },
        {
          "internalType": "uint256",
          "name": "rareLength",
          "type": "uint256"
        }
      ],
      "name": "classifyRoot",
      "outputs": [
        {
          "internalType": "bool",
          "name": "",
          "type": "bool"
        },
        {
          "internalType": "bool",
          "name": "",
          "type": "bool"
        }
      ],
      "payable": false,
      "stateMutability": "pure",
      "type": "function"
    },
    {
      "constant": true,
      "inputs": [
        {
          "internalType": "string",
          "name": "name",
          "type": "string"
        },
        {
          "internalType": "uint256",
          "name": "rareLength",
          "type": "uint256"
        }
      ],
      "name": "classifyRootS",
      "outputs": [
        {
          "internalType": "bool",
          "name": "",
          "type": "bool"
        },
        {
          "internalType": "bool",
          "name": "",
          "type": "bool"
        }
      ],
      "payable": false,
      "stateMutability": "pure",
      "type": "function"
    },
    {
      "constant": true,
      "inputs": [
        {
          "internalType": "bytes",
          "name": "name",
          "type": "bytes"
        },
        {
          "internalType": "uint256",
          "name": "rootLength",
          "type": "uint256"
        }
      ],
      "name": "verifySub",
      "outputs": [
        {
          "internalType": "bool",
          "name": "",
          "type": "bool"
        }
      ],
      "payable": false,
      "stateMutability": "pure",
      "type": "function"
    },
    {
      "constant": true,
      "inputs": [
        {
          "internalType": "string",
          "name": "name",
          "type": "string"
        },
        {
          "internalType": "uint256",
          "name": "rootLength",
          "type": "uint256"
        }
      ],
      "name": "verifySubS",
      "outputs": [
        {
          "internalType": "bool",
          "name": "",
          "type": "bool"
        }
      ],
      "payable": false,
      "stateMutability": "pure",
      "type": "function"
    }
  ],
  "bytecode": "0x608060405234801561001057600080fd5b5061089b806100206000396000f3fe608060405234801561001057600080fd5b50600436106100575760003560e01c80631cd0c24d1461005c57806320d912fa146101395780635ced286a14610221578063804e05dd146102fe578063b508db39146103e6575b600080fd5b61011f6004803603604081101561007257600080fd5b810190808035906020019064010000000081111561008f57600080fd5b8201836020820111156100a157600080fd5b803590602001918460018302840111640100000000831117156100c357600080fd5b91908080601f016020809104026020016040519081016040528093929190818152602001838380828437600081840152601f19601f8201169050808301925050505050505091929192908035906020019092919050505061044e565b604051808215151515815260200191505060405180910390f35b6101fc6004803603604081101561014f57600080fd5b810190808035906020019064010000000081111561016c57600080fd5b82018360208201111561017e57600080fd5b803590602001918460018302840111640100000000831117156101a057600080fd5b91908080601f016020809104026020016040519081016040528093929190818152602001838380828437600081840152601f19601f820116905080830192505050505050509192919290803590602001909291905050506105ec565b6040518083151515158152602001821515151581526020019250505060405180910390f35b6102e46004803603604081101561023757600080fd5b810190808035906020019064010000000081111561025457600080fd5b82018360208201111561026657600080fd5b8035906020019184600183028401116401000000008311171561028857600080fd5b91908080601f016020809104026020016040519081016040528093929190818152602001838380828437600081840152601f19601f82011690508083019250505050505050919291929080359060200190929190505050610712565b604051808215151515815260200191505060405180910390f35b6103c16004803603604081101561031457600080fd5b810190808035906020019064010000000081111561033157600080fd5b82018360208201111561034357600080fd5b8035906020019184600183028401116401000000008311171561036557600080fd5b91908080601f016020809104026020016040519081016040528093929190818152602001838380828437600081840152601f19601f82011690508083019250505050505050919291929080359060200190929190505050610726565b6040518083151515158152602001821515151581526020019250505060405180910390f35b610434600480360360208110156103fc57600080fd5b8101908080357effffffffffffffffffffffffffffffffffffffffffffffffffffffffffffff1916906020019092919050505061073e565b604051808215151515815260200191505060405180910390f35b60008082610100039050602e60f81b8460008151811061046a57fe5b602001015160f81c60f81b7effffffffffffffffffffffffffffffffffffffffffffffffffffffffffffff191614806104e25750602e60f81b846001865103815181106104b357fe5b602001015160f81c60f81b7effffffffffffffffffffffffffffffffffffffffffffffffffffffffffffff1916145b806104ee575080845110155b156104fd5760009150506105e6565b6000809050600080905060008090505b86518110156105dd5761053587828151811061052557fe5b602001015160f81c60f81b61073e565b1561055e5760018301925060009150604083106105595760009450505050506105e6565b6105d0565b602e60f81b87828151811061056f57fe5b602001015160f81c60f81b7effffffffffffffffffffffffffffffffffffffffffffffffffffffffffffff191614156105c25781156105b55760009450505050506105e6565b60019150600092506105cf565b60009450505050506105e6565b5b808060010191505061050d565b50600193505050505b92915050565b60008060008451148061060157506040845110155b15610612576000809150915061070b565b60006001905060008090505b85518110156107015761064686828151811061063657fe5b602001015160f81c60f81b61073e565b6106585760008093509350505061070b565b81156106f457600185038111806106aa5750602d60f81b86828151811061067b57fe5b602001015160f81c60f81b7effffffffffffffffffffffffffffffffffffffffffffffffffffffffffffff1916145b806106f05750605f60f81b8682815181106106c157fe5b602001015160f81c60f81b7effffffffffffffffffffffffffffffffffffffffffffffffffffffffffffff1916145b1591505b808060010191505061061e565b5060018192509250505b9250929050565b600061071e838361044e565b905092915050565b60008061073384846105ec565b915091509250929050565b6000603060f81b827effffffffffffffffffffffffffffffffffffffffffffffffffffffffffffff19161015801561079c5750603960f81b827effffffffffffffffffffffffffffffffffffffffffffffffffffffffffffff191611155b806107ff5750606160f81b827effffffffffffffffffffffffffffffffffffffffffffffffffffffffffffff1916101580156107fe5750607a60f81b827effffffffffffffffffffffffffffffffffffffffffffffffffffffffffffff191611155b5b8061082f5750602d60f81b827effffffffffffffffffffffffffffffffffffffffffffffffffffffffffffff1916145b8061085f5750605f60f81b827effffffffffffffffffffffffffffffffffffffffffffffffffffffffffffff1916145b905091905056fea265627a7a723158206e8067cddbf21a34c1ad43f186d77d891e7a85d9e141f374ca26df99188696d764736f6c63430005100032",
  "source": "pragma solidity >=0.5.0;\n\ncontract  BasRule{\n    \n    function validChar(bytes1 c) public pure returns (bool) {\n        return\n            (c >= 0x30 && c <= 0x39) ||\n            (c >= 0x61 && c <= 0x7a) ||\n            c == 0x2d ||\n            c == 0x5f;\n    }\n\n    function classifyRoot(bytes memory name, uint256 rareLength) public pure returns (bool, bool) {\n        if (name.length == 0 || name.length >= 64) {\n            return (false, false);\n        }\n        bool isRare = true;\n        for (uint256 i = 0; i < name.length; i++) {\n            if (!validChar(name[i])) {\n                return (false, false);\n            }\n            if (isRare) {\n                isRare = !(i > rareLength - 1 ||\n                    name[i] == 0x2d ||\n                    name[i] == 0x5f);\n            }\n        }\n        return (true, isRare);\n    }\n    \n    function classifyRootS(string memory name, uint256 rareLength) public pure returns (bool,bool) {\n        return classifyRoot(bytes(name), rareLength);\n    } \n\n    function verifySub(bytes memory name, uint256 rootLength) public pure returns (bool) {\n        uint256 remain = 256 - rootLength;\n        if(name[0]==0x2E || name[name.length-1]==0x2E || name.length >= remain){\n            return false;\n        }\n        uint256 segementLength = 0;\n        bool meetDot = false;\n        for (uint256 i = 0; i < name.length; i++) {\n            if(validChar(name[i])){ //not dot\n                segementLength += 1;\n                meetDot = false;\n                if(segementLength >= 64){\n                    return false;\n                }\n            }else if(name[i] == 0x2E){   //dot\n                if(meetDot){\n                    return false;\n                }\n                meetDot = true;\n                segementLength = 0;\n            }else{\n                return false;\n            }\n        }\n        return true;\n    }\n    \n    function verifySubS(string memory name, uint256 rootLength) public pure returns (bool){\n        return verifySub(bytes(name),rootLength);\n    }\n}\n",
  "sourcePath": "/Users/mini2/workspace/truffle suite/baschain/contracts/BasRule.sol",
  "compiler": {
    "name": "solc",
    "version": "0.5.16+commit.9c3226ce.Emscripten.clang"
  },
  "schemaVersion": "3.0.23",
  "updatedAt": "2020-04-09T09:27:06.235Z",
  "networkType": "ethereum",
  "devdoc": {
    "methods": {}
  },
  "userdoc": {
    "methods": {}
  }
}