{
  "contractName": "BasTransCheck",
  "abi": [
    {
      "inputs": [
        {
          "internalType": "address",
          "name": "_t",
          "type": "address"
        },
        {
          "internalType": "address",
          "name": "_o",
          "type": "address"
        },
        {
          "internalType": "address",
          "name": "_a",
          "type": "address"
        },
        {
          "internalType": "address",
          "name": "_d",
          "type": "address"
        },
        {
          "internalType": "address",
          "name": "_oann",
          "type": "address"
        },
        {
          "internalType": "address",
          "name": "_market",
          "type": "address"
        }
      ],
      "payable": false,
      "stateMutability": "nonpayable",
      "type": "constructor"
    },
    {
      "constant": true,
      "inputs": [
        {
          "internalType": "address",
          "name": "addr",
          "type": "address"
        }
      ],
      "name": "checkUserState",
      "outputs": [
        {
          "internalType": "uint256",
          "name": "ethBalance",
          "type": "uint256"
        },
        {
          "internalType": "uint256",
          "name": "basBalance",
          "type": "uint256"
        },
        {
          "internalType": "uint256",
          "name": "allowanceOANN",
          "type": "uint256"
        },
        {
          "internalType": "uint256",
          "name": "allowanceMarket",
          "type": "uint256"
        }
      ],
      "payable": false,
      "stateMutability": "view",
      "type": "function"
    },
    {
      "constant": true,
      "inputs": [
        {
          "internalType": "bytes32",
          "name": "nameHash",
          "type": "bytes32"
        }
      ],
      "name": "queryRootInfo",
      "outputs": [
        {
          "internalType": "address",
          "name": "owner",
          "type": "address"
        },
        {
          "internalType": "uint256",
          "name": "expiration",
          "type": "uint256"
        },
        {
          "internalType": "bytes",
          "name": "rootName",
          "type": "bytes"
        },
        {
          "internalType": "bool",
          "name": "isOpen",
          "type": "bool"
        },
        {
          "internalType": "bool",
          "name": "isCustomed",
          "type": "bool"
        },
        {
          "internalType": "uint256",
          "name": "isCustomedPrice",
          "type": "uint256"
        },
        {
          "internalType": "bytes4",
          "name": "ipv4",
          "type": "bytes4"
        },
        {
          "internalType": "bytes16",
          "name": "ipv6",
          "type": "bytes16"
        },
        {
          "internalType": "bytes",
          "name": "bca",
          "type": "bytes"
        },
        {
          "internalType": "bytes",
          "name": "opData",
          "type": "bytes"
        },
        {
          "internalType": "string",
          "name": "aliasName",
          "type": "string"
        }
      ],
      "payable": false,
      "stateMutability": "view",
      "type": "function"
    },
    {
      "constant": true,
      "inputs": [
        {
          "internalType": "bytes32",
          "name": "nameHash",
          "type": "bytes32"
        }
      ],
      "name": "querySubInfo",
      "outputs": [
        {
          "internalType": "address",
          "name": "owner",
          "type": "address"
        },
        {
          "internalType": "uint256",
          "name": "expiration",
          "type": "uint256"
        },
        {
          "internalType": "bytes",
          "name": "totalName",
          "type": "bytes"
        },
        {
          "internalType": "bytes4",
          "name": "ipv4",
          "type": "bytes4"
        },
        {
          "internalType": "bytes16",
          "name": "ipv6",
          "type": "bytes16"
        },
        {
          "internalType": "bytes",
          "name": "bca",
          "type": "bytes"
        },
        {
          "internalType": "bytes",
          "name": "opData",
          "type": "bytes"
        },
        {
          "internalType": "string",
          "name": "aliasName",
          "type": "string"
        },
        {
          "internalType": "bytes32",
          "name": "rootHash",
          "type": "bytes32"
        },
        {
          "internalType": "address",
          "name": "rootOwner",
          "type": "address"
        }
      ],
      "payable": false,
      "stateMutability": "view",
      "type": "function"
    },
    {
      "constant": true,
      "inputs": [
        {
          "internalType": "bytes32",
          "name": "nameHash",
          "type": "bytes32"
        },
        {
          "internalType": "address",
          "name": "seller",
          "type": "address"
        },
        {
          "internalType": "address",
          "name": "buyer",
          "type": "address"
        }
      ],
      "name": "checkBuyFromSell",
      "outputs": [
        {
          "internalType": "bool",
          "name": "sellerOwns",
          "type": "bool"
        },
        {
          "internalType": "bool",
          "name": "sellerAllows",
          "type": "bool"
        },
        {
          "internalType": "bool",
          "name": "sellOrderExist",
          "type": "bool"
        },
        {
          "internalType": "uint256",
          "name": "buyerEth",
          "type": "uint256"
        },
        {
          "internalType": "uint256",
          "name": "buyerBalance",
          "type": "uint256"
        },
        {
          "internalType": "uint256",
          "name": "buyerAllowance",
          "type": "uint256"
        }
      ],
      "payable": false,
      "stateMutability": "view",
      "type": "function"
    },
    {
      "constant": true,
      "inputs": [
        {
          "internalType": "bytes32",
          "name": "nameHash",
          "type": "bytes32"
        },
        {
          "internalType": "address",
          "name": "seller",
          "type": "address"
        },
        {
          "internalType": "address",
          "name": "buyer",
          "type": "address"
        }
      ],
      "name": "checkSellToAsk",
      "outputs": [
        {
          "internalType": "bool",
          "name": "sellerOwns",
          "type": "bool"
        },
        {
          "internalType": "bool",
          "name": "sellerAllows",
          "type": "bool"
        },
        {
          "internalType": "bool",
          "name": "askOrderExist",
          "type": "bool"
        },
        {
          "internalType": "uint256",
          "name": "sellerEth",
          "type": "uint256"
        },
        {
          "internalType": "uint256",
          "name": "buyerBalance",
          "type": "uint256"
        },
        {
          "internalType": "uint256",
          "name": "buyerAllowance",
          "type": "uint256"
        }
      ],
      "payable": false,
      "stateMutability": "view",
      "type": "function"
    }
  ],
  "bytecode": "0x608060405234801561001057600080fd5b506040516120c13803806120c1833981810160405260c081101561003357600080fd5b81019080805190602001909291908051906020019092919080519060200190929190805190602001909291908051906020019092919080519060200190929190505050856000806101000a81548173ffffffffffffffffffffffffffffffffffffffff021916908373ffffffffffffffffffffffffffffffffffffffff16021790555083600260006101000a81548173ffffffffffffffffffffffffffffffffffffffff021916908373ffffffffffffffffffffffffffffffffffffffff16021790555082600360006101000a81548173ffffffffffffffffffffffffffffffffffffffff021916908373ffffffffffffffffffffffffffffffffffffffff16021790555084600160006101000a81548173ffffffffffffffffffffffffffffffffffffffff021916908373ffffffffffffffffffffffffffffffffffffffff16021790555081600460006101000a81548173ffffffffffffffffffffffffffffffffffffffff021916908373ffffffffffffffffffffffffffffffffffffffff16021790555080600560006101000a81548173ffffffffffffffffffffffffffffffffffffffff021916908373ffffffffffffffffffffffffffffffffffffffff160217905550505050505050611eb1806102106000396000f3fe608060405234801561001057600080fd5b50600436106100575760003560e01c80631ec93fda1461005c57806350abc499146103105780636fb755bb146105e1578063763dc1b5146106925780638978aca414610743575b600080fd5b6100886004803603602081101561007257600080fd5b81019080803590602001909291905050506107b0565b604051808c73ffffffffffffffffffffffffffffffffffffffff1673ffffffffffffffffffffffffffffffffffffffff1681526020018b8152602001806020018a15151515815260200189151515158152602001888152602001877bffffffffffffffffffffffffffffffffffffffffffffffffffffffff19167bffffffffffffffffffffffffffffffffffffffffffffffffffffffff19168152602001866fffffffffffffffffffffffffffffffff19166fffffffffffffffffffffffffffffffff1916815260200180602001806020018060200185810385528e818151815260200191508051906020019080838360005b8381101561019657808201518184015260208101905061017b565b50505050905090810190601f1680156101c35780820380516001836020036101000a031916815260200191505b50858103845288818151815260200191508051906020019080838360005b838110156101fc5780820151818401526020810190506101e1565b50505050905090810190601f1680156102295780820380516001836020036101000a031916815260200191505b50858103835287818151815260200191508051906020019080838360005b83811015610262578082015181840152602081019050610247565b50505050905090810190601f16801561028f5780820380516001836020036101000a031916815260200191505b50858103825286818151815260200191508051906020019080838360005b838110156102c85780820151818401526020810190506102ad565b50505050905090810190601f1680156102f55780820380516001836020036101000a031916815260200191505b509f5050505050505050505050505050505060405180910390f35b61033c6004803603602081101561032657600080fd5b8101908080359060200190929190505050610ddc565b604051808b73ffffffffffffffffffffffffffffffffffffffff1673ffffffffffffffffffffffffffffffffffffffff1681526020018a815260200180602001897bffffffffffffffffffffffffffffffffffffffffffffffffffffffff19167bffffffffffffffffffffffffffffffffffffffffffffffffffffffff19168152602001886fffffffffffffffffffffffffffffffff19166fffffffffffffffffffffffffffffffff191681526020018060200180602001806020018781526020018673ffffffffffffffffffffffffffffffffffffffff1673ffffffffffffffffffffffffffffffffffffffff16815260200185810385528d818151815260200191508051906020019080838360005b8381101561046857808201518184015260208101905061044d565b50505050905090810190601f1680156104955780820380516001836020036101000a031916815260200191505b5085810384528a818151815260200191508051906020019080838360005b838110156104ce5780820151818401526020810190506104b3565b50505050905090810190601f1680156104fb5780820380516001836020036101000a031916815260200191505b50858103835289818151815260200191508051906020019080838360005b83811015610534578082015181840152602081019050610519565b50505050905090810190601f1680156105615780820380516001836020036101000a031916815260200191505b50858103825288818151815260200191508051906020019080838360005b8381101561059a57808201518184015260208101905061057f565b50505050905090810190601f1680156105c75780820380516001836020036101000a031916815260200191505b509e50505050505050505050505050505060405180910390f35b61064d600480360360608110156105f757600080fd5b8101908080359060200190929190803573ffffffffffffffffffffffffffffffffffffffff169060200190929190803573ffffffffffffffffffffffffffffffffffffffff169060200190929190505050611498565b60405180871515151581526020018615151515815260200185151515158152602001848152602001838152602001828152602001965050505050505060405180910390f35b6106fe600480360360608110156106a857600080fd5b8101908080359060200190929190803573ffffffffffffffffffffffffffffffffffffffff169060200190929190803573ffffffffffffffffffffffffffffffffffffffff1690602001909291905050506117ed565b60405180871515151581526020018615151515815260200185151515158152602001848152602001838152602001828152602001965050505050505060405180910390f35b6107856004803603602081101561075957600080fd5b81019080803573ffffffffffffffffffffffffffffffffffffffff169060200190929190505050611b18565b6040518085815260200184815260200183815260200182815260200194505050505060405180910390f35b600080606060008060008060006060806060600160009054906101000a900473ffffffffffffffffffffffffffffffffffffffff1673ffffffffffffffffffffffffffffffffffffffff16637dd564118d6040518263ffffffff1660e01b81526004018082815260200191505060206040518083038186803b15801561083557600080fd5b505afa158015610849573d6000803e3d6000fd5b505050506040513d602081101561085f57600080fd5b81019080805190602001909291905050509a50600160009054906101000a900473ffffffffffffffffffffffffffffffffffffffff1673ffffffffffffffffffffffffffffffffffffffff1663f7f67ef98d6040518263ffffffff1660e01b81526004018082815260200191505060206040518083038186803b1580156108e557600080fd5b505afa1580156108f9573d6000803e3d6000fd5b505050506040513d602081101561090f57600080fd5b81019080805190602001909291905050509950600260009054906101000a900473ffffffffffffffffffffffffffffffffffffffff1673ffffffffffffffffffffffffffffffffffffffff166383b8202f8d6040518263ffffffff1660e01b81526004018082815260200191505060006040518083038186803b15801561099557600080fd5b505afa1580156109a9573d6000803e3d6000fd5b505050506040513d6000823e3d601f19601f8201168201806040525060808110156109d357600080fd5b81019080805160405193929190846401000000008211156109f357600080fd5b83820191506020820185811115610a0957600080fd5b8251866001820283011164010000000082111715610a2657600080fd5b8083526020830192505050908051906020019080838360005b83811015610a5a578082015181840152602081019050610a3f565b50505050905090810190601f168015610a875780820380516001836020036101000a031916815260200191505b50604052602001805190602001909291908051906020019092919080519060200190929190505050839350809950819a50829b50839c5050505050600360009054906101000a900473ffffffffffffffffffffffffffffffffffffffff1673ffffffffffffffffffffffffffffffffffffffff1663d241cf8e8d6040518263ffffffff1660e01b81526004018082815260200191505060006040518083038186803b158015610b3557600080fd5b505afa158015610b49573d6000803e3d6000fd5b505050506040513d6000823e3d601f19601f8201168201806040525060a0811015610b7357600080fd5b81019080805190602001909291908051906020019092919080516040519392919084640100000000821115610ba757600080fd5b83820191506020820185811115610bbd57600080fd5b8251866001820283011164010000000082111715610bda57600080fd5b8083526020830192505050908051906020019080838360005b83811015610c0e578082015181840152602081019050610bf3565b50505050905090810190601f168015610c3b5780820380516001836020036101000a031916815260200191505b5060405260200180516040519392919084640100000000821115610c5e57600080fd5b83820191506020820185811115610c7457600080fd5b8251866001820283011164010000000082111715610c9157600080fd5b8083526020830192505050908051906020019080838360005b83811015610cc5578082015181840152602081019050610caa565b50505050905090810190601f168015610cf25780820380516001836020036101000a031916815260200191505b5060405260200180516040519392919084640100000000821115610d1557600080fd5b83820191506020820185811115610d2b57600080fd5b8251866001820283011164010000000082111715610d4857600080fd5b8083526020830192505050908051906020019080838360005b83811015610d7c578082015181840152602081019050610d61565b50505050905090810190601f168015610da95780820380516001836020036101000a031916815260200191505b50604052505050829250819150809050809550819650829750839850849950505050505091939597999b90929496989a50565b60008060606000806060806060600080600160009054906101000a900473ffffffffffffffffffffffffffffffffffffffff1673ffffffffffffffffffffffffffffffffffffffff16637dd564118c6040518263ffffffff1660e01b81526004018082815260200191505060206040518083038186803b158015610e5f57600080fd5b505afa158015610e73573d6000803e3d6000fd5b505050506040513d6020811015610e8957600080fd5b81019080805190602001909291905050509950600160009054906101000a900473ffffffffffffffffffffffffffffffffffffffff1673ffffffffffffffffffffffffffffffffffffffff1663f7f67ef98c6040518263ffffffff1660e01b81526004018082815260200191505060206040518083038186803b158015610f0f57600080fd5b505afa158015610f23573d6000803e3d6000fd5b505050506040513d6020811015610f3957600080fd5b81019080805190602001909291905050509850600360009054906101000a900473ffffffffffffffffffffffffffffffffffffffff1673ffffffffffffffffffffffffffffffffffffffff1663d241cf8e8c6040518263ffffffff1660e01b81526004018082815260200191505060006040518083038186803b158015610fbf57600080fd5b505afa158015610fd3573d6000803e3d6000fd5b505050506040513d6000823e3d601f19601f8201168201806040525060a0811015610ffd57600080fd5b8101908080519060200190929190805190602001909291908051604051939291908464010000000082111561103157600080fd5b8382019150602082018581111561104757600080fd5b825186600182028301116401000000008211171561106457600080fd5b8083526020830192505050908051906020019080838360005b8381101561109857808201518184015260208101905061107d565b50505050905090810190601f1680156110c55780820380516001836020036101000a031916815260200191505b50604052602001805160405193929190846401000000008211156110e857600080fd5b838201915060208201858111156110fe57600080fd5b825186600182028301116401000000008211171561111b57600080fd5b8083526020830192505050908051906020019080838360005b8381101561114f578082015181840152602081019050611134565b50505050905090810190601f16801561117c5780820380516001836020036101000a031916815260200191505b506040526020018051604051939291908464010000000082111561119f57600080fd5b838201915060208201858111156111b557600080fd5b82518660018202830111640100000000821117156111d257600080fd5b8083526020830192505050908051906020019080838360005b838110156112065780820151818401526020810190506111eb565b50505050905090810190601f1680156112335780820380516001836020036101000a031916815260200191505b50604052505050829250819150809050809750819850829950839a50849b505050505050600260009054906101000a900473ffffffffffffffffffffffffffffffffffffffff1673ffffffffffffffffffffffffffffffffffffffff1663333cf44c8c6040518263ffffffff1660e01b81526004018082815260200191505060006040518083038186803b1580156112ca57600080fd5b505afa1580156112de573d6000803e3d6000fd5b505050506040513d6000823e3d601f19601f82011682018060405250604081101561130857600080fd5b810190808051604051939291908464010000000082111561132857600080fd5b8382019150602082018581111561133e57600080fd5b825186600182028301116401000000008211171561135b57600080fd5b8083526020830192505050908051906020019080838360005b8381101561138f578082015181840152602081019050611374565b50505050905090810190601f1680156113bc5780820380516001836020036101000a031916815260200191505b50604052602001805190602001909291905050508191508093508199505050600160009054906101000a900473ffffffffffffffffffffffffffffffffffffffff1673ffffffffffffffffffffffffffffffffffffffff16637dd56411836040518263ffffffff1660e01b81526004018082815260200191505060206040518083038186803b15801561144e57600080fd5b505afa158015611462573d6000803e3d6000fd5b505050506040513d602081101561147857600080fd5b810190808051906020019092919050505090509193959799509193959799565b600080600080600080600160009054906101000a900473ffffffffffffffffffffffffffffffffffffffff1673ffffffffffffffffffffffffffffffffffffffff16630407abec8a8a6040518363ffffffff1660e01b8152600401808381526020018273ffffffffffffffffffffffffffffffffffffffff1673ffffffffffffffffffffffffffffffffffffffff1681526020019250505060206040518083038186803b15801561154857600080fd5b505afa15801561155c573d6000803e3d6000fd5b505050506040513d602081101561157257600080fd5b81019080805190602001909291905050509550600560009054906101000a900473ffffffffffffffffffffffffffffffffffffffff1673ffffffffffffffffffffffffffffffffffffffff16600160009054906101000a900473ffffffffffffffffffffffffffffffffffffffff1673ffffffffffffffffffffffffffffffffffffffff1663bcf9fcad8a8c6040518363ffffffff1660e01b8152600401808373ffffffffffffffffffffffffffffffffffffffff1673ffffffffffffffffffffffffffffffffffffffff1681526020018281526020019250505060206040518083038186803b15801561166557600080fd5b505afa158015611679573d6000803e3d6000fd5b505050506040513d602081101561168f57600080fd5b810190808051906020019092919050505073ffffffffffffffffffffffffffffffffffffffff161494506000600560009054906101000a900473ffffffffffffffffffffffffffffffffffffffff1673ffffffffffffffffffffffffffffffffffffffff166343d4a000898c6040518363ffffffff1660e01b8152600401808373ffffffffffffffffffffffffffffffffffffffff1673ffffffffffffffffffffffffffffffffffffffff16815260200182815260200192505050604080518083038186803b15801561176157600080fd5b505afa158015611775573d6000803e3d6000fd5b505050506040513d604081101561178b57600080fd5b8101908080519060200190929190805190602001909291905050505090506000811194508873ffffffffffffffffffffffffffffffffffffffff163193506117d288611b18565b90919250905080935081945050505093975093979195509350565b600080600080600080600160009054906101000a900473ffffffffffffffffffffffffffffffffffffffff1673ffffffffffffffffffffffffffffffffffffffff16630407abec8a8a6040518363ffffffff1660e01b8152600401808381526020018273ffffffffffffffffffffffffffffffffffffffff1673ffffffffffffffffffffffffffffffffffffffff1681526020019250505060206040518083038186803b15801561189d57600080fd5b505afa1580156118b1573d6000803e3d6000fd5b505050506040513d60208110156118c757600080fd5b81019080805190602001909291905050509550600560009054906101000a900473ffffffffffffffffffffffffffffffffffffffff1673ffffffffffffffffffffffffffffffffffffffff16600160009054906101000a900473ffffffffffffffffffffffffffffffffffffffff1673ffffffffffffffffffffffffffffffffffffffff1663bcf9fcad8a8c6040518363ffffffff1660e01b8152600401808373ffffffffffffffffffffffffffffffffffffffff1673ffffffffffffffffffffffffffffffffffffffff1681526020018281526020019250505060206040518083038186803b1580156119ba57600080fd5b505afa1580156119ce573d6000803e3d6000fd5b505050506040513d60208110156119e457600080fd5b810190808051906020019092919050505073ffffffffffffffffffffffffffffffffffffffff161494506000600560009054906101000a900473ffffffffffffffffffffffffffffffffffffffff1673ffffffffffffffffffffffffffffffffffffffff16630db8ae098a8c6040518363ffffffff1660e01b8152600401808373ffffffffffffffffffffffffffffffffffffffff1673ffffffffffffffffffffffffffffffffffffffff1681526020018281526020019250505060206040518083038186803b158015611ab757600080fd5b505afa158015611acb573d6000803e3d6000fd5b505050506040513d6020811015611ae157600080fd5b8101908080519060200190929190505050119350611afe87611b18565b905080935081945082955050505093975093979195509350565b6000806000808473ffffffffffffffffffffffffffffffffffffffff163193506000809054906101000a900473ffffffffffffffffffffffffffffffffffffffff1673ffffffffffffffffffffffffffffffffffffffff166370a08231866040518263ffffffff1660e01b8152600401808273ffffffffffffffffffffffffffffffffffffffff1673ffffffffffffffffffffffffffffffffffffffff16815260200191505060206040518083038186803b158015611bd657600080fd5b505afa158015611bea573d6000803e3d6000fd5b505050506040513d6020811015611c0057600080fd5b810190808051906020019092919050505092506000809054906101000a900473ffffffffffffffffffffffffffffffffffffffff1673ffffffffffffffffffffffffffffffffffffffff1663dd62ed3e33600460009054906101000a900473ffffffffffffffffffffffffffffffffffffffff166040518363ffffffff1660e01b8152600401808373ffffffffffffffffffffffffffffffffffffffff1673ffffffffffffffffffffffffffffffffffffffff1681526020018273ffffffffffffffffffffffffffffffffffffffff1673ffffffffffffffffffffffffffffffffffffffff1681526020019250505060206040518083038186803b158015611d0757600080fd5b505afa158015611d1b573d6000803e3d6000fd5b505050506040513d6020811015611d3157600080fd5b810190808051906020019092919050505091506000809054906101000a900473ffffffffffffffffffffffffffffffffffffffff1673ffffffffffffffffffffffffffffffffffffffff1663dd62ed3e33600560009054906101000a900473ffffffffffffffffffffffffffffffffffffffff166040518363ffffffff1660e01b8152600401808373ffffffffffffffffffffffffffffffffffffffff1673ffffffffffffffffffffffffffffffffffffffff1681526020018273ffffffffffffffffffffffffffffffffffffffff1673ffffffffffffffffffffffffffffffffffffffff1681526020019250505060206040518083038186803b158015611e3857600080fd5b505afa158015611e4c573d6000803e3d6000fd5b505050506040513d6020811015611e6257600080fd5b81019080805190602001909291905050509050919350919356fea265627a7a72315820f44f8761a61078b8ea6687ab815bdcf4c1e645edf218b6cfc3e03f364a739d6864736f6c63430005100032",
  "source": "pragma solidity >=0.5.0;\n\nimport \"./owned.sol\";\nimport \"./BasOwnership.sol\";\nimport \"./BasAsset.sol\";\nimport \"./BasDNS.sol\";\nimport \"./ERC20.sol\";\nimport \"./BasOwned.sol\";\nimport \"./BasOANN.sol\";\nimport \"./BasMarket.sol\";\n\ncontract BasTransCheck {\n    \n    ERC20 private t;\n    BasOwnership private o;\n    BasAsset private a;\n    BasDNS private d;\n    BasOANN private oann;\n    BasMarket private market;\n\n    constructor(address _t, address _o, address _a, address _d, address _oann, address _market)\n    public\n    {\n        t = ERC20(_t);\n        a = BasAsset(_a);\n        d = BasDNS(_d);\n        o = BasOwnership(_o);\n        oann = BasOANN(_oann);\n        market = BasMarket(_market);\n    }\n    \n    function checkUserState(address addr) public view returns (uint256 ethBalance,uint256 basBalance, uint256 allowanceOANN, uint256 allowanceMarket){\n        ethBalance = addr.balance;\n        basBalance = t.balanceOf(addr);\n        allowanceOANN = t.allowance(msg.sender,address(oann));\n        allowanceMarket = t.allowance(msg.sender,address(market));\n    }\n    \n    function queryRootInfo(bytes32 nameHash) public view returns (\n        address owner,\n        uint256 expiration,\n        bytes memory rootName,\n        bool isOpen,\n        bool isCustomed,\n        uint256 isCustomedPrice,\n        bytes4 ipv4,\n        bytes16 ipv6,\n        bytes memory bca,\n        bytes memory opData,\n        string memory aliasName\n        ){\n        owner = o.ownerOf(nameHash);\n        expiration = o.expirationOf(nameHash);\n        (rootName,isOpen,isCustomed,isCustomedPrice) = a.Root(nameHash);\n        (ipv4,ipv6,bca,opData,aliasName) = d.DNS(nameHash);\n    }\n    \n    function querySubInfo(bytes32 nameHash) external view returns (\n        address owner,\n        uint256 expiration,\n        bytes memory totalName,\n        bytes4 ipv4,\n        bytes16 ipv6,\n        bytes memory bca,\n        bytes memory opData,\n        string memory aliasName,\n        bytes32 rootHash,\n        address rootOwner\n        ){\n        owner = o.ownerOf(nameHash);\n        expiration = o.expirationOf(nameHash);\n        (ipv4,ipv6,bca,opData,aliasName) = d.DNS(nameHash);\n        (totalName,rootHash) = a.Sub(nameHash);\n        rootOwner = o.ownerOf(rootHash);\n        }\n        \n    function checkBuyFromSell(bytes32 nameHash, address seller, address buyer) external view returns (\n        bool sellerOwns,\n        bool sellerAllows,\n        bool sellOrderExist,\n        uint256 buyerEth,\n        uint256 buyerBalance,\n        uint256 buyerAllowance\n        ){\n        sellerOwns = o.isValid(nameHash,seller);\n        sellerAllows = o.allowance(seller,nameHash) == address(market);\n        sellOrderExist = market.SellOrders(seller,nameHash) > 0;\n        (buyerEth,buyerBalance,,buyerAllowance) = checkUserState(buyer);\n        }\n        \n    function checkSellToAsk(bytes32 nameHash, address seller, address buyer) external view returns (\n        bool sellerOwns,\n        bool sellerAllows,\n        bool askOrderExist,\n        uint256 sellerEth,\n        uint256 buyerBalance,\n        uint256 buyerAllowance\n        ){\n        sellerOwns = o.isValid(nameHash,seller);\n        sellerAllows = o.allowance(seller,nameHash) == address(market);\n        (uint256 price,) = market.AskOrders(buyer,nameHash);\n        askOrderExist = price > 0;\n        sellerEth = seller.balance;\n        (,buyerBalance,,buyerAllowance) = checkUserState(buyer);\n        }\n        \n}\n",
  "sourcePath": "/Users/mini2/workspace/truffle suite/baschain/contracts/BasTransCheck.sol",
  "compiler": {
    "name": "solc",
    "version": "0.5.16+commit.9c3226ce.Emscripten.clang"
  },
  "schemaVersion": "3.0.23",
  "updatedAt": "2020-04-09T09:27:03.978Z",
  "devdoc": {
    "methods": {}
  },
  "userdoc": {
    "methods": {}
  }
}